:020000040000FA
:1000000020060020C1000000BD20000039160000BD
:10001000FFFFFFFFFFFFFFFFFFFFFFFFFFFFFFFFF0
:10002000FFFFFFFFFFFFFFFFFFFFFFFFC1200000FB
:10003000FFFFFFFFFFFFFFFFBF200000C320000006
:1000400035010000350100003501000035010000D8
:1000500035010000350100003501000035010000C8
:1000600035010000FFFFFFFF3501000035010000F2
:10007000350100003501000035010000FFFFFFFFE2
:10008000FFFFFFFF910A000035010000350100006D
:10009000350100003501000035010000E5220000B7
:1000A00059230000A12200003501000035010000A5
:1000B0003501000035010000350100003501000068
:1000C0001D4880471D4880471D4800471D4801695D
:1000D000002908D14169002905D18169002902D18F
:1000E000C169002909D01848C1680901090D002912
:1000F0000ED005290CD006290AD0BFF34F8F134824
:100100001349016013491248C860BFF34F8FFEE7DF
:100110000E4801680E48884200D070470E480F49CB
:1001200001600A480E4901607047FEE7FEE7FEE7FE
:10013000FEE7FEE7FEE70000CD000000CD20000056
:100140006501000000030840800108400000002015
:100150000400FA0500ED00E0008108400100000005
:10016000000000000348854600F0B6FA004800474A
:10017000952700002006002003460B439B0703D071
:1001800009E008C9121F08C0042AFAD203E00B785C
:100190000370401C491C521EF9D27047D2B201E0D4
:1001A0000270401C491EFBD270470022F6E710B5D2
:1001B00013460A4604461946FFF7F0FF204610BDD5
:1001C00030B505462A460B4610781C78521C5B1C3D
:1001D000002801D0A042F7D0002C03D0002802D084
:1001E0006D1CEFE7284630BD421C0178401C0029F9
:1001F000FBD1801A704710B500229623114600F0FB
:100200006CF810BDC20FD207400040080BD0C10DE2
:100210000723DB01C91840020905400A1143C2083F
:1002200040071143704700200146704770B50446EF
:10023000002903D000202022012310E0002801D053
:100240000020C043C046C0460DE02546D5408D4243
:1002500005D30D469540641B1D4695404019154633
:10026000521E002DF1DC214670BDF0B51FB40646CC
:10027000002082B005464024019100901BE00199C6
:1002800022460F46304600F04FFA049A059B801A2A
:10029000994110D310461946224600F035FA361A15
:1002A0008F410197224601200021009F00F02CFA87
:1002B00038184D4100902046641E0028DFDC019B69
:1002C00000982946324607B0F0BD002904DA401CE8
:1002D000490001D140084000704770B40024050C6B
:1002E00005D11024000402D1002921D01124050ECB
:1002F00001D100020834050F01D10001241D850F32
:1003000001D18000A41C002801DB4000641C0029EE
:1003100008D020252E1B0D46F540A14000D001211C
:100320002943084301061B1B000ADB1D02D50020E0
:1003300070BC7047DB05181880180029F8DA401CDB
:100340004900F5D170BC400840007047F0B5074641
:100350000846584087B0C00F049048000E46590028
:1003600040084908BC1A884105D2384631461E4625
:1003700017460B4602465800400810434CD0300D3B
:10038000039040055900400D490D0590401A029018
:10039000402872DA18030121000B09050843019077
:1003A00004980092002805D001995242002088410B
:1003B00000920190029840210A1A0199009800F0D9
:1003C000A3F905460C466B4607CB00F0BEF9C019F1
:1003D0007141039A0E0D0023D71756401A467A40F2
:1003E000164344D0049A002A2DD0029A012A039A77
:1003F00015DC1205C01A914101263605001C714119
:10040000D20F059ED2070093019202962A462346F8
:1004100000F0BBF907B0F0BD38463146FAE71605E3
:10042000224A0F46B218C01AB74101210905001C23
:100430004F4100187F41114618187941E20F1043CF
:100440006D19644113E0E2076D0815436408C207A3
:100450001443039A01261205C01A91413605001C67
:100460007141CE07400830434908C01851412A461F
:10047000234600F07DF9CDE7FFE704980122400014
:10048000C117121A00238B4104983146C417381A39
:10049000A141EEE730B40124E407634030BC55E7E6
:1004A00030B40124E407614030BC4FE70000E0FFB6
:1004B000F0B51FB488B00B990998002448400999F9
:1004C000C00F490049080991C0070B9900904900E5
:1004D00049080B9109990898A64608431CD00B9926
:1004E0000A98084318D0099801244000420D48009A
:1004F000410D099824050003000B204309900B9837
:100500000003000B20430B9050181C494018002298
:1005100001901446104605E0002001460DB0F0BDE4
:10052000032801DA034600E003239C46C11A0AAE01
:100530000AE05F0008ADED5B4F00F75B7D430027ED
:10054000AA187C41491C5B1E6145F2DD410004ABE9
:100550005A522104120C0A43240C401C0828DFDBE9
:10056000019802900099704601910090059B049AB1
:100570000799069800F009F9D0E700000DFCFFFF8D
:10058000F0B50C465C4085B0E40FE40703944C00E2
:100590000026640859009446490802460296224300
:1005A00021D062460A431ED06200570D4A000E0356
:1005B0002303550D012402462C492405781B1B0BEF
:1005C000360B401823432643614600901C46501AC0
:1005D000B44103D30098401C009002E092180098A8
:1005E0005B41002803DA0020014605B0F0BD002081
:1005F000012109050746864611E064461D46141B85
:10060000B54106D36546521BB341744607430C43BC
:10061000A646CD0740084908284392185B41054685
:100620000D43EAD11046184313D060461946504096
:100630007140084306D06046101AB34106D2012229
:10064000002306E000220123DB0702E00122D2435F
:100650005310009874460105381C6141029C039DAB
:100660000019694100F084F8BFE70000FD030000B5
:100670004A0009030123090B1B0519430A4B10B556
:10068000520D9A4202DA0020014610BD064B343367
:100690009A4203DC9A1A00F047F810BD034BD218B7
:1006A00000F032F810BD0000FF030000CDFBFFFF9B
:1006B00010B5002904DB0124E40740428C412146A7
:1006C000002B04DB1C460123DB075242A341994265
:1006D00000D1904210BD00001CB5094800900948A7
:1006E000019005460126009C05E0E36807CC3343F2
:1006F0000C3C98471034AC42F7D3FFF737FD0000AD
:100700000C3700002C37000010B5202A04DB01460E
:10071000203A9140002010BD914020239C1A0346AE
:10072000E3401943904010BD10B5202A04DB084671
:10073000203AD040002110BD0B46D340D0402024A9
:10074000A21A91400843194610BD10B5202A06DBB5
:10075000CB170846203A1041C1170B4306E00B4661
:100760001341D0402024A21A91400843194610BDDD
:1007700010B5002B08DA0024401C614192185B413F
:100780001A4301D14008400010BDF0B51FB482B03B
:1007900005460C0003D0084602F02EFB02E002F0F2
:1007A0002BFB20300246009021462846FFF7ACFF85
:1007B000049B059A04460F4618431143084314D07E
:1007C000184610431BD0009840210A1A1846059974
:1007D000FFF7AAFF05460E46009A05990498FFF711
:1007E00093FF084305D0012004E02046394607B0B6
:1007F000F0BD0020C11705430E432C433743009939
:100800000E986305401A7905E40A00220C43FD0A9C
:100810000A3002D500200146E9E7010510196941B7
:100820000C9C0D9D00196941FFF7A2FFDFE7000056
:10083000F0B58EB0C0005C4BC4180F2318020790AF
:10084000180308901804099018050A9018060B90D0
:1008500018070C900E060D9452D001200840454216
:100860002F461F408807059000D5F03748070490B1
:1008700001D5079807430807039001D50898074357
:10088000C806029001D5099807438806019001D552
:100890000A9807434806009003D530460B9E37431D
:1008A00006460696002E01D50C9E37430D9C246803
:1008B000BC4317010598C6173E4015403543160244
:1008C0000498C71737402F4315030398C6172E40C7
:1008D0003E4315040298C7172F403743150501986A
:1008E000C6172E403E4315060098C01728403043D7
:1008F0001507069EF6172E40064326430D9C2660DC
:100900000E04300E41D0C805C7173B40880506903D
:1009100000D5F0334805059001D507980343080535
:10092000079001D508980343C80408902FD4880481
:1009300031D4490433D4002E01D50C9D2B43656876
:100940009D431301069CE4171C40174027431302E4
:10095000059CE4171C403C431303079FFF171F40EF
:1009600027431304089CE4171C403C431305C0179D
:10097000184020431306C917194001431007F21706
:1009800002400A432A430D9842600EB0F0BD099818
:1009900003438804CDD50A9D2B434904CBD50B9D39
:1009A0002B43002EC9D4CAE720200240F0B583B003
:1009B00000F05EFF002400947D26F50000980928D1
:1009C00017D900F099FF00F0BDFE304F386801F0F4
:1009D000D7FD786801F030FE0094009800097C286B
:1009E00051D830012DE00098401C009000980A2852
:1009F000E7D2029402E00298401C02900298A842BA
:100A0000F1D20B20019001980028F4D00198401EEB
:100A1000019001980028EED00198401E01900198A5
:100A20000028E8D00198401E019001980028E2D0EB
:100A30000198401EE6E70099491C00910099814207
:100A400021D2029402E00299491C02910299A94222
:100A5000F1D20B21019101990029F4D00199491E8D
:100A6000019101990029EED00199491E0191019946
:100A70000029E8D00199491E019101990029E2D08D
:100A80000199491EE6E703B0F0BDC046840200208C
:100A9000F0B581B01D4C204600F05EF8002832D041
:100AA0001B4E3068411C31601D2824D019498842F2
:100AB00024D101F0BDF81848801C62252946FFF7B3
:100AC00074FB16480027076020241348048014484C
:100AD0000770144807601448801C2946FFF765FB1F
:100AE0001248076010480480084C114807701148EC
:100AF0000760376004E0FFF759FF01E000F074FF82
:100B0000204600F019F801B0F0BDC0460060074073
:100B1000E800002007070000AC03002010040020BC
:100B200018040020140400201C0200208002002071
:100B300019040020180200204168012291434160FD
:100B4000BFF34F8F70474A1E91418900026804230A
:100B50009A4351180160704741680120084070476E
:100B60004A1E9141026801239A435118016070475F
:100B7000C160704781607047B0B541098900234B5F
:100B8000C9180A6AD9691C46183C246807240C4015
:100B90005D68194614390968890501D400210DE002
:100BA0001B49002D0AD41D686D012D0F01D069432A
:100BB00000E018491D686D02AD0FE940641E062C67
:100BC0000AD8C0467C4424796400A7440C0303057A
:100BD00005070A000E4906E0002104E00121C903CF
:100BE00001E07D2109029C681B691F230340032546
:100BF0009D402A40DA402E2800D1921C052C00D3BB
:100C00000524E140D1400846B0BDC04618800840E8
:100C100000127A000020A10770B50C4C2568002B4B
:100C200001D0054300E08543A668E0682560002BFD
:100C300001D00E4300E08E43A660002B02D010438B
:100C4000E06070BD9043E06070BDC0462480084005
:100C50008140072282400348036893430B430360AB
:100C60007047C04628800840F0B58DB0FE4864212A
:100C7000FFF79BFA0020FE4902E0091D032816D267
:100C80000A782C2A00D1401C022810D84A782C2A35
:100C900000D1401C02280AD88A782C2A00D1401C96
:100CA000022804D8CA782C2AE7D1401CE5E70022A4
:100CB000114602E0921C02290FD2F448835C2C2BCF
:100CC00000D1491C012905D883185B782C2BF1D160
:100CD000491CEFE7511C0C9202E0511E0C91114689
:100CE0000022EA48835C2D2B08D083185B78921C85
:100CF0002D2BF6D1531E0893019202E0531C019351
:100D0000089200231A4602E0921C022B0FD2DF4801
:100D1000845C2D2C00D15B1C012B05D884186478D1
:100D20002D2CF1D15B1CEFE7571C079202E0531EFC
:100D30000793174600231A4602E0921C032B0FD29A
:100D4000D248845C2D2C00D15B1C022B05D8841862
:100D500064782D2CF1D15B1CEFE7561C099202E060
:100D6000531E099316460024224602E0921C042CCE
:100D700010D2C648835C2D2B00D1641C032C05D8EF
:100D800083185B782D2BF1D1641CEFE7531C039380
:100D90000A9202E0531E0A9303920024224602E0C4
:100DA000921C052C10D2B948835C2D2B00D1641CF9
:100DB000042C05D883185B782D2BF1D1641CEFE748
:100DC000531C04930B9202E0531E0B9304920024D5
:100DD000E24303E02A462A1D062C20D2154682183B
:100DE00053782D2B00D1641C052C10D893782D2B13
:100DF00000D1641C052C0DD8D3782D2B00D1641C98
:100E0000052C0AD812792D2AE4D1641CE2E72A467F
:100E10006A1C04E02A46AA1C01E02A46EA1C069243
:100E2000089A521E0C9B934202960597964F22DA1F
:100E300000269648435CF4B23B550124344391426A
:100E40001BDA43185D78E4B23D5502243443491C53
:100E5000914212DA9D78E4B23D55032434434D1C8F
:100E600095420ADAD978E3B2F954A91C361D6B1CF5
:100E70009342DEDB02E0002600E02646F1B22D229E
:100E80000C927A54079B581E741C08997E4E81421E
:100E900026DA059F019D7D49495DE3B2F154611C4D
:100EA00085421FDA2A46794B5B195D78C9B27554C1
:100EB000511CA51C814217DA3A469E78EDB2724F5A
:100EC0007E55714E491CE51C81420FDADB78EDB28C
:100ED00073558D1C241D491C81421746DBDB07E03E
:100EE000059F08E00C4603E02C4601E02C4617461F
:100EF00067490C70079BE1B20C9A725409994A1E1B
:100F0000641C934223DA6148C15DE3B2F154611C71
:100F100097421BDAC3195D78C9B27554791CA51CB8
:100F2000914211DA9E78EDB2574F7E55564E491CCC
:100F3000E51C914208DADB78EDB273558F1C241D55
:100F4000491C9142DFDB02E02C4600E00C46E1B296
:100F50000C9A72540A994A1E641C0999914224DA27
:100F6000029F4A48C15DE3B2F154611C97421BDA0B
:100F7000C3195D78C9B27554791CA51C914211DA68
:100F80009E78EDB2404F7E553F4E491CE51C914284
:100F900008DADB78EDB273558F1C241D491C914291
:100FA000DFDB02E02C4600E00C46E1B20C9A725402
:100FB0000B994A1E631C0A99914227DA039C334815
:100FC000015D2546DCB23155591C95421DDA2C468F
:100FD0002F4604196578C9B27554791C9D1C91423D
:100FE00011DAA678EDB2284F7E55274E491CDD1C3C
:100FF000914208DAE478EDB274558C1C1B1D491C33
:101000009142DCDB02E02B4600E00B46D9B20C9AA1
:1010100072545A1C1E490A7006994B1E0B9999422C
:101020002BDA049F1948C45DD5B27455551C9F42F4
:1010300020DAC41931466678EDB24E557D1C961CF7
:101040009D4213DAA778F6B28F556D1CD61C9D42CF
:101050000CDAE478F6B28C55AF1C121D6C1C9C4265
:101060000E46DFDB07E0C046EC000020324602E01F
:10107000AC0300202A460648027004486421FFF7AA
:1010800094F80DB0F0BDC046EC000020AC03002089
:10109000AB020020F0B58DB0FE486421FFF785F863
:1010A0000020FE4902E0091D032816D20A782C2AE6
:1010B00000D1401C022810D84A782C2A00D1401CAC
:1010C00002280AD88A782C2A00D1401C022804D889
:1010D000CA782C2AE7D1401CE5E70022114602E03D
:1010E000921C02290FD2F448835C2C2B00D1491C9E
:1010F000012905D883185B782C2BF1D1491CEFE727
:10110000511C0C9202E0511E0C9111460022EA483B
:10111000835C2D2B08D083185B78921C2D2BF6D185
:10112000531E0893019202E0531C0193089200237E
:101130001A4602E0921C022B0FD2DF48845C2D2C51
:1011400000D15B1C012B05D8841864782D2CF1D1BB
:101150005B1CEFE7571C079202E0531E07931746EC
:1011600000231A4602E0921C032B0FD2D248845C63
:101170002D2C00D15B1C022B05D8841864782D2CF3
:10118000F1D15B1CEFE7561C099202E0531E099354
:1011900016460024224602E0921C042C10D2C648B7
:1011A000835C2D2B00D1641C032C05D883185B783D
:1011B0002D2BF1D1641CEFE7531C03930A9202E03C
:1011C000531E0A9303920024224602E0921C052C2F
:1011D00010D2B948835C2D2B00D1641C042C05D897
:1011E00083185B782D2BF1D1641CEFE7531C04931B
:1011F0000B9202E0531E0B9304920024E24303E09F
:101200002A462A1D062C20D21546821853782D2BEB
:1012100000D1641C052C10D893782D2B00D1641CB0
:10122000052C0DD8D3782D2B00D1641C052C0AD8A1
:1012300012792D2AE4D1641CE2E72A466A1C04E0F4
:101240002A46AA1C01E02A46EA1C0692089A521E67
:101250000C9B934202960597964F22DA00269648F9
:10126000435CF4B23B550124344391421BDA4318EA
:101270005D78E4B23D5502243443491C914212DAB0
:101280009D78E4B23D55032434434D1C95420ADA5F
:10129000D978E3B2F954A91C361D6B1C9342DEDBEE
:1012A00002E0002600E02646F1B22D220C927A548C
:1012B000079B581E741C08997E4E814226DA059FB2
:1012C000019D7D49495DE3B2F154611C85421FDAFD
:1012D0002A46794B5B195D78C9B27554511CA51C1F
:1012E000814217DA3A469E78EDB2724F7E55714EC2
:1012F000491CE51C81420FDADB78EDB273558D1C79
:10130000241D491C81421746DBDB07E0059F08E0EE
:101310000C4603E02C4601E02C46174667490C704A
:10132000079BE1B20C9A725409994A1E641C9342BD
:1013300023DA6148C15DE3B2F154611C97421BDAC4
:10134000C3195D78C9B27554791CA51C914211DA94
:101350009E78EDB2574F7E55564E491CE51C914282
:1013600008DADB78EDB273558F1C241D491C9142BD
:10137000DFDB02E02C4600E00C46E1B20C9A72542E
:101380000A994A1E641C0999914224DA029F4A482C
:10139000C15DE3B2F154611C97421BDAC3195D7859
:1013A000C9B27554791CA51C914211DA9E78EDB230
:1013B000404F7E553F4E491CE51C914208DADB78D0
:1013C000EDB273558F1C241D491C9142DFDB02E0F6
:1013D0002C4600E00C46E1B20C9A72540B994A1E5E
:1013E000631C0A99914227DA039C3348015D254624
:1013F000DCB23155591C95421DDA2C462F46041992
:101400006578C9B27554791C9D1C914211DAA67891
:10141000EDB2284F7E55274E491CDD1C914208DA5B
:10142000E478EDB274558C1C1B1D491C9142DCDB29
:1014300002E02B4600E00B46D9B20C9A72545A1CBB
:101440001E490A7006994B1E0B9999422BDA049F8C
:101450001948C45DD5B27455551C9F4220DAC41991
:1014600031466678EDB24E557D1C961C9D4213DACE
:10147000A778F6B28F556D1CD61C9D420CDAE47825
:10148000F6B28C55AF1C121D6C1C9C420E46DFDB65
:1014900007E0C0466C010020324602E0AC030020A9
:1014A0002A460648027004486421FEF77EFE0DB00D
:1014B000F0BDC0466C010020AC030020AC0200204F
:1014C000002A03D002680A430260704702688A4318
:1014D00002607047F0B500230E251C4603E0090AA0
:1014E00010352E2D5AD0CE070ED18E0716D44E07AA
:1014F0001ED40E0726D4CE062ED48E0635D44E0624
:101500003CD40E06EBD542E02E460E3E0327B740F4
:101510003B431746B7403C438E07E8D52E460C3E6A
:101520000327B7403B431746B7403C434E07E0D53F
:101530002E460A3E0327B7403B431746B7403C437D
:101540000E07D8D52E46083E0327B7403B43174623
:10155000B7403C43CE06D0D5AE1F0327B7403B4330
:101560001746B7403C438E06C9D52E1F0327B74008
:101570003B431746B7403C434E06C2D5AE1E032739
:10158000B7403B431746B7403C430E06A7D503265A
:10159000AE4033431646AE403443A0E74169994319
:1015A0004161416921434161F0BD012A04D0002A13
:1015B00007D182680A4306E0C2680A43C260083065
:1015C00003E082688A4382600C30C94302680A40A3
:1015D00002607047002A02D02422815070472822DE
:1015E00081507047F0B581B005460124A004A103E5
:1015F00000222346FFF710FB68000D490D5A022612
:10160000304629462246FFF713F90A4F7D623846D5
:1016100029463246FFF7C9FF384629462246FFF7DA
:1016200059FF384629462246FFF74AFF01B0F0BD70
:10163000FA36000000400B4006480168002908D136
:101640000168002905D10168002902D1016800293B
:10165000F3D07047F00100204A1E91410268012337
:101660009A43511801607047C068411A4842484186
:101670007047C16070474A1E9141C9000268082343
:101680009A43511801607047016802220A430260C0
:1016900070470000F0B581B00D4604460068852112
:1016A00088432978014368780843A9780143216079
:1016B0002889A06000261D48844203D0C84884427F
:1016C00004D102263046FFF757FA0646032081036D
:1016D000206808400121CA03904206D0890388424D
:1016E00005D0002805D1062004E0092002E00820EA
:1016F00000E00020009009207043696814274F43E0
:101700003946FEF793FDE978009A5518401BC1173A
:10171000884320610B2070433946FEF787FD401B4C
:10172000C1178843606101B0F0BDC046008004402D
:10173000002A03D042680A434260704742688A43E5
:1017400042607047F0B581B001208202A44C5C2158
:10175000204600F079F82F4D20462946FFF784FFF8
:101760000028F9D01920050420462946FFF77CFF00
:101770000028F9D0204600F062F820462946FFF7FD
:1017800073FF0028F9D0204600F059F8204629467A
:10179000FFF76AFF0028F9D01F4F002038701F4E56
:1017A00004E0481C3870C0B2042812D220462946F2
:1017B000FFF75AFF0028F9D0204600F040F83978AA
:1017C00070540229EDD100212046FFF745FF3978FA
:1017D000E7E7707831780902081880B2104D684345
:1017E000C00CFEF708FD0F4F3860F078B1780902A1
:1017F000081880B26843C00CFEF7FDFC78602046F4
:10180000FFF742FF0C21204600F00EF80003F9D448
:1018100001B0F0BD0400180040000020EC010020E1
:10182000CDCC00008402002081B000220092009004
:101830000098401800900098006801B070478069D7
:10184000C0B270478161704703689B0708D5036881
:101850009B0705D503689B0702D503689B07F3D454
:10186000002A02D0012292021143C1617047000098
:1018700070B584B05A4C5C21002520462A46FFF7FB
:10188000E3FF584E20463146FFF7EEFE0028F9D020
:1018900001950198002804D02046FFF7F5FE04B01A
:1018A00070BD7D20C00005E00199491C019101999E
:1018B0000029F1D1039502E00399491C0391039992
:1018C0008142F1D20B21029102990029F4D00299B0
:1018D000491E029102990029EED00299491E0291F7
:1018E00002990029E8D00299491E02910299002923
:1018F000E2D00299491EE6E770B584B001204102AA
:10190000374C2046FFF7B5FE5C2100222046FFF74A
:101910009BFF344D20462946FFF7A6FE0028F9D04C
:101920001D204604311D2046FFF79EFE0028F9D0F9
:1019300003212046FFF786FF20463146FFF794FE3D
:101940000028F9D0002520462946FFF77BFF2046D6
:101950003146FFF789FE0028F9D004212046FFF721
:1019600071FF20463146FFF77FFE0028F9D0204660
:10197000FFF78AFE0195019801282AD87D20C00032
:1019800005E00199491C01910199022921D2039591
:1019900002E00399491C039103998142F1D20B2182
:1019A000029102990029F4D00299491E02910299EC
:1019B0000029EED00299491E029102990029E8D02F
:1019C0000299491E029102990029E2D00299491E0A
:1019D000E6E701212046FFF73FFE04B070BDC04698
:1019E000009004400100180010B50024E043204995
:1019F0000A1853782C2B0AD093782C2B09D0D37843
:101A00002C2B08D01279001D2C2AF1D104E0401CA7
:101A100002E0801C00E0C01C4018011F09787D22F4
:101A2000D2004A43411F0978124B4B439918C21EFA
:101A3000127864235343C918821E12780A23534331
:101A4000C918401E007808180B4940180B498842F5
:101A500005D00B49884204D1FFF706F901E0FFF7F2
:101A600019FB03486421FEF7A0FB0648046010BD83
:101A7000AC03002010270000B0DCF7FFD6A8000060
:101A8000D5A8000010040020F0B585B0644D28787A
:101A9000644C00280FD00026C1B2204600F0D3FCD1
:101AA0008021204600F07EFC0028F9D0761CF0B2A0
:101AB000285C0028F0D1002702974B2081007D2070
:101AC000C600029880084A2846D90191564D2878C8
:101AD00000280ED0C1B2204600F0B5FC802120467F
:101AE00000F060FC0028F9D07F1CF8B2285C0028C8
:101AF000F0D1002702970298019903E00298401C58
:101B000002900298884249D2002001E00498401CCB
:101B100004900498B042F1D20B200390039800285F
:101B2000F4D00398401E039003980028EED0039849
:101B3000401E039003980028E8D00398401E0390AD
:101B400003980028E2D00398401EE6E70298401C64
:101B5000029002988842B8D2002001E00498401C0C
:101B600004900498B042F1D20B200390039800280F
:101B7000F4D00398401E039003980028EED00398F9
:101B8000401E039003980028E8D00398401E03905D
:101B900003980028E2D00398401EE6E7234D2878FA
:101BA00000280ED0C1B2204600F04DFC8021204616
:101BB00000F0F8FB0028F9D07F1CF8B2285C002860
:101BC000F0D1002002900299019A03E00299491C89
:101BD00002910299914221D2049002E00499491C99
:101BE00004910499B142F1D20B2103910399002988
:101BF000F4D00399491E039103990029EED003996B
:101C0000491E039103990029E8D00399491E0391C5
:101C100003990029E2D00399491EE6E705B0F0BD1B
:101C200000000020000004401300002024000020D9
:101C3000F0B59BB0374864242146FEF7B6FA364E1D
:101C40003078364D2978081835490968354A1268C0
:101C50005118490047181537334807703348214653
:101C6000FEF7A3FAFAB26C463149204601F0B0F80B
:101C70002046FEF7B9FA002804D002462B486946F0
:101C8000FEF77AFA2B482C49284A00F0EFFE00278D
:101C900019972A48199981422AD27D21C90005E065
:101CA000199A521C1992199A824221D2009702E085
:101CB000009A521C0092009A8A42F1D20B221A9288
:101CC0001A9A002AF4D01A9A521E1A921A9A002AC4
:101CD000EED01A9A521E1A921A9A002AE8D01A9A2C
:101CE000521E1A921A9A002AE2D01A9A521EE6E757
:101CF000ED4864242146FEF758FA11482146FEF7C4
:101D000054FA37700F482146FEF74FFA2F701BB078
:101D1000F0BDC0461C020020AB020020AC02002037
:101D20002803002024030020AA0200202C03002006
:101D300004370000F40100208C020020881300000A
:101D4000EC0000206C010020F0B585B0D24D287861
:101D500001218C0700280FD00026C1B2204600F0D8
:101D600072FB8021204600F01DFB0028F9D0761C74
:101D7000F0B2285C0028F0D18021204600F012FB50
:101D80000028F9D0002702977D229500029880084C
:101D90007C2829D8D00005E00299491C02910299BB
:101DA000A94221D2002101E00499491C049104991F
:101DB0008142F1D20B21039103990029F4D00399B8
:101DC000491E039103990029EED00399491E0391FE
:101DD00003990029E8D00399491E0391039900292A
:101DE000E2D00399491EE6E7AD49086801282ED1E3
:101DF000AA4B186801282AD101920F601F60A948D8
:101E00000760A9486421FEF7D0F9A84E3078002871
:101E10000ED0C1B2204600F016FB8021204600F013
:101E2000C1FA0028F9D07F1CF8B2305C0028F0D14C
:101E30008021204600F0B6FA0028F9D0002702974A
:101E40000298A8420198954A2AD2C00006E0FEE70F
:101E50000299491C02910299A94221D2002101E074
:101E60000499491C049104998142F1D20B210391F8
:101E700003990029F4D00399491E0391039900297D
:101E8000EED00399491E039103990029E8D00399E4
:101E9000491E039103990029E2D00399491EE6E700
:101EA0007F49086801282CD11068012829D10F60CA
:101EB00017607C4807607C486421FEF776F97C4E09
:101EC000307800280ED0C1B2204600F0BCFA802144
:101ED000204600F067FA0028F9D07F1CF8B2305C89
:101EE0000028F0D18021204600F05CFA0028F9D0CB
:101EF000002702970298A8420198684A2AD2C00097
:101F000006E0FEE70299491C02910299A94221D2FA
:101F1000002101E00499491C049104998142F1D205
:101F20000B21039103990029F4D00399491E0391D1
:101F300003990029EED00399491E039103990029C2
:101F4000E8D00399491E039103990029E2D003992F
:101F5000491EE6E752490868012829D1106801287E
:101F600026D10F601760F5480760F5486421FEF739
:101F70001CF9504E307800280ED0C1B2204600F037
:101F800062FA8021204600F00DFA0028F9D07F1C6B
:101F9000F8B2305C0028F0D18021204600F002FA2F
:101FA0000028F9D0002702970198C600C83503E041
:101FB000FEE70298401C02900298A84221D200201D
:101FC00001E00498401C04900498B042F1D20B2028
:101FD000039003980028F4D00398401E03900398C0
:101FE0000028EED00398401E039003980028E8D004
:101FF0000398401E039003980028E2D00398401EE7
:10200000E6E72D48007800280FD0C1B2204600F046
:102010001AFA8021204600F0C5F90028F9D07F1C6B
:10202000F8B22549085C0028EFD18021204600F055
:10203000B9F90028F9D00020029002E00299491C69
:1020400002910299A94221D2049002E00499491C0C
:1020500004910499B142F1D20B2103910399002913
:10206000F4D00399491E039103990029EED00399F6
:10207000491E039103990029E8D00399491E039151
:1020800003990029E2D00399491EE6E7AC48642190
:10209000FEF78BF805B0F0BDDF000020180200202D
:1020A00014020020800200201C020020D300002027
:1020B0007400002083000020B200002070477047A9
:1020C000704780B500F0E2F880BD0000F0B586B042
:1020D0006948102103910160684801210160684A44
:1020E000D36A402402942343D362664B5C68272C56
:1020F00008D05C68272C05D05C68272C02D05C686F
:10210000272CF3D14C021D68AD050FD41C601D684F
:1021100025420BD11C601D68254207D11C601D683B
:10212000254203D11C601D682542EFD01D68254261
:102130000ED000251D601E68264209D01D601E6855
:10214000264205D01D601E68264201D01D60EDE7C5
:1021500000230493036003208302156A9D431562E4
:10216000CB0215681D43156053681B0708D45368DC
:102170001B0705D453681B0702D453681B07F3D50C
:102180001368019003430425AB431360136B0726C8
:102190003340032B0BD0136B3340032B07D0136B4F
:1021A0003340032B03D0136B3340032BEED1364F58
:1021B0003B680B430620009083433B600498D0614A
:1021C0001368A34313600D02131F18682843186097
:1021D000059188021168014311605068400708D4D6
:1021E0005068400705D45068400702D45068400743
:1021F000F3D5D06A02998843D0621868A843186062
:1022000001980006506110682043106050688007F4
:1022100008D45068800705D45068800702D45068FD
:102220008007F3D5386802210143052081433960D6
:102230000498D0611068059908430099884310609C
:10224000106B304001280BD0106B3040012807D0B4
:10225000106B3040012803D0106B30400128EFD1C3
:1022600038680399084338600598000339680143CA
:10227000396006B0F0BDC0460C81084000830840BC
:102280000480084004A10640000208400348016899
:10229000002902D00168491E01607047B002002089
:1022A00010B5B54C2021204600F07CF8002810D055
:1022B0002021204600F076F806490860204600F00C
:1022C000BFF805490A68054B9854054B1870501C17
:1022D000086010BD1C03002018030020B402002079
:1022E00020030020B0B5012084072021204600F003
:1022F00059F800281ED02021204600F053F80E493E
:102300000860204600F09CF80C4C21680C4A5054A0
:102310000C4B18704D1C25600BA11046FDF750FFAB
:102320000B490860411E88410A490860802D01D18F
:1023300000202060B0BDC0461802002080020020AE
:102340001C020020190400204F4B0D0A0000000061
:102350001C0400201402002010B5864C20212046C9
:1023600000F020F8002814D02021204600F01AF8B0
:1023700008490860204600F063F807490A68074BDF
:102380009854074B1870501C0860802801D1002019
:10239000086010BD1404002010040020AC030020CD
:1023A0001804002000690840411E88417047000061
:1023B000B0B50C464168164A0A40E1881143A2882C
:1023C0000A432189114362890A43426012498842C3
:1023D00009DC0121890788420ED06749884216D15D
:1023E000104D1C200DE00D49884208D061498842FB
:1023F0000DD10D4D1A2004E0064D182001E0084DC6
:102400001E20FEF7B9FB2168FDF710FF2860B0BD64
:10241000FCE0FFFF24000040FFFF034000100440E9
:10242000241004402410004024000440002A03D05B
:10243000C2680A43C2607047C2688A43C26070477C
:10244000006880B270470160704710238B40002AFB
:1024500003D0416819434160704741689943416026
:1024600070470000F0B587B0032000044F21090237
:10247000002501242A462346FEF7CEFB102106261E
:1024800028463246FEF7D4F9202128463246FEF788
:10249000CFF90421039128463246FEF7C9F90827EF
:1024A000284639463246FEF7C3F92046039932469C
:1024B000FEF7BEF9204639463246FEF7B9F90695D1
:1024C0002F462002039005904B20C5010495294812
:1024D00004AE3146FFF76CFF02970697039805900C
:1024E0000495A00701903146FFF762FF0697039815
:1024F00005900495204F38463146FFF759FF2006D6
:102500001E490860E005086060060860194D28460D
:1025100021462246FFF78AFF019E30462146224689
:10252000FFF784FF384621462246FFF77FFF284603
:102530002F46029D29462246FFF787FF384621464F
:102540002246FFF782FF304629462246FFF77DFFED
:10255000304621462246FFF778FF074E304629468F
:102560002246FFF772FF304621462246FFF76DFFF5
:1025700007B0F0BD000004400010004000E100E0A2
:1025800070B58CB02A4900250D604D608D60CD601E
:102590000D614D618D618D83264E3560FDF732FEF4
:1025A00002460B4601AC5249204600F011FC204681
:1025B000FDF71AFE0446002804D01D4801A9224652
:1025C000FDF7DAFD34600995099880084A282CD86F
:1025D0004B2080007D21C90005E0099A521C099218
:1025E000099A824221D20B9502E00B9A521C0B925F
:1025F0000B9A8A42F1D20B220A920A9A002AF4D04C
:102600000A9A521E0A920A9A002AEED00A9A521E7A
:102610000A920A9A002AE8D00A9A521E0A920A9A44
:10262000002AE2D00A9A521EE6E70CB070BDC046FE
:10263000F40100202403002070B58CB02A49002545
:102640000D604D608D60CD600D614D618D618D833C
:10265000264E3560FDF7D6FD02460B4601AC2449F7
:10266000204600F0B5FB2046FDF7BEFD04460028DD
:1026700004D01D4801A92246FDF77EFD346009956E
:10268000099880084A282CD84B2080007D21C90059
:1026900005E0099A521C0992099A824221D20B95AF
:1026A00002E00B9A521C0B920B9A8A42F1D20B2237
:1026B0000A920A9A002AF4D00A9A521E0A920A9A98
:1026C000002AEED00A9A521E0A920A9A002AE8D0EC
:1026D0000A9A521E0A920A9A002AE2D00A9A521EB6
:1026E000E6E70CB070BDC0468C0200202803002035
:1026F00007370000F0B581B0002701243846214695
:102700002246FEF795F80225384629462246FEF76E
:102710008FF81F4E304621462246FEF7D1FE304646
:1027200029462246FEF7CCFE304621463A46FEF7C1
:1027300051FF304629463A46FEF74CFF30462146C7
:102740002246FEF747FF304629462246FEF742FF63
:10275000384621463A46FEF76BF8384629463A464F
:10276000FEF766F8304621462246FEF7A9FE3046BF
:1027700029462246FEF7A4FE304621462246FEF7B1
:1027800029FF304629462246FEF724FF01B0F0BD5E
:1027900000000B4086B000242046FEF723FF0120F6
:1027A000FEF720FFFFF75EFE04947D20C70004982B
:1027B000092861D90B2528049C490123009322464E
:1027C000FEF72AFA10200521FEF742FAFFF792FFE2
:1027D0000726204600993246FEF72AF802212046B5
:1027E0003246FEF725F801A90A2008819048029098
:1027F0000194904E3046FEF74DFF8F493046009EC3
:102800003246FEF795FF8B483146FEF734FF0494BD
:102810000498092858D90494884802E00499491C6E
:1028200004910499814271D2019402E00199491CFA
:1028300001910199B942F1D2059505990029F5D088
:102840000599491E059105990029EFD00599491E62
:10285000059105990029E9D00599491E0591059929
:102860000029E3D00599491E0591E6E70498401C2C
:10287000049004980A289DD2019402E00198401C1B
:1028800001900198B842F1D20B20059005980028DC
:10289000F4D00598401E059005980028EED00598C4
:1028A000401E059005980028E8D00598401E059028
:1028B00005980028E2D00598401EE6E70498401CE1
:1028C000049004980A28A6D2019402E00198401CC2
:1028D00001900198B842F1D2059505980028F5D0ED
:1028E0000598401E059005980028EFD00598401ED9
:1028F000059005980028E9D00598401E0590059898
:102900000028E3D00598401E0590E6E7FFF7BCF8E5
:1029100004944B208600049880084A2832D9FFF797
:1029200013FA0494C83602E00498401C04900498FA
:10293000B04249D2019402E00198401C01900198F4
:10294000B842F1D2059505980028F5D00598401EAB
:10295000059005980028EFD00598401E0590059831
:102960000028E9D00598401E059005980028E3D07E
:102970000598401E0590E6E70498401C04900498D2
:10298000B042CCD2019402E00198401C0190019821
:10299000B842F1D2059505980028F5D00598401E5B
:1029A000059005980028EFD00598401E05900598E1
:1029B0000028E9D00598401E059005980028E3D02E
:1029C0000598401E0590E6E71D4864263146FDF750
:1029D000ECFB1C4804701C4804601C4804601C4844
:1029E0003146FDF7E2FB1B4804701B4804601B489E
:1029F0000460009D2A04204621462B46FEF70CF970
:102A000068041749086017480168174E3046FEF7FA
:102A1000AFF830462146FEF7ADF830462946FEF7BE
:102A20009FF830462946FEF78EF8FEE702C0000008
:102A3000102700000090044005000300B80B0000C0
:102A4000AC0300201804002010040020140400200F
:102A50001C0200201904002080020020180200201F
:102A600000E100E03C00002000600740F0B583B0CA
:102A7000174602910190CC4D287801218C0700283F
:102A80000FD00026C1B22046FFF7DDFC8021204692
:102A9000FFF788FC0028F9D0761CF0B2285C0028EB
:102AA000F0D180212046FFF77DFC0028F9D0BF4DF2
:102AB000287800280FD00026C1B22046FFF7C3FCBB
:102AC00080212046FFF76EFC0028F9D0761CF0B27A
:102AD000285C0028F0D180212046FFF763FC002805
:102AE000F9D0B34D287800280FD00026C1B2204677
:102AF000FFF7A9FC80212046FFF754FC0028F9D0FD
:102B0000761CF0B2285C0028F0D180212046FFF727
:102B100049FC0028F9D0387800280FD00025C1B230
:102B20002046FFF790FC80212046FFF73BFC002861
:102B3000F9D06D1CE8B2385C0028F0D18021204625
:102B4000FFF730FC0028F9D02C212046FFF77BFC52
:102B500080212046FFF726FC0028F9D0954D2878E3
:102B600000280FD00026C1B22046FFF76CFC802160
:102B70002046FFF717FC0028F9D0761CF0B2285C3D
:102B80000028F0D180212046FFF70CFC0028F9D066
:102B90002D212046FFF757FC80212046FFF702FC3D
:102BA0000028F9D0844D287800280FD00026834FC4
:102BB000B95D2046FFF747FC80212046FFF7F2FB76
:102BC0000028F9D0761C28788642F1D32D212046A2
:102BD000FFF739FC80212046FFF7E4FB0028F9D0FD
:102BE000019F38780028029E0FD00025C1B22046F0
:102BF000FFF729FC80212046FFF7D4FB0028F9D0FD
:102C00006D1CE8B2385C0028F0D180212046FFF727
:102C1000C9FB0028F9D02D212046FFF714FC8021A4
:102C20002046FFF7BFFB0028F9D0307800280FD0EE
:102C30000025C1B22046FFF706FC80212046FFF7A1
:102C4000B1FB0028F9D06D1CE8B2305C0028F0D14F
:102C500080212046FFF7A6FB0028F9D02521204639
:102C6000FFF7F1FB80212046FFF79CFB0028F9D0FD
:102C7000534D287800280FD00026C1B22046FFF718
:102C8000E2FB80212046FFF78DFB0028F9D0761C5F
:102C9000F0B2285C0028F0D180212046FFF782FBAB
:102CA0000028F9D02D212046FFF7CDFB80212046BA
:102CB000FFF778FB0028F9D0424D287800280FD084
:102CC0000026414FB95D2046FFF7BDFB802120461D
:102CD000FFF768FB0028F9D0761C28788642F1D3EC
:102CE0002D212046FFF7AFFB80212046FFF75AFB3E
:102CF0000028F9D0019F38780028029E0FD00025C7
:102D0000C1B22046FFF79FFB80212046FFF74AFB18
:102D10000028F9D06D1CE8B2385C0028F0D1802181
:102D20002046FFF73FFB0028F9D02D212046FFF772
:102D30008AFB80212046FFF735FB0028F9D0307848
:102D400000280FD00025C1B22046FFF77CFB802170
:102D50002046FFF727FB0028F9D06D1CE8B2305C55
:102D60000028F0D180212046FFF71CFB0028F9D075
:102D7000164D287800280FD00026C1B22046FFF754
:102D800062FB80212046FFF70DFB0028F9D0761C5E
:102D9000F0B2285C0028F0D180212046FFF702FB2A
:102DA0000028F9D003B0F0BD4A0000204100002007
:102DB0006C00002057000020AB020020EC00002037
:102DC00060000020AC0200206C010020690000209F
:102DD0000FB410B504A9074B02AA039800F0ECF851
:102DE000044602A9002000F083FC204610BC08BC69
:102DF00004B01847F13600002021020C01D0102148
:102E00001046020A01D010460839020901D01046C6
:102E1000091F820801D01046891E420801D0881E71
:102E20007047081A704702E008C8121F08C1002A3C
:102E3000FAD170477047002001E001C1121F002A3B
:102E4000FBD17047F0B51FB486B00998089A030DFE
:102E50000021024314D05148514A18185043051418
:102E60001198012810981AD0281A401C00264D4F9E
:102E70004D49009601910490002812DA444211E075
:102E80001198012449A3012801D11098C143069843
:102E9000119A84600360C26041600BB0F0BD404293
:102EA000E4E70446210500203F4A001C51410391FC
:102EB000029012E0E00707D032463B4601990098A5
:102EC000FDF7F6FA0191009032463B46104619464E
:102ED000FDF7EEFA06460F466410002CEAD104987E
:102EE000039B0028029A0999089806DAFDF7E0FA90
:102EF000019B009AFDF7DCFA05E0FDF741FB019B21
:102F0000009AFDF73DFB04460E460022284BFDF7D4
:102F1000CFFB03D80020C043014607E00022254B29
:102F200020463146FDF712FAFDF7A2FB102409E016
:102F3000002C0ADB0A220023FDF797F9079B3032A9
:102F40001A55641E02460A43F2D11122641C079BE3
:102F5000121B1C19119B012B03D0012308430ED116
:102F60000AE0084304D0112010900020119077E768
:102F70001098151A6D1E0BE01098824202DD002396
:102F80006D1C03E0824201DA00236D1E002BEED09F
:102F9000069811998260C16030C07EE701FCFFFF96
:102FA000104D0000000014400000F03F3000000011
:102FB0000000F0430000E03FFFB597B00646002553
:102FC00018E2252877D100242746FD49049400E023
:102FD0000443761C32780120203A90400842F7D111
:102FE00030782A280ED0022230780146303909295B
:102FF00016D804990A235943303940181443761CD3
:103000000490F1E7189802C804911890002904DA96
:103010000120400304434842049002200443761CEC
:1030200030782E2814D1042004437078761C2A2886
:1030300009D11898761C80C8189009E00A214F43DE
:10304000303FC719761C3078014630390929F5D947
:1030500030786C2810D006DC4C281AD068280ED0A6
:103060006A2817D104E0742813D07A2812D110E00E
:103070000120400504430CE00121090501E0032182
:1030800009050C437178814203D101200005241801
:10309000761C761C3078119066280BD013DC5828EB
:1030A0007DD009DC00287BD04528F6D04628F4D016
:1030B00047281AD1A5E118E0632835D0642870D0DC
:1030C000652812D19DE170286CD008DC6728F1D00A
:1030D00069287BD06E280DD06F2806D1BAE07328FE
:1030E0002ED0752871D0782859D01A9A19999047FE
:1030F0006D1C7EE16002400F022809D003280DD02C
:103100000428189801680DD00D60001D189070E11A
:103110001898EA1701680D604A60F6E71898016888
:103120000D80F2E70D70F0E718986A460178117289
:10313000001D18900020507202A80090012005E0A8
:10314000189802C8189000200091C04361070DD55F
:10315000002101E00199491C0191B94212DA814232
:10316000F8DB009A515C0029F4D10BE0002101E06A
:103170000199491C01918142FADB019A0099895C0D
:103180000029F5D1019904981A9B471A214638461F
:10319000199A00F097FA0199401945180BE04FE091
:1031A0002CE113E04EE0009800990078491C009152
:1031B0001A9A199990470198401E0190401CF2D12B
:1031C000214638461A9B199A10E137E00A2000215F
:1031D000009001916002410F022907D0189A01CA9C
:1031E0001892C2179446032908D00AE01898C01D07
:1031F000C108C90005C91891944607E000B2C2177A
:103200009446042902D140B2C1178C46002261467F
:10321000944506DA0A460021404291418C462D2110
:1032200002E0210504D52B216A461173012103E038
:10323000E10701D02021F7E7029155E00A200AE0DA
:10324000102008E010200090002104200443019188
:10325000082703E008200021019100906002410F3F
:10326000022907D0189A01CA18920022944603290D
:1032700008D008E01898C01DC108C90005C91891F8
:10328000944603E080B2042900D1C0B2002102912B
:10329000210729D51199702906D0009A1021019B88
:1032A0004A401A4305D00EE040216A4611730121BD
:1032B00008E06146014306D030216A461173119936
:1032C000517302210291009A0821019B4A401A433E
:1032D0000AD16146014301D1610705D530216A4613
:1032E000117301217F1E02911199582904D035A133
:1032F0000E910DA90D910DE037A1F9E76146019BF3
:10330000009AFCF7B2FF0E9B8C469B5C0D9A521EF6
:103310000D92137061460143F0D10D9805A9081A6A
:1033200020300190600703D501200004844300E0B1
:1033300001270198874201DD381A00E00020019939
:1033400000904118029809180498401A0490E0036C
:1033500006D421461A9B199A049800F0B3F945192E
:10336000002706E003A81A9AC05D199990476D1CC2
:103370007F1C02988742F5DBE0030CD521461A9B9F
:10338000199A049800F09EF9451904E01A9A302021
:10339000199990476D1C0099481E00900029F5DC92
:1033A00008E00D980D990078491C0D911A9A199909
:1033B00090476D1C0199481E01900029F1DC63E1E2
:1033C00009280100303132333435363738396162FB
:1033D00063646566000000003031323334353637BF
:1033E00038394142434445460000000000F05AF994
:1033F0004519761C3078002800D0E2E528461BB03D
:10340000F0BD600700D406271898C01DC108C90088
:1034100048680A680831C30FDB071891190001D00A
:103420009CA108E0210501D59BA104E0E10701D0A2
:103430009AA100E09AA1430011985B0810916528B9
:103440000CD006DC452809D046281DD0472841D19C
:1034500041E0662818D067283CD13CE00021112FBC
:1034600001DB112000E0781C0191009008A911A84F
:10347000FFF7E8FC139905910021119A15927F1C22
:1034800012980197009150E00120C007039001209D
:10349000019008A9009711A8FFF7D4FC139A14997A
:1034A00005920022119B009212981593059A0192A1
:1034B000002901D0104602E0791C40180190381A0A
:1034C00001D5019804E04042401E0090781C019014
:1034D000C01B029043E0012F00DA01270021112FC9
:1034E00001DD112000E038460191009008A911A8E3
:1034F000FFF7A8FC13990591119A002112981592D3
:103500000091019721070CD40599B94201DB01997B
:1035100000E00191012904DD159A491E515C302912
:1035200006D0B84201DA011D05DA0121029115E049
:103530000199491EEDE7002805DC0099411800912A
:103540000199091A03E0019A411C914200DD0191A1
:103550000099401A401C02900120C00703902007E8
:1035600006D402990198814202DB0020C0430290F8
:1035700000206946C87707AF012103980337C907C0
:10358000884224D0022011902B201290039800280A
:103590000CDA404203902D20129007E00A21039894
:1035A000FCF744FE30317F1E039039701199481E9C
:1035B00011900029F2DC03980028EFD1791E1298AF
:1035C00008703078202108404530BF1E387006A8AA
:1035D000C01BC01D039010980078002800D0012067
:1035E000019941180298C0170918039809180498FE
:1035F000401A401E0490E00306D421461A9B199AF3
:10360000049800F05FF8451910980078002803D05E
:103610001A9A199990476D1CE00324D521461A9BEC
:10362000199A049800F04EF845191CE000980028FB
:1036300007DB00990598884203DD1598405C1999CD
:1036400001E0199930201A9A904700986D1C401C8F
:1036500000900298401E0290002804D11A9A2E2051
:10366000199990476D1C0199481E01900029DDDCD5
:1036700005E038781A9A7F1C199990476D1C0399B8
:10368000481E03900029F4DC21461A9B199A0498DD
:10369000ACE600002D0000002B0000002000000020
:1036A00000000000F8B5044600251E4617468804B1
:1036B00004D405E039462020B0476D1C641EF9D5BE
:1036C0002846F8BDFFB50446002581B01E46C80354
:1036D00001D5302700E02027880404D505E03846CE
:1036E0000399B0476D1C641EF9D5284605B0F0BD9E
:1036F0000A68531C0B601070704700400080020085
:1037000025633A00256400252E3066002C37000022
:1037100000000020E4000000262E00001038000009
:10372000E800002038050000362E000041542B41EF
:103730004444524553533D34333232300D0A004134
:10374000542B4E4554574F524B49443D350D0A00BA
:1037500041542B504152414D455445523D31302C3E
:10376000372C312C370D0A00006CDC020122626517
:1037700065626F78220041542B434D515055423DB4
:10378000302C0030386432663139320066653036AC
:1037900037313563000D0A002C312C302C302C00D1
:1037A00041542B435245564845583D300D0A00417F
:1037B000542B434D514E45573D227777772E636FFB
:1037C0006F6C6572642E6E6574222C22313838332A
:1037D000222C31323030302C3130300D0A0041543F
:1037E0002B434D51434F4E3D302C342C22626565A6
:1037F000626F78222C3630302C302C300D0A00418C
:10380000542B43475245473F0D0A0041540D0A00CF
:04000005000000C136
:00000001FF
