:020000040000FA
:1000000018020020C10000006B080000E905000094
:10001000FFFFFFFFFFFFFFFFFFFFFFFFFFFFFFFFF0
:10002000FFFFFFFFFFFFFFFFFFFFFFFF9D08000037
:10003000FFFFFFFFFFFFFFFF6D0800009F080000AC
:1000400035010000350100003501000035010000D8
:1000500035010000350100003501000035010000C8
:1000600035010000FFFFFFFF3501000035010000F2
:10007000350100003501000035010000FFFFFFFFE2
:10008000FFFFFFFF350100003501000035010000D2
:100090003501000035010000350100003501000088
:1000A0003501000035010000350100003501000078
:1000B0003501000035010000350100003501000068
:1000C0001D4880471D4880471D4800471D4801695D
:1000D000002908D14169002905D18169002902D18F
:1000E000C169002909D01848C1680901090D002912
:1000F0000ED005290CD006290AD0BFF34F8F134824
:100100001349016013491248C860BFF34F8FFEE7DF
:100110000E4801680E48884200D070470E480F49CB
:1001200001600A480E4901607047FEE7FEE7FEE7FE
:10013000FEE7FEE7FEE70000CD000000A10800009A
:100140006501000000030840800108400000002015
:100150000400FA0500ED00E0008108400100000005
:10016000000000000348854600F026F800480047DC
:10017000690A00001802002070B50446002903D067
:1001800000202022012310E0002801D00020C043DD
:10019000C046C0460DE02546D5408D4205D30D46EC
:1001A0009540641B1D46954040191546521E002D72
:1001B000F1DC214670BD0000064C0125064E05E02D
:1001C000E36807CC2B430C3C98471034B442F7D378
:1001D000FFF7CCFF280B0000480B0000F0B58EB0F5
:1001E000C0005C4BC4180F23180207901803089036
:1001F0001804099018050A9018060B9018070C901F
:100200000E060D9452D00120084045422F461F4053
:100210008807059000D5F0374807049001D5079866
:1002200007430807039001D508980743C8060290C2
:1002300001D5099807438806019001D50A9807431C
:100240004806009003D530460B9E37430646069677
:10025000002E01D50C9E37430D9C2468BC4317012A
:100260000598C6173E401540354316020498C71737
:1002700037402F4315030398C6172E403E431504FD
:100280000298C7172F40374315050198C6172E400F
:100290003E4315060098C017284030431507069EB8
:1002A000F6172E40064326430D9C26600E04300EA2
:1002B00041D0C805C7173B408805069000D5F033EC
:1002C0004805059001D5079803430805079001D517
:1002D00008980343C80408902FD4880431D44904F3
:1002E00033D4002E01D50C9D2B4365689D4313012B
:1002F000069CE4171C40174027431302059CE41793
:100300001C403C431303079FFF171F402743130460
:10031000089CE4171C403C431305C01718402043B9
:100320001306C917194001431007F21702400A4388
:100330002A430D9842600EB0F0BD0998034388042B
:10034000CDD50A9D2B434904CBD50B9D2B43002EC5
:10035000C9D4CAE72020024070B541098900234B67
:10036000C9180A6AD9691C46183C24681F24072545
:100370000D405E68194614390968890501D40021C9
:100380000DE01B49002E0AD41E687601360F01D0FD
:10039000714300E017491E687602B60FF140044031
:1003A0006D1E062D0AD8C0467D442D796D00AF44E0
:1003B0000C03030505070A000D4906E0002104E0CF
:1003C0000121C90301E07D2109029D681B69032306
:1003D000A3401A40E2402E2800D1921C052D00D3E4
:1003E0000525E940D140084670BDC0461880084048
:1003F00000127A000020A10770B50C4C2568002B74
:1004000001D0054300E08543A668E0682560002B25
:1004100001D00E4300E08E43A660002B02D01043B3
:10042000E06070BD9043E06070BDC046248008402D
:10043000002A03D002680A430260704702688A43B8
:1004400002607047F0B500230E251C4603E0090A40
:1004500010352E2D5AD0CE070ED18E0716D44E074A
:100460001ED40E0726D4CE062ED48E0635D44E06C4
:100470003CD40E06EBD542E02E460E3E0327B74095
:100480003B431746B7403C438E07E8D52E460C3E0B
:100490000327B7403B431746B7403C434E07E0D5E0
:1004A0002E460A3E0327B7403B431746B7403C431E
:1004B0000E07D8D52E46083E0327B7403B431746C4
:1004C000B7403C43CE06D0D5AE1F0327B7403B43D1
:1004D0001746B7403C438E06C9D52E1F0327B740A9
:1004E0003B431746B7403C434E06C2D5AE1E0327DA
:1004F000B7403B431746B7403C430E06A7D50326FB
:10050000AE4033431646AE403443A0E741699943B9
:100510004161416921434161F0BD012A07D0002AB0
:100520000BD182680A4382600C30C9430AE0C2687A
:100530000A43C2600830C94304E082688A4382608B
:100540000C30C94302680A400260704770B582B03F
:100550000646684600228280009221498D5D012472
:100560004455017821404378DB079B0F5918837865
:10057000DB075B0FC918C078C007000F081800041C
:10058000A1032346FFF738FF0E48825D7000134930
:100590000E5A28463146FFF721FEA80011490D5892
:1005A0006E62022228463146FFF7B7FF28463146E1
:1005B0002246FFF747FF284631462246FFF738FF1D
:1005C00002B070BD1C0B00004100044A515A044A9D
:1005D000105C8000034A105881627047220B0000B3
:1005E0001F0B0000040B000006480168002908D119
:1005F0000168002905D10168002902D1016800299C
:10060000F3D07047080000204A1E91410268012380
:100610009A43511801607047C068411A48424841E6
:1006200070474A1E9141C900026808239A43511835
:1006300001607047016802220A43026070470000AF
:10064000F0B581B00D4604460068852188432978BD
:10065000014368780843A978014321602889A06094
:1006600000261E48844203D06A48844204D10226F0
:100670003046FFF771FE06460320810320680840DC
:100680000121CA03904207D08903884207D000287D
:1006900008D10620009007E00920009004E008201F
:1006A000009001E000200090092070436968142741
:1006B0004F433946FFF760FDE978009A5518401B13
:1006C000C117884320610B2070433946FFF754FD62
:1006D000401BC1178843606101B0F0BD0080044039
:1006E000F0B581B001208202F94D6021284600F06A
:1006F000A9F8494C28462146FFF78EFF0028F9D07B
:10070000E11C2846FFF788FF0028F9D0012428467D
:100710002146FFF779FF204E307803281AD81F4F63
:1007200002E03078042815D2192001042846FFF78A
:1007300073FF0028F8D0284600F07FF8317878540D
:10074000481C307030780328EBD100212846FFF791
:100750005BFFE6E72846FFF76DFF0C21284600F017
:1007600061F80003F9D42E4802780C490B789342C3
:100770000CD142784B78934208D182788B7893429F
:1007800004D1C078C978814200D100242046FFF707
:100790001BFF01B0F0BDC046100000200C0000207F
:1007A000F0B581B0CA4C60210022204600F04AF822
:1007B000194D20462946FFF72FFF0028F9D01D20AC
:1007C0004504291D2046FFF727FF0028F9D0134EC6
:1007D0003078032810D8124F20462946FFF71CFF17
:1007E0000028F9D03078411C3170395C204600F087
:1007F00027F830780428EFD32046FFF71BFF0C21A1
:10080000204600F00FF80003F9D40020FFF7DCFECB
:1008100001B0F0BD0090044001001800110000205C
:100820000400002081B0002200920090009840183F
:1008300000900098006801B070478069C0B27047AE
:100840008161704703689B0708D503689B0705D53E
:1008500003689B0702D503689B07F3D4002A02D0E4
:10086000012292021143C161704770477047000036
:1008700009490A46103AC3B21360012212020B68FA
:10088000134208D10B68134205D10B68134202D101
:100890000B681342F3D07047100004407047704754
:1008A000F0B586B0694810210391016068480121C4
:1008B0000160684AD36A402402942343D362664BA2
:1008C0005C68272C08D05C68272C05D05C68272C36
:1008D00002D05C68272CF3D14C021D68AD050FD403
:1008E0001C601D6825420BD11C601D68254207D184
:1008F0001C601D68254203D11C601D682542EFD095
:100900001D6825420ED000251D601E68264209D0B4
:100910001D601E68264205D01D601E68264201D05B
:100920001D60EDE700230493036003208302156A32
:100930009D431562CB0215681D43156053681B0764
:1009400008D453681B0705D453681B0702D45368A7
:100950001B07F3D51368019003430425AB431360D1
:10096000136B07263340032B0BD0136B3340032B41
:1009700007D0136B3340032B03D0136B3340032B8F
:10098000EED1364F3B680B430620009083433B601B
:100990000498D0611368A34313600D02131F1868F5
:1009A000284318600591880211680143116050685E
:1009B000400708D45068400705D45068400702D467
:1009C00050684007F3D5D06A02998843D06218680E
:1009D000A843186001980006506110682043106019
:1009E0005068800708D45068800705D45068800795
:1009F00002D450688007F3D53868022101430520EE
:100A0000814339600498D0611068059908430099C2
:100A100088431060106B304001280BD0106B3040C1
:100A2000012807D0106B3040012803D0106B3040F4
:100A30000128EFD13868039908433860059800030E
:100A400039680143396006B0F0BDC0460C810840EA
:100A5000008308400480084004A1064000020840CA
:100A600080B5FFF705FF80BD84B0612000F042F83B
:100A700000252846FFF76AFD01242046FFF766FDA2
:100A8000114928462A462346FFF7B6FC0726284682
:100A900021463246FFF7A2FB022128463246FFF7E5
:100AA0009DFB01A90A200881084802900195084D84
:100AB0002846FFF7C5FD28462146FFF7B2FDFFF7A0
:100AC0006FFEFFF70DFEFEE70240000040420F0000
:100AD0000090044002E008C8121F08C1002AFAD1A1
:100AE00070477047002001E001C1121F002AFBD1AE
:100AF0007047000010B50249FFF7B2FF10BD0000BB
:100B00000000002000000B4000200B4000400B4084
:100B100000600B4000000000000000000101010225
:100B20000202004000800200480B0000000000208C
:100B300008000000D40A0000500B0000080000204C
:100B400010020000E40A000000000000010203049B
:04000005000000C136
:00000001FF
