:020000040800F2
:10000000F04F002085020008BF3700086533000864
:10001000BD370008151A0008494300080000000019
:10002000000000000000000000000000ED010008DA
:10003000891B000800000000310200081D40000874
:100040009F0200089F0200089F0200089F0200080C
:100050009F0200089F0200089F0200089F020008FC
:100060009F0200089F0200089F0200089F020008EC
:100070009F0200089F0200089F0200089F020008DC
:100080009F0200089F0200089F0200089F020008CC
:100090009F0200089F0200089F0200089F020008BC
:1000A0009F020008A94000089F0200089F02000864
:1000B0009F0200089F0200089F0200089F0200089C
:1000C0009F0200089F0200089F0200089F0200088C
:1000D0009F020008314300083D4300089F020008CA
:1000E0009F0200089F0200089F02000800F002F82B
:1000F00000F06DF80AA090E8000C82448344AAF155
:100100000107DA4501D100F062F8AFF2090EBAE852
:100110000F0013F0010F18BFFB1A43F0010318473B
:10012000E85F0000086000000A444FF0000C10F87F
:10013000013B13F0070408BF10F8014B1D1108BF65
:1001400010F8015B641E05D010F8016B641E01F805
:10015000016BF9D113F0080F1EBF10F8014BAD1C55
:100160000C1B09D16D1E58BF01F801CBFAD505E073
:1001700014F8016B01F8016B6D1EF9D59142D6D3CD
:10018000704700000023002400250026103A28BFF5
:1001900078C1FBD8520728BF30C148BF0B607047F9
:1001A000642900F0D780002070471FB500F0A8FD3B
:1001B00004000020002105F06DFB401C6060002061
:1001C000002105F051FBE0601FBD10B510BD00F02F
:1001D000A3FA1146FFF7E9FF04F0B8FC00F046FD72
:1001E00003B4FFF7F2FF03BC01F02AF8224B1968B1
:1001F0000868B0E8F00F80F30988BFF36F8F4FF005
:10020000000080F311884EF00D0E704700000000D2
:1002100006480068006880F3088862B661B6BFF3DC
:100220004F8FBFF36F8F00DF00BF00BF08ED00E00E
:10023000EFF30980BFF36F8F0F4B1A6820E9F00FBF
:10024000106008B54FF0500080F31188BFF34F8F56
:10025000BFF36F8F05F024F94FF0000080F3118891
:10026000BDE8084019680868B0E8F00F80F3098815
:10027000BFF36F8F704700BF38060020EFF3058093
:10028000704700000948804709480047FEE7FEE73D
:10029000FEE7FEE7FEE7FEE7FEE7FEE7FEE7FEE736
:1002A00004480549054A064B70470000A74000086E
:1002B000ED000008F0490020F04F0020F04B002036
:1002C000F04B00200FB41CB5074B06AA7B446946CF
:1002D0000090059800F083F90020694600F092F93B
:1002E0001CBC5DF814FB0000350300002DE9F04153
:1002F0000E460446002020622046E168884730B35D
:10030000252805D0D4E901219047206A401CF2E756
:10031000E168204600278847050018D0A5F1410074
:10032000192802D820354FF4006732462946204666
:100330002760FFF735FF40B1012804D0F61D26F0F5
:1003400007060836D8E7361DD6E72846DAE7206ADA
:10035000BDE8F0812DE9F0410646002410687529BA
:10036000314616A510D0AFF30080002802DA4042D3
:1003700013A507E031688A0701D512A502E04907F5
:1003800004D511A5012401E0AFF3008000210A2269
:1003900006F1240709E0B0FBF2FCB0FBF2F302FB2C
:1003A0001C00303078541846491C0028F3D12346ED
:1003B0002A463046BDE8F04100F0B2B80000000027
:1003C0002D0000002B0000002000000010B5431E8F
:1003D00013F8014F002CFBD105E011F8014B002C64
:1003E00003F8014B03D0521EF7D20021197010BD43
:1003F00030B505460B462A4613F8014B12F8010B9F
:1004000008B1A042F8D01CB1002802D06D1CF1E761
:10041000284630BD10B5431C02E010F8011B71B135
:100420008107FAD14FF0013202C88C1A8C4314EACA
:10043000C211F9D0C01A0A0603D0C01E10BDC01ADE
:1004400010BD0A0401D0801E10BD0902FCD0401E60
:1004500010BD10B5203AC0F00B80B1E81850203A1A
:10046000A0E81850B1E81850A0E81850BFF4F5AF54
:100470005FEA027C24BFB1E81850A0E8185044BFDE
:1004800018C918C0BDE810405FEA827C24BF51F84B
:10049000043B40F8043B08BF7047D20728BF31F83F
:1004A000023B48BF11F8012B28BF20F8023B48BF90
:1004B00000F8012B70474FF0000200B51346944638
:1004C0009646203922BFA0E80C50A0E80C50B1F1AC
:1004D0002001BFF4F7AF090728BFA0E80C5048BFC0
:1004E0000CC05DF804EB890028BF40F8042B08BF5E
:1004F000704748BF20F8022B11F0804F18BF00F85A
:10050000012B704770477047704710B500F0D2F864
:10051000006810BD10B5044600F0CCF8046010BDB2
:100520002DE9F0470D4699469246044600F124080D
:100530000168880604D5E06921F01001216000E01F
:100540000120A84201DD471B00E00027A1697A19BC
:1005500002EB0900081AA0612078C00602D42046E8
:10056000AFF30080002608E0D4E901211AF8060064
:100570009047206A401C761C20624E45F4DB2078B0
:10058000C0060AD52046AFF3008006E0D4E9012179
:1005900030209047206A401C2062381EA7F10107D6
:1005A000F4DC07E0D4E9012118F805009047206A3F
:1005B000401C2062281EA5F10105F3DC2046AFF3A4
:1005C00000802078000602D50220BDE8F0870120D7
:1005D000FBE7000001694A1C02610878704700B51A
:1005E0008FB0CDE901310021059105497944CDE96C
:1005F000031011466846FFF779FE0FB000BD0000FA
:10060000E5FFFFFF0A6802F8010B0A60704700006F
:100610000FB4002300B589B00CA900910B99CB60F1
:10062000214B7B440693214B7B44079304236FF0BB
:100630000042CDE901321E4A7A446B4608920246D6
:10064000002005F00AFC09B05DF814FB70B5064601
:100650004FF0FF3015460C46324686B00091CDE98A
:10066000010169460020049004A8FFF7D1FF02466B
:100670000498211825B108B1084600E020462860FA
:10068000049800280DD0002A02DD0098884208D086
:100690003246081B69460094CDE9010404A8FFF71F
:1006A000B7FF06B070BD0000A9000000C100000047
:1006B00081000000004870478C49002010B50446B6
:1006C00000F050F80068005D00F0010010BD4268C5
:1006D00042B1016811F8013B23B1521EC0E900127A
:1006E000184670470121C160881E704742685AB1A0
:1006F000C368016843B983688B4205D0491E521C08
:10070000C0E90012002070474FF0FF307047000032
:10071000004870478C4900207546FFF7F9FFAE4648
:1007200005006946534620F00700854618B020B5FD
:10073000FFF7B6FDBDE820404FF000064FF0000780
:100740004FF000084FF0000B21F00701AC46ACE879
:10075000C009ACE8C009ACE8C009ACE8C0098D46E6
:100760007047000010B500F0CBFA001D10BD00BFAF
:10077000255100002DE9FF4F06468BB00878FF2871
:1007800006D0491C2D2805D000244FF0000908E0B0
:1007900000200CE00124F8E709EB8903491C00EB79
:1007A00043090878FF28F7D114B1C9F10000814648
:1007B000107800252C46AA4629462D2801D02B2842
:1007C00004D1521C2D2813D0002082468B4610786D
:1007D000FF280FD04FF0000C0A21521CA5FB017816
:1007E00004FB018105FB0C11C5194BEB0104EEE77D
:1007F0000120EAE7002108464FF00000BAF1000F9F
:1008000002D000EB80004008C0F38157012F01DDCA
:100810004FF0FF370E9955EA040009EB01080BD0A1
:100820004FF0020918F5FA7F16DA4FEACA70002F66
:10083000706008DD012007E04FEACA70C6E900B029
:100840000FB0BDE8F08F00203060FFF733FFC0F835
:1008500000901821084616E0B8F5FA7F18DD002F41
:1008600002DAF748784401E0F6487844D0E900100D
:10087000C6E9001040EACA707060FFF71BFFC0F8BD
:100880000090142108460FB0BDE8F04F05F082BA81
:10089000002108464FF00000B8F10001099002DA8B
:1008A000C7F1000200E03A4601DAC8F1000106A8EB
:1008B00000F02AFA06AB93E8070003AB83E80700D1
:1008C00044F23E005BEA04010090584604D144F231
:1008D0001E012C465D460091210C0904014306D1FE
:1008E0000099240444EA15442D041039009104F0C1
:1008F0007F41014306D10099240244EA15642D0288
:100900000839009104F07041014306D10099240197
:1009100044EA15742D01091F009104F04041014380
:1009200006D10099A40044EA9574AD00891E009197
:1009300004F00041084304D100986D196441401E41
:1009400000904FF001033A466846B8F1000FCDE938
:10095000014503A902DD00F026FF01E000F0F9FEE9
:10096000BAF1000F04460D4601D084F00044002186
:1009700008464FF00000099940F2FF77484010F018
:100980000C0F07D124F00040284303D0C4F30A50D1
:10099000B84212D1FFF78EFEC0F80090C4F30A509F
:1009A000B8420AD1A8487844D0E90010C6E900103E
:1009B00004F000410843706042E7C6E900543FE795
:1009C0002DE9FF4F1F464FF0000A4FF0FF38454614
:1009D00091B0D7E90146CDF83CA000F091F9C0688C
:1009E0000168405C1090B96912986D1C8847396A9B
:1009F000814688470028F6D1B9F1FF3F0AD0002E82
:100A000024F4D06411DDB9F12B0F08D0B9F12D0F0A
:100A10000BD102E0404615B013E744F48064B96995
:100A200012986D1C8847761E8146600504A901D581
:100A30002D2000E02B20002E01F1010B0DF13008DC
:100A40008DF810003FDDB9F1690F08D0B9F1490FF9
:100A500005D0B9F16E0F02D0B9F14E0F1CD13B4653
:100A600001A8009580E85002DDE912126FF0020043
:100A700005F0F7F9C11CCED10EE0B96912986D1CD2
:100A8000884781461398761E44F4007405600F98D9
:100A9000401C002E0F9016DDB9F1300FEDD0B9F1EA
:100AA000780F02D0B9F1580F0DD10F9801280AD153
:100AB0003B46CDE90054DDE91212001F029605F015
:100AC000CEF9C11CA7D1109989453ED144F08004CC
:100AD00006E01399681CAAF1010A44F40074086046
:100AE000B9696D1C1298761E884730288146F0D06F
:100AF0002BE01099894505D1200603D4761E44F0D9
:100B0000800418E0484603F0B0FC08B3761E0DF1EF
:100B100023018B4544F4007408D2A9F130000BF88E
:100B2000010B200607D5AAF1010003E0200602D43C
:100B30000AF101008246A00502D51399681C0860DD
:100B4000B96912986D1C88478146002ED1DC53E0AC
:100B5000002E51DDB9F1650F02D0B9F1450F4BD12F
:100B6000A00549D5B9696D1C1298761E24F440740D
:100B70008847002E81460CDD2B2804D0B9F12D0FBB
:100B800007D144F48074B96912986D1C8847761EA9
:100B90008146E00501D52D2100E02B2108F8011B3D
:100BA000CDF8008021E0761E0DF13901884544F42E
:100BB00000740CD2A9F1300010F0FF0088F800009A
:100BC00002D10099884509D908F1010806E0E0053D
:100BD00001D51E4801E042F20F708246B9691298B1
:100BE0006D1C8847814613980560002E04DD484639
:100BF00003F03BFC0028D6D1F96912988847FF2002
:100C000053468BF8000088F8000000200A900B90F3
:100C100004AA0CA90AA8FFF7ADFDA00502D46FF045
:100C20000100F8E614F0240F12D0E0071CD1386858
:100C3000DDE90A12031D3B600068C0E9001213E001
:100C4000C8580000BA5800007E570000F1D8FFFFD6
:100C50000AA9684603F098FBE00705D13868009AB6
:100C6000011D3960006802602846D4E610B50446CC
:100C7000AFF300802046BDE81040FFF7B1BA000096
:100C80004FF0013C50F8042B51F8043B9A4221D11B
:100C9000A2EB0C03934313EACC1317D150F8042BA7
:100CA00051F8043B9A4215D1A2EB0C03934313EA8B
:100CB000CC130BD150F8042B51F8043B9A4209D1C4
:100CC000A2EB0C03934313EACC13DBD04FF00000EC
:100CD000704700BFD01A01BAB1FA81F101F01801D2
:100CE00022FA01F0CB40C1F12001DBB2C0B2C01A40
:100CF0002CFA01F3D11A914311EAC311E6D17047DE
:100D000000487047AC4900202DE9F047814616465F
:100D10008AB0354878440DC88DE80D0032487844D3
:100D2000801C03AC0DC884E80D0041F69B300844DC
:100D3000372190FBF1F290FBF1F5A5F1800501FB65
:100D400012041B3C02D56442012000E00020DFF8C1
:100D500098A080460027FA44AAF1BE0A0EE0E007F8
:100D60000AD03246684607EB470101230AEB8101AE
:100D700000F004FD8DE8070064107F1C002CEED10C
:100D8000194F7F44AE3F19E0E80715D007EB041078
:100D90000DF1180A90E80E008AE80E00C068F042D3
:100DA00001D1981908903246012306A903A800F042
:100DB000E5FC03AB83E807006D10641C002DE3D154
:100DC0004FF0010332466946B8F1000F03A802D084
:100DD00000F0AAFC01E000F0D1FCC9E90001C9F86B
:100DE00008200AB0BDE8F087D45200002DE9FF4F7B
:100DF0001F464FF03C0987B04FF00042DDE9141068
:100E000001F10108DDF858A002EA405003900020EB
:100E100005908346054604460490B969461E089825
:100E20008847AAF1010A0290BAF1000F3BDD02984F
:100E30002E2815D0102100F01CFA00282EDB4FF0D0
:100E4000010B0599014317D0B9F1000F0BDB4A469E
:100E5000C11700F0FBF905430C43A9F1040905E0B3
:100E6000012004900BE008B145F001050120059038
:100E7000049820B9361D02E0049800B1361FB96904
:100E8000089808F101088847BBF1000FAAF1010A90
:100E90000290C9D00999C1F80080C5E7029870286E
:100EA00008D0502806D0F96908988847BBF1000F90
:100EB00014D04FE0002002900120BBF1000F0490FD
:100EC00009D0B969089808F101088847AAF1010911
:100ED000B9F1000F07DCF969089888476FF0010045
:100EE0000BB0BDE8F08F2B2804D02D280CD14FF08B
:100EF000FF300490B969089808F101088847A9F102
:100F00000109B9F1000FE6DD411CE4D00A2100F02F
:100F1000B0F90028DFDB029908F1010801EB81013B
:100F200000EB41000290B969089888470A2100F057
:100F3000A0F9099AA9F10109B9F1000FC2F80080DE
:100F400001DD0028E7DAF9690898884704990298D2
:100F500000FB016655EA040004D004F0404109009A
:100F600002D006E0039898E0A40044EA9574AD002E
:100F7000B61E04F00041080002D16D196441761ECE
:100F8000159810F0240F03D04FF00B095C4803E0D4
:100F90004FF028096FF07D008246564507DAAAEB2C
:100FA00006018944B9F1410F01DD4FF041090120EB
:100FB0000021A9F1010200F049F9024628400B4640
:100FC0002140084301D0012100E00021501E029180
:100FD00043F1FF3128402140084301D0012000E0C7
:100FE00000200299834651EA0B014FD000210846A8
:100FF0004FF00000039900F4400039B100EB80008D
:101000004FF4400100EBD07001EA60008015012828
:1010100002DD4FF0FF3000E013D0401C36D00298C4
:1010200060B3BBF1000F0CD14A460120002100F053
:101030000DF928402140084301D0012000E00020A4
:10104000E0B101204A46002100F000F903464019B2
:101050000A4661412D1A8C4111D3B9F1400F09DDC7
:10106000159810F0240F02D0AAF1340603E0AAF17B
:10107000170600E0761C00254FF0004406E05B1EDA
:1010800042F1FF3220EA030521EA0204CAF101001D
:10109000B04206DA1B4903980843019000200090F3
:1010A0000EE0039AC4F3D321E80A0A43164940EA42
:1010B00044500A433146CDE90002684603F0CAF9BC
:1010C000159810F0240F0BD01598C00715D138686B
:1010D000DDE90012031D3B600068C0E900120CE06E
:1010E00002A8694603F050F91598C00705D1386881
:1010F000029A011D3960006802604046F0E6000077
:1011000002FCFFFF0000F07F0000F03F2DE9FF4FE1
:1011100092461D4685B04FF00041DDE9124BDDE9F6
:1011200014727F1E01EA4B50414940F0FF4940EAEA
:101130000108002122F020004928049102D04E2805
:1011400028D04CE03BA0012607C88DE80700A9691C
:101150000698641C88477F1E014606D41DF80600C9
:1011600018B121F0200181420BD0E9690698884727
:10117000032E34D0082E32D06FF0010009B0BDE844
:10118000F08F761C032E01D0082EE0D1601CCAF827
:101190000000DCE7A9690698641C88477F1E2AD4F2
:1011A00020F02000412826D1A9690698641C8847B0
:1011B0007F1E20D420F020004E281CD1A96906985B
:1011C000641C88477F1E48F4002849F48009CAF847
:1011D000004001D4282806D0E969069888475FEACC
:1011E000CB7012D022E0A9690698641C88477F1E44
:1011F00001D4002803DAE96906988847BCE7292862
:10120000F1D1641CCAF80040E9E71BF0240F07D0B5
:1012100028680499031D2B600068C0E9001805E0E8
:101220002868021D2A600068C0F800902046A5E7E3
:101230000000F07F494E46494E49545900000000D5
:1012400001491820ABBEFEE726000200B2F12003E0
:101250000AD5C2F1200301FA02F120FA03F300FAE1
:1012600002F041EA0301704700FA03F14FF0000079
:1012700070473A2800D2303820F02002412A01D3AA
:10128000A2F13700884201D34FF0FF30704770471A
:1012900020F07F4C80EA030023F07F47ACEB07038C
:1012A00003F57C5300F0004003F1FF032DE9804972
:1012B0004FEA154B09B44FEA144325EA0B4E24EAD2
:1012C00003480FF2042606EB132749083E785FEA2D
:1012D000320203FB0667C7F5000707FB06F64FEA75
:1012E00054374FEAD64606F1020607FB066CCCF1EE
:1012F000005C4FEA1C472CEA074C07FB06F40CFB8A
:1013000006F504EB15464FEA961634BF00204FF061
:1013100000404FEAD13706FB07FC4FEA1C4C0CFBA0
:101320000BF7D21B03FB0CF761EB07010CFB0EF76D
:10133000B0EB074072EB17420CFB08F734BFA2EB8F
:101340000742B2EB074261EB17414FEA0C444FEA08
:10135000910706FB07FC4FEA1C4C0CFB0BF7B0EBAC
:10136000C74072EB573203FB0CF734BFA2EBC74206
:10137000B2EBC74261EB57310CFB0EF7B0EBC70085
:1013800072EB57720CFB08F734BFA2EBC702B2EB4B
:10139000C70261EB5771039F4FEA816141EA9211E5
:1013A00004EBCC044FEAD1374FEA826206FB07FC1C
:1013B00042EA90124FEA80604FEA1C4C0CFB0BF79C
:1013C000D21B03FB0CF761EB07010CFB0EF7B0EB34
:1013D000074072EB17420CFB08F734BFA2EB074241
:1013E000B2EB074261EB17414FEA8C554FEA910788
:1013F00004EB9C2406FB07FC4FEA1C4C0CFB0BF790
:10140000B0EBC74072EB573203FB0CF734BFA2EBD3
:10141000C742B2EBC74261EB57310CFB0EF7B0EBA2
:10142000C70072EB57720CFB08F734BFA2EBC70280
:10143000B2EBC70261EB577115EB4C254FEA8161A6
:1014400041EA92114FEA82624FEAD13742EA9012A2
:1014500006FB07FC44F100044FEA80604FEA1C4C95
:101460000CFB0BF7D21B03FB0CF761EB07010CFB2A
:101470000EF7B0EB074072EB17420CFB08F734BFD6
:10148000A2EB0742B2EB074261EB174115EB1C15CB
:101490004FEA813141EA92414FEA823242EA904278
:1014A0004FEA80304FEA0C7644F1000448EA0343E7
:1014B0004EEA0B484FF0000EB2EB080C71EB03073D
:1014C00024BF624639464EEB0E0E4FF0000B00185B
:1014D000524149414BEB0B0BB2EB080C71EB03078C
:1014E0007BF1000B24BF624639464EEB0E0E4FF0E7
:1014F000000B0018524149414BEB0B0BB2EB080CAF
:1015000071EB03077BF1000B24BF624639464EEBBB
:101510000E0E51EA020718BF46F0010616EB0E76D2
:1015200055F1000254F1000103D5BDE88901BDE881
:101530000088BDE88901BDE80048B619524141EB79
:101540000101A3F10103704780807F7E7D7C7B7A5F
:101550007978777676757473727171706F6E6E6D5F
:101560006C6C6B6A6A696868676666656464636305
:1015700062616160605F5F5E5E5D5D5C5C5B5B5A8B
:101580005A595958585757565655555554545353F8
:1015900052525251515050504F4F4F4E4E4D4D4D53
:1015A0004C4C4C4B4B4B4A4A4A494949484848479E
:1015B00047474746464645454544444444434343DC
:1015C000434242424241414146EA0646A3F5705336
:1015D0004FEA164646EA42564FEAD22242EA4152C2
:1015E00010B54FEAD121A3F1010300F02FF820F04C
:1015F000004000F1020C00F0004701EB00501146E2
:10160000BCF5006F40EA070000D210BDBAF1000F30
:101610000AD01CB503B44FF004004FF004014FF0A2
:1016200000000FBCBDE810404FF00001BBF1010FFE
:10163000B9BF04484FF0FF310348002140EA0700DA
:1016400010BD00BFFFFFEF7F0000F07F002B9C4626
:1016500030D477002BD01CB54FEA370703B44FF0D6
:1016600010004FF01001BAF1000F06D0BCF1000FCE
:10167000DCBF40F0080040F008014FF000000FBC54
:10168000BDE810400BF1010BBBF1010F08BF5FEA91
:10169000170722BF12F1010211F101014FF00041C1
:1016A00043F1000300F0004043EA00007047F9D323
:1016B0005708D0E746EA064613F1400F4FEA1646B0
:1016C0001FDD13F1200FDFBF16430A460021203330
:1016D0005B42BED0C3F1200746EA064602FA07F78E
:1016E0004FEA164646EA0706C3F1200722FA03F23C
:1016F00001FA07F721FA03F14FF0000342EA07026B
:10170000A7E746EA020646EA06464FEA164646EAD2
:101710000106BCBF46EA0646360C4FF000034FF008
:1017200000024FF0000194E72DE9804C9A46934661
:1017300070B491E8380007C831EA400C48BF34EA79
:10174000430C03D5FFF7A4FDFFF780FFF0BCBDE815
:10175000008C2DE9804C9A46934670B491E838008D
:1017600007C831EA400C48BF34EA430C03D5FFF701
:101770008FFDFFF729FFF0BCBDE8008C2DE9804C00
:101780009A46934670B491E8380007C810F0804F2D
:1017900008BF13F0804F03D100F01AF8FFF756FF8F
:1017A000F0BCBDE8008C2DE9804C9A46934670B49D
:1017B00091E8380007C810F0804F08BF13F0804F41
:1017C00003D100F005F8FFF7FFFEF0BCBDE8008C88
:1017D00020F07F4780EA030023F07F4C07EB0C03E7
:1017E000A3F57C5300F00040A3F1FE0392F0000F3C
:1017F00000F0B38095F0000F00F077802DE90149EB
:101800004FEA11404FEA144621EA004800FB06FC6B
:1018100024EA064708FB06F607FB08F800FB07F773
:1018200018EB06484CEB164C4FEA124B18EB0748E6
:101830004FEA15464CEB174022EA0B4E0BFB06FC19
:1018400025EA06470EFB06F607FB0EFE0BFB07F725
:101850001EEB064E4CEB164C4FF000061EEB074EEF
:101860004CEB174B18EB0B0840F1000018EB0E0B7C
:1018700058EB000840F100008F1A4FF000013CBF08
:10188000C943661B14BFB5EB040C00213CBFC94320
:10189000F61B4FEA17444EEA8E0E27EA04454FEA3C
:1018A0001C4704FB07622CEA074C05FB07F70CFBFF
:1018B00005F604FB0CFC16EB074642EB174216EB51
:1018C0000C4642EB1C421BEB060658EB0202414160
:1018D00046EA9E0601D5BDE80189B619524141EBA1
:1018E0000101A3F10103BDE801894FEA14454FEA64
:1018F000114724EA054621EA074C05FB07F406FBDD
:1019000007F70CFB06F105FB0CFC11EB074144EB60
:1019100017444FEA124711EB0C4144EB1C4422EAF6
:10192000074C05FB07F206FB07F70CFB06F605FB69
:101930000CFC16EB074642EB174216EB0C4642EB4B
:101940001C456A1854F1000148BF7047B61952414E
:1019500041EB0101A3F10103704795F0000F37D06F
:101960004FEA11424FEA144721EA024624EA074CA3
:1019700002FB07F106FB07F70CFB06F402FB0CFC6D
:1019800014EB074441EB17414FEA154714EB0C44A5
:1019900041EB1C4125EA074C02FB07F506FB07F764
:1019A0000CFB06F602FB0CFC16EB074645EB174555
:1019B00016EB0C4645EB1C42121951F1000148BFD1
:1019C0007047B619524141EB0101A3F10103704781
:1019D0004FEA14454FEA114724EA054621EA074C2D
:1019E00005FB07F106FB07F70CFB06F24FF00006BC
:1019F00005FB0CFC12EB074241EB174112EB0C42CA
:101A000051EB1C4148BF7047921841EB0101A3F113
:101A100001037047FEE7000001B54FF47A7301221D
:101A20006946024800F074FF08BD0000E40A002087
:101A3000F0B585B00025009501954FF400414E4862
:101A4000029500F053FB01264C4C002872D06564CF
:101A50004B4F0821384600F049FB00286CD0A564A4
:101A60001021384600F042FB002867D0E5642021B1
:101A7000384600F03BFB002862D0256541A168464E
:101A8000626CFEF71FFC6846FEF7C4FC024669461E
:101A900003A8FEF79BFC6846FEF7BCFC01466846BF
:101AA000FEF709FD37A16846A26CFEF70BFC6846FD
:101AB000FEF7B0FC0246694603A8FEF787FC6846BD
:101AC000FEF7A8FC01466846FEF7F5FC2DA1684626
:101AD000E26CFEF7F7FB6846FEF79CFC024669469F
:101AE00003A8FEF773FC6846FEF794FC01466846BF
:101AF000FEF7E1FC23A16846226DFEF7E3FB684692
:101B0000FEF788FC0246694603A8FEF75FFC6846BC
:101B1000FEF780FC01466846FEF7CDFC03A8FEF701
:101B200079FC164B002130227533C0F105000BE023
:101B300000E001E066648BE7A66491E7E66496E75F
:101B400026659BE75A54491C8842FBDC03A8FEF734
:101B500061FC0246094803A97530FEF737FC684668
:101B6000FEF758FC01466846FEF7A5FC4FF4FA70F4
:101B700000F0BAF905B0F0BD00080140AC05002046
:101B8000000C014025640000704770B5242000F06F
:101B9000B5F800244FF49455FF2000F0C9F8641CF8
:101BA000A4B2AC42F8D3BDE8704000F01DB900000B
:101BB00010B500F085F8642002F0ECFF00F06AF840
:101BC000122000F09BF800F065F8012000F096F874
:101BD000272000F0ADF8012000F0AAF8002000F066
:101BE000A7F8112000F08AF8032000F0A1F80021E6
:101BF00040F227137F22084600F0C8F8212000F0A9
:101C00007DF8002000F094F8802000F091F8002189
:101C1000084600F0A7F800F03DF8BDE81040014884
:101C200000F013B80100002070B50546322000F026
:101C300065F80024285D00F07BF8641CE4B2992C60
:101C4000F8D3BDE8704000F025B810B50446FFF7A2
:101C5000EBFF3F2000F052F814F8990F00F068F8FD
:101C6000032000F04BF8607800F062F8042000F0E8
:101C700045F8A07800F05CF8E07800F059F8207999
:101C800000F056F82C2000F039F86079BDE81040DB
:101C900000F04EB870B5094D4FF4806421462846D7
:101CA00000F024FA00284FF0320002D000F01CF9B6
:101CB000F4E7BDE8704000F017B90000000C0140E7
:101CC00010B50D4C01220421204600F014FA6420C6
:101CD00000F00AF900220421204600F00CFA02204C
:101CE00000F002F901220421204600F004FABDE8C8
:101CF0001040642000F0F8B8000C014070B50B4CA7
:101D0000054600220221204600F0F5F900220121BB
:101D1000204600F0F0F92846FFF77EFE2046BDE899
:101D200070400122114600F0E6B90000000C0140AD
:101D300070B50B4C054601220221204600F0DBF96C
:101D400000220121204600F0D6F92846FFF764FE64
:101D50002046BDE870400122114600F0CCB90000D9
:101D6000000C014070B505460C464E20FFF7C6FF3B
:101D7000E8B2FFF7DDFF4F20FFF7C0FFE0B2FFF74B
:101D8000D7FF200ABDE87040FFF7D2BF2DE9F04130
:101D900007461C4616460D464420FFF7AFFFC7F323
:101DA000C700FFF7C5FFC6F3C700FFF7C1FF452017
:101DB000FFF7A4FFE8B2FFF7BBFF280AFFF7B8FF61
:101DC000E0B2FFF7B5FF200ABDE8F041FFF7B0BF72
:101DD00010B51020FFF792FF0120FFF7A9FFBDE823
:101DE0001040642000F080B810B52220FFF786FF75
:101DF000C720FFF79DFF2020FFF780FFBDE81040C0
:101E0000FFF748BF72B6FEE710B590F82110002228
:101E1000022905D00421816380F82020012010BD13
:101E200001680B6823F00E030B6001680B6823F058
:101E300001030B6090F84030C46B012101FA03F3F9
:101E4000636080F8211080F82020104610BD00004B
:101E500010B590F821100024022903D004218163D9
:101E600001243DE001680A6822F00E020A60016860
:101E70000A6822F001020A601A4A0168914201D1FF
:101E8000012121E0174A1432914201D110211BE0B7
:101E9000144A2832914201D1891515E0114A3C3289
:101EA000914201D189140FE00E4A5032914202D181
:101EB0004FF4803108E00B4A6432914202D14FF472
:101EC000801101E04FF08071064A083A516001210B
:101ED00080F82110002180F82010416B01B1884763
:101EE000204610BD0800024070B5044600F008F915
:101EF0000546601C02D004480078044400F000F954
:101F0000401BA042FAD370BD280600202DE9F84FEF
:101F1000DFF8B8910024A9F1040B23460F2709F13B
:101F2000040AABF1040EC9E00125A5402A40AA42EB
:101F30007DD1674ED1F804C0ACEB0608B44532D071
:101F400014DCBCF1030F3AD009DCBCF1000F2AD03D
:101F5000BCF1010F1CD0BCF1020F31D11DE0BCF16E
:101F6000110F17D0BCF1120F2AD119E0B8F5881F54
:101F700019D006DCB8F5803F15D0B8F5801F1FD109
:101F800011E0B8F5001F0ED0B8F5041F18D10AE013
:101F9000CB6815E0CB681B1D12E0CB6808330FE05F
:101FA000CB680C330CE08B682BB1012B4FF008038E
:101FB00003D0456104E0042302E0056100E0002352
:101FC000FF2A01D8064601E000F104064FEA840525
:101FD00001D9A5F12005D6F8008007FA05FC28EA0A
:101FE0000C0803FA05F548EA0508C6F800804D68B4
:101FF000ED0062D5374DAE6946F00106AE61AD69C0
:1020000024F0030605F001050095334D06EB050CA1
:10201000DCF80850A607360F07FA06F825EA080587
:10202000DFF8B880404503D14FF0000817E044E0E6
:10203000DFF8AC80404502D14FF001080FE0DFF837
:10204000A480404502D14FF0020808E0DFF89880F4
:10205000404502D14FF0030801E04FF0040808FAB0
:1020600006F848EA0508CCF808804D68D9F8006001
:10207000ED024D4601D5164300E096432E604D68B3
:10208000DAF80060AD02554601D5164300E09643EC
:102090002E604D68DBF80060AD035D4601D5164348
:1020A00000E096432E604D68DEF80060ED03754653
:1020B00001D5164300E096432E60641C0D682A4645
:1020C000E5407FF431AFBDE8F88F0000080401401F
:1020D0000000111000100240000001400008014003
:1020E000000C0140001001400014014080680840CD
:1020F00000D0012070470AB1016170470904FBE775
:102100000148806870470000280600200248816866
:10211000027811448160704728060020074810B5F6
:10212000016841F010010160032000F0A1F80F20C8
:1021300000F006F800F04AF8002010BD0020024030
:1021400030B505461C4887B0816941F40061816162
:10215000806906A900F40060009001A800F030F941
:1021600000F05EF91549164AB0FBF1F11548491E19
:102170000260416040F2E7320021C0E90321816042
:10218000816100F075FD040012D10E4800F09EFD43
:1021900004000DD1192000F03DF8102D07D20022C7
:1021A0002946192000F044F80748056000E00124A2
:1021B00007B0204630BD00000010024040420F0032
:1021C000002C0140240C00202C0600200F4808B5EC
:1021D000816941F001018161816901F00101009192
:1021E000C16941F08051C161C069002200F0805096
:1021F00000900F21901E00F01BF80548416821F067
:10220000E06141F00071416008BD00000010024033
:1022100000000140002809DB00F01F02012191406D
:102220004009800000F1E020C0F800117047000074
:10223000F0B40E4B1B680C46C3F30223C3F1070531
:10224000042D00D90425191D072901D2002300E01F
:10225000DB1E012606FA05F1491E214099409E40E9
:10226000761E16403143F0BC02F06FB80CED00E072
:10227000064900F0070208684FF6FF03184040EADD
:102280000220034A10430860704700000CED00E094
:102290000000FA052DE9F0470F46050061D0434ED6
:1022A000306800F00700B84209D2306820F007001B
:1022B00038433060306800F00700B84251D12868D8
:1022C0003B4C810712D5400703D5606840F4E060BD
:1022D00060602878000703D5606840F46050606053
:1022E0006068A96820F0F000084360602878C007A3
:1022F00028D06868012810D02168022810D08907EA
:1023000000292EDA616821F0030101436160FFF7C3
:10231000F7FE804641F288390DE021688903EFE736
:102320008901EDE7FFF7ECFEA0EB0801494502D972
:102330000320BDE8F0876068696800F00C00B0EB2E
:10234000810FEFD1306800F00700B8420BD9306838
:1023500020F0070038433060306800F00700B842D2
:1023600001D00120E5E72878400705D56068E968D5
:1023700020F4E060084360602878000706D56068B4
:10238000296920F4605040EAC100606000F058F80C
:102390006168084AC1F30311515CC84006490860EE
:1023A00006480068FFF7CCFE0020C2E7002002408C
:1023B00000100240555F0008340600202C06002063
:1023C0000F2202600C4A536803F003034360536812
:1023D00003F0F0038360536803F4E063C360526862
:1023E0004FF4E06303EAD20202610448006800F09F
:1023F0000700086070470000001002400020024003
:102400000448054900684968044AC1F30221515C47
:10241000C84070473406002000100240655F000885
:102420000448054900684968044AC1F3C221515C67
:10243000C84070473406002000100240655F000865
:102440000E4A51680E4801F00C03042B11D0082BE2
:102450000FD10C48C1F38343C903C05C0AD551684E
:10246000084AC1F34041921E515C054A5043B0FBFB
:10247000F1F07047044948437047000000100240E3
:1024800000127A00455F000800093D002DE9F84F71
:10249000040070D02078C04DC00749D06868C0F3F0
:1024A0008100012807D06868C0F38100022809D1A3
:1024B0006868C00306D52868800339D5606800289D
:1024C000E7D035E06068B0F5803F0BD010B1B0F5D3
:1024D000A02F11D0286820F480302860286820F4CC
:1024E000802002E0286840F480302860606890B165
:1024F000FFF706FE06460AE0286840F480202860C0
:10250000F0E700BFFFF7FCFD801B642873D8286844
:102510008003F7D50CE0FFF7F3FD064605E000BFAA
:10252000FFF7EEFD801B6428F0D828688003F7D4FD
:1025300020789A4E80074FF001094FF0000839D5F6
:10254000686810F00C0F07D06868C0F3810002289B
:1025500009D16868C00306D42868800714D52069AB
:10256000012808D110E02069B0B1C6F80090FFF74B
:10257000C7FD074605E00AE1FFF7C2FDC01B0228C0
:10258000C4D828688007F7D52868616920F0F8006A
:1025900040EAC10028600DE0C6F80080FFF7B0FDFA
:1025A000074604E0FFF7ACFDC01B022823D82868CB
:1025B0008007F7D4207800072CD57948A169D9B1D4
:1025C000C0F80090FFF79CFD074604E0FFF798FD78
:1025D000C01B02280FD8686A8007F7D571484FF4EE
:1025E000FA510068B0FBF1F0009000BF0098411E66
:1025F0000091FAD20EE080E0C0F80080FFF780FD85
:10260000074604E0FFF77CFDC01B022875D8686A06
:102610008007F7D42078400760D5E8690027C0001C
:1026200008D4E86940F08050E861E869012700F0CB
:10263000805000905C480168C90513D40168834646
:1026400041F480710160FFF75BFD824606E000BF48
:10265000FFF756FDA0EB0A0064284ED8DBF8000017
:10266000C005F5D5E06801280AD008B1052813D0C7
:10267000286A20F001002862286A20F0040002E0A5
:10268000286A40F001002862E06841F2883B98B176
:10269000FFF736FD82460BE0286A40F0040028620E
:1026A000EEE700BFFFF72CFDA0EB0A0159455AD811
:1026B000286A8007F6D50CE0FFF722FD824605E088
:1026C000FFF71EFDA0EB0A0159454CD8286A800788
:1026D000F6D41FB1E86920F08050E861E06988B362
:1026E0006968C1F38101022944D00228C6F86080DC
:1026F00004D0FFF705FD044638E034E0FFF700FDA5
:10270000074604E0FFF7FCFCC01B02282BD8286812
:102710008001F7D4206AB0F5803F05D16868A168D0
:1027200020F4003008436860D4E908010843696870
:1027300021F4741108436860C6F86090FFF7E0FC6C
:10274000044606E025E000BFFFF7DAFC001B022884
:1027500009D828688001F7D51BE000BFFFF7D0FC3F
:10276000001B022802D90320BDE8F88F28688001E9
:10277000F4D40EE00128F7D06868226A00F48031B2
:10278000914204D1616A00F47010884201D00120A6
:10279000EAE70020E8E700000010024000004242A3
:1027A00080044242340600200070004070B50400EE
:1027B00009D0606A002540B125616561A56294F881
:1027C000510040B10CE0012070BD6068B0F5827F1F
:1027D000F4D0E561F2E784F85050204600F040F86C
:1027E000022084F851002068016821F04001016056
:1027F000A088218900F4827001F404410843A18972
:1028000001F400610843217C01F002010843217DAD
:1028100001F001010843218B01F400710843217F7D
:1028200001F03801084394F8201001F080010843BA
:10283000218D01F40051084321680860A06904213A
:1028400001EA1040216848602068C16921F40061F4
:10285000C1616565012084F85100002070BD000051
:1028600030B585B000240094019402940394234D64
:102870000368234802210322AB4216D1836943F443
:1028800080538361836903F480530493836943F025
:10289000040383618069039200F004000490A02087
:1028A000CDE900016946174823E0174DAB4222D11C
:1028B000C36943F48043C361C36903F48043049351
:1028C000836943F0080383618069104D00F00800BC
:1028D00004904FF42040CDE9000103926946284658
:1028E000FFF714FB4FF48040CDE900046946284609
:1028F0000294FFF70BFB05B030BD00000030014033
:10290000001002400008014000380040000C014067
:102910002DE9F84F044690F85000002698461546D9
:102920008A4601280CD0012784F85070FFF7E8FB95
:10293000814694F85100B346012804D002269AE05B
:102940000220BDE8F88FBAF1000F6FD0002D6DD0D6
:10295000032084F85100C4F854B0C4F830A0A58610
:10296000E586C4F838B0A4F83CB0A4F83EB0C4F88A
:1029700044B0C4F840B0A068B0F5004F09D1206859
:10298000016821F0400101602068016841F4804144
:10299000016020680168490603D4016841F04001E4
:1029A0000160E068B0F5006F606803D058B3012D96
:1029B00029D049E008B1012D1FD1206B2168008882
:1029C000C86006E020688168890709D5216B0988FD
:1029D000C160206B801C2063E08E401EE0860CE00E
:1029E000FFF78EFBA0EB0901414503D3B8F1FF3F90
:1029F00003D006E0B8F1000F03D0E08E0028E1D14B
:102A000025E0032635E0206B21680078087306E096
:102A10002068816889070AD5216B09780173206BCA
:102A2000401C2063E08E401EE0860DE01FE0FFF7B3
:102A300067FBA0EB0901414503D3B8F1FF3F03D089
:102A4000DFE7B8F1000FDCD0E08E0028E0D14A4685
:102A50004146204600F07AFF08B120206065A0685A
:102A600018B92068C16880680090606D08B10126BF
:102A700001E084F8517084F850B0304661E72DE9E8
:102A8000FF4F81B0044690F8500000260E9F1D466F
:102A900093464FF0010901280FD04FF0010A84F846
:102AA00050A0FFF72DFB804694F851006168012883
:102AB0000DD0B1F5827F08D103E0022005B0BDE85A
:102AC000F08FA16809B9042801D00226C9E0029854
:102AD000002865D0BBF1000FFBD0002DF9D094F891
:102AE0005100042802D0052084F8510000206065C0
:102AF000C4F838B0E587A58702992163E586A586E5
:102B00002064606420680168490603D4016841F0CC
:102B100040010160E068B0F5006F606803D0F0B379
:102B2000012D47D081E008B1012D3CD1206B2168F7
:102B30000088C860206B801C2063E08E401EE08609
:102B400031E02068816889070FD5E18E69B1B9F15C
:102B5000010F0AD1216B0988C160206B801C2063A2
:102B6000E08E401EE0864FF0000920688168C907AA
:102B70000CD0E18F51B1C068A16B0880A06B801CA4
:102B8000A063E08F401EE0874FF00109FFF7B8FA1D
:102B9000A0EB0800B84206D3781C04D001E009E09D
:102BA0005BE003265BE0E08E0028CAD1E08F0028BE
:102BB000C7D140E0206B216800780873206B401C6F
:102BC0002063E08E401EE0862FE020688168890740
:102BD0000FD5E18E69B1B9F1010F0AD1216B0978E6
:102BE0000173206B401C2063E08E401EE0864FF096
:102BF000000920688168C9070CD0E18F51B1C06815
:102C0000A16B0870A06B401CA063E08F401EE087A2
:102C10004FF00109FFF774FAA0EB0800B84202D3A5
:102C2000781C02D0BAE7002FB8D0E08E0028CCD1B3
:102C3000E08F0028C9D142463946204600F086FE82
:102C400018B10126202060650BE0A06818B9206843
:102C5000C16880680090606D08B1012601E084F8C9
:102C600051A0002084F85000304627E77047704795
:102C700010B5040003D094F83D0010B107E0012026
:102C800010BD002084F83C00204600F01EF8022011
:102C900084F83D00211D206801F00CFA012084F821
:102CA000460084F83E0084F83F0084F8400084F831
:102CB000410084F8420084F8430084F8440084F81A
:102CC000450084F83D00002010BD704790F83D108D
:102CD000012901D001207047022180F83D100168D0
:102CE000CA6842F00102CA6000680B49884208D0F5
:102CF000B0F1804F05D00949884202D00849884286
:102D000004D1816801F00701062903D0016841F070
:102D10000101016000207047002C014000040040C8
:102D200000080040704770B50446006801694FF024
:102D30000005C943890715D4C168C943890711D45F
:102D4000E91E016101202077206880698007204604
:102D500002D0FFF7E7FF04E000F098F8204600F00B
:102D600096F8257720680169C943490717D4C168D7
:102D7000C943490713D46FF0040101610220207791
:102D80002068806910F4407F204602D0FFF7CAFF18
:102D900004E000F07BF8204600F079F82577206801
:102DA0000169C943090716D4C168C943090712D488
:102DB0006FF008010161042020772068C069800756
:102DC000204602D0FFF7AEFF04E000F05FF8204697
:102DD00000F05DF8257720680169C943C90617D45A
:102DE000C168C943C90613D46FF0100101610820FE
:102DF00020772068C06910F4407F204602D0FFF79A
:102E000091FF04E000F042F8204600F040F82577FA
:102E100020680169C943C90708D1C168C943C90706
:102E200004D1891E0161204600F032F82068016952
:102E3000C943090609D4C168C943090605D46FF01E
:102E4000800101612046FFF711FF20680169C94335
:102E5000490609D4C168C943490605D46FF0400149
:102E60000161204600F01EF820680169C943890607
:102E70000BD4C168C943890607D46FF020010161F2
:102E80002046BDE87040FFF7F2BE70BD7047704746
:102E900000680349884201D1FFF738B97047000044
:102EA000002C01407047704770470000F8B501687A
:102EB00004460868CA684B6910F00F0F4FF0000510
:102EC00059D003F0010602F49077374365D0C1076B
:102ED00005D0D10503D5616C41F001016164410762
:102EE00005D5D90703D0616C41F002016164810707
:102EF00005D5D90703D0616C41F004016164010775
:102F000007D502F02001314303D0616C41F0080184
:102F10006164616C00293AD0800604D5900602D520
:102F2000204601F02CF920684069616CC0F38010E4
:102F3000090700D460B3204601F0FAF82068406920
:102F4000400621D52068143050E8001F21F04001D0
:102F500040E80012002AF5D1E06BA8B16D49416349
:102F6000E06BFEF775FF002811D0E06B416B01B0FC
:102F7000BDE8F040084783060FD593060DD52046DF
:102F8000BDE8F84001F0FBB82046FFF78DFFF8BD23
:102F90002046FFF789FF6564F8BD266B2023012ECC
:102FA0007CD1C6067AD5D60678D5086848680090E0
:102FB00048694FF00206400640D5E16B086840685A
:102FC0000004000CE8D0A28D8242E5D9E085886932
:102FD00020282DD020680C3050E8001F21F480718B
:102FE00040E80012002AF5D12068143050E8001F94
:102FF00021F0010140E80012002AF5D120681430C8
:1030000050E8001F21F0400140E80012002AF5D1ED
:1030100084F84230256320680C3050E8001F21F00E
:10302000100140E80012002AF5D1E06BFEF7ECFE3B
:103030006663A08DE18D401A81B22AE0A08DE18DFA
:10304000401A81B2E08D0028A6D00029A4D02268C1
:103050000C3252E8000F20F4907042E80007002F75
:10306000F5D12068143050E8002F22F0010240E82A
:103070000027002FF5D184F84230256320680C30FA
:1030800050E8002F22F0100240E80023002BF5D179
:1030900066632046FFF707FFF8BDFFE705062BD55F
:1030A000150629D594F841002128F5D1A068B0F57E
:1030B000805F01D12069B0B1206A411C2162216882
:1030C00000784860E08C401E0004000CE084E3D1EE
:1030D0002068C16821F08001C1602068C16841F0AA
:1030E0004001C160D8E7206A0088C0F3080048604A
:1030F000206A801C2062E5E74006CDD55006CBD57E
:10310000CA68204622F04002CA6084F8413000F0CC
:1031100028F9C1E72141000870B5040004D094F8F3
:103120004100002510B106E0012070BD84F8405038
:10313000204600F023F8242084F841002068C1686C
:1031400021F40051C160204601F07AF8206801693D
:1031500021F4904101612068416921F02A01416117
:103160002068C16841F40051C1606564202084F882
:10317000410084F842006563002070BD70B586B0E0
:10318000002400940194029403942E4E03682E4967
:10319000022003222D4DB34226D18B6943F4804394
:1031A0008B618B6903F4804304938B6943F00403C0
:1031B0008B618969039201F0040104910102CDE958
:1031C000001069462846FEF7A1FE2815CDE9000447
:1031D000694628460294FEF799FE00220521252023
:1031E000FFF726F8252028E0194EB34227D1CB69F6
:1031F00043F40033CB61CB6903F4003304938B6950
:1032000043F004038B618969039201F00401049186
:103210000421CDE9001069462846FEF777FE082014
:10322000CDE90004694628460294FEF76FFE0022AD
:1032300005212620FEF7FCFF2620FEF7EBFF06B057
:1032400070BD00000038014000100240000801403D
:103250000044004090F84230202B01D002207047FB
:1032600021B11AB10023036301F046B80120704771
:1032700070B50646006828490025284C884220D1B0
:103280002748A268A1788154521C1044A26010F80B
:10329000010C0A280FD12249921EA1F18000FDF7EE
:1032A000D8F8A168881E60611D48FDF704F9A56083
:1032B000606E02F095FA19490122891C1948FFF73E
:1032C000C9FF19493068884225D11548E268803025
:1032D000E1788154521C1044E26010F8010C0A2875
:1032E00011D10F49921E8031A1F58A70FDF7B1F816
:1032F000E168881E20610A488030FDF7DCF8E5604F
:10330000A06E02F06DFABDE8704004490122C91CAC
:103310000648FFF79FBF70BD00380140AC05002094
:103320002C070020940B002000440040DC0B002000
:1033300090F84130202B01D00220704779B172B152
:1033400001628284C28400214164212180F84110FD
:103350000068C16841F08001C16000207047012011
:1033600070477047FEE770B50C46054600F0A6F8BA
:1033700020EA04012846BDE8704000F0C9B800000A
:103380002DE9FF5F0027FE25DDF838A016468B46A5
:103390008146B8460C2805D0B9F10E0F05D1122789
:1033A000102001E077273020804647F0800102207E
:1033B00000F0AEF880210420FFF7D5FF00210120A6
:1033C00000F0A6F880210A2000F096F8002405E01D
:1033D0001BF80410092000F09BF8641CB442F7D3DA
:1033E0004946012000F094F880210D2000F084F877
:1033F000284E042000F062F80446761E04D0E00750
:1034000002D114EA080FF4D080210D20FFF7ABFFA2
:1034100036B1062000F052F810F01B0F0CD0FE253C
:1034200080210C2000F068F80021012000F070F8E5
:1034300004B02846BDE8F09F00253C40E00700D0DE
:10344000FF25B9F10C0FEBD10A2000F037F8044644
:103450000C2000F033F810F007004FEAC40104D04C
:1034600008390844AAF8000001E0AAF8001024B1C5
:10347000122C04D91224002603E00124FBE70026C5
:1034800005E0092000F01AF803998855761CA64239
:10349000F7D3C5E7E093040010B5012211030548F6
:1034A000FEF729FE0122BDE8104011020248FEF796
:1034B00022BE0000000C01400008014070B57E21D2
:1034C00001EA40000B4E40F080044FF4805500228A
:1034D00029463046FEF70FFE204600F025FA002070
:1034E00000F022FA0446012229463046FEF703FE88
:1034F000204670BD000C014070B50C460546FFF734
:10350000DDFF40EA04012846BDE87040AFF30080CB
:103510002DE9F0410E467E2101EA40040A4F4FF4A6
:103520008055002229463846FEF7E5FD204600F08A
:10353000FBF9304600F0F8F929463846BDE8F0417D
:103540000122FEF7D8BD0000000C014010B5A4B068
:103550001C221F496846FCF77CFF0021684601F0E9
:1035600025FB1C4C1A491C22E0651C3107A8FCF7FE
:1035700070FF002107A801F019FB154920661C22E5
:1035800038310EA8FCF765FF00210EA801F00EFBF4
:103590000F4960661C22543115A8FCF75AFF002120
:1035A00015A801F003FB0A49A0661C2270311CA873
:1035B000FCF74FFF00211CA801F0F8FAE066606EEE
:1035C00001F008FFA06E01F005FF24B010BD00005F
:1035D000985E0008AC0500202DE9F04385B000247A
:1035E00033480094019402940394816941F01001DE
:1035F0008161816901F010010491816941F020012C
:103600008161816901F020010491816941F0040127
:103610008161816901F004010491816941F008012F
:1036200081618069DFF88C9000F00800049000222E
:1036300040F607314846FEF75EFD01221103484679
:10364000FEF759FD0122DFF8708017023946404627
:10365000FEF751FD41F6073001250226CDE90005B0
:10366000CDE9024669464846FEF750FCA802CDE97E
:103670000004694648460294FEF748FC009703960A
:10368000CDE9015469464046FEF740FCE8038DE869
:10369000310069464046FEF739FC38208DE831009C
:1036A00069464846FEF732FC05B0BDE8F0830000ED
:1036B00000100240000C014000080140114810B504
:1036C0000F4901604FF4827141604FF40041816005
:1036D0000021C1604FF400720161C0E905120822A7
:1036E000C0E90721416281620A21C162FFF75EF8E9
:1036F000002803D0BDE81040FEF784BB10BD0000D9
:1037000000300140E40A00200F4810B50D49016067
:103710004FF48271416000218160C1604FF40072FA
:103720000161C0E90512C1610162416281620A2141
:10373000C162FFF73BF8002803D0BDE81040FEF758
:1037400061BB10BD003800403C0B00200C4810B598
:103750000A4901604FF4E1314160002181600C228F
:10376000C160C0E904128161C161FFF7D5FC002886
:1037700003D0BDE81040FEF745BB10BD0038014046
:10378000940B00200C4810B50A4901604FF4165103
:103790004160002181600C22C160C0E90412816196
:1037A000C161FFF7B9FC002803D0BDE81040FEF767
:1037B00029BB10BD00440040DC0B0020FEE7FEE703
:1037C00003211420FFF7CFBD10B51420FFF776FEBC
:1037D000800705D10321BDE810401420FFF78CBEFF
:1037E00010BD70B50646082188B000240846FFF7D2
:1037F000BAFD00210D20FFF78BFE80210E20FFF780
:10380000B2FD93208DF8040020208DF8050006A855
:1038100001AB0090022219460C20FFF7B1FD050014
:103820000DD1002101A8425C7254425C491C5440F5
:10383000C9B20429F7D3405CA04200D0FE25802104
:103840000E20FFF759FE08B0284670BD30B50C4673
:103850000546082187B00846FFF785FD07210D20A2
:10386000FFF756FE03211420FFF746FE06A801AB22
:1038700000908DF80450012219460C20FFF780FDBE
:10388000002809D1BDF81810102905D19DF80410A1
:1038900021709DF80510617007B030BD70B5012230
:1038A000204D140221462846FEF725FC0220FEF793
:1038B0001BFB002221462846FEF71DFC0220FEF7D6
:1038C00013FB012221462846FEF715FC0220FEF7D5
:1038D0000BFB0F210120FFF71BFE0220FEF704FB6C
:1038E0003D211120FFF714FE1E212D20FFF710FEB1
:1038F00000212C20FFF70CFE8D212A20FFF708FE67
:103900003E212B20FFF704FE40211520FFF700FE8B
:10391000FFF756FF0220FEF7E7FABDE87040FFF719
:1039200053BF00000008014001B582B00A2000909A
:103930000123044A02A90448FFF7A1F801480078CE
:103940000EBD0000000000203C0B002038B50B46E7
:10395000009204460022802100F008F8002804D0DC
:10396000606D40F020006065032038BD2DE9F8430C
:103970001E46914688460446089DFEF7C1FB401B43
:10398000351AFEF7BDFB074625480068C0F3CB306B
:10399000684338E0701C37D0FEF7B2FBC01BA8426A
:1039A00003D215B1009860B32CE02068416821F083
:1039B000E00141606068B0F5827F0BD1A068B0F58E
:1039C000004F02D0B0F5806F04D12068016821F06B
:1039D00040010160A06AB0F5005F09D1206801686C
:1039E00021F4005101602068016841F40051016038
:1039F000012084F85100002084F850000320BDE825
:103A0000F8830025401E00902068816838EA010094
:103A100004D000214945BDD10020F0E70121F9E79C
:103A200034060020FEF704F84F4CA069FCF7F2FCC6
:103A300082B24E48A169FFF77BFC4FF4FA75284625
:103A400001F0A8F8E069FCF7E5FC82B24748E169BB
:103A5000FFF76EFC284601F09DF8206AFCF7DAFCBF
:103A600082B24248216AFFF763FC284601F092F8CF
:103A7000606AFCF7CFFC82B23C48616AFFF758FCF1
:103A8000284601F087F8A06AFCF7C4FC82B23748E8
:103A9000A16AFFF74DFC40F6B83001F07BF8E06A10
:103AA000FCF7B8FC82B23148E16AFFF741FC2846D6
:103AB00001F070F8206BFCF7ADFC82B22B48216B53
:103AC000FFF736FC40F6AC5001F064F8606BFCF791
:103AD000A1FC82B22548616BFFF72AFC284601F061
:103AE00059F8A06BFCF796FC82B22048A16BFFF757
:103AF0001FFC284601F04EF8E06BFCF78BFC82B20D
:103B00001A48E16BFFF714FC642001F043F804F15C
:103B10007500FCF77FFC82B204F175011348FFF7D2
:103B200007FC642001F036F8601CFCF773FC82B2DD
:103B3000611C0E48FFF7FCFB642001F02BF801220A
:103B4000A11C0A48FFF786FB0122E11C0848FFF789
:103B500081FBFFF7A1FCFFF7A1FE002001F0AEFB07
:103B6000012001F017F8FBE7AC050020940B0020C2
:103B7000DC0B0020094E0A4D4FF48074C82001F080
:103B800009F8306C38B10128F8D1002221462846C6
:103B9000FEF7B1FAF2E70122F8E70000AC050020D9
:103BA000000C01400A4C4FF480764FF4C875012296
:103BB00031462046FEF79FFA284600F0EBFF002230
:103BC00031462046FEF797FA284600F0E3FFEEE77D
:103BD000000C0140BAB0DFF8A092A84CEA460026DB
:103BE0001422A74929A8FCF734FC4FF000083396AB
:103BF0004546142119A83496FCF75DFC0027394688
:103C000036A801F035FA002860D11EA8FCF702FCA6
:103C100001461EA8FCF74FFC9DF8D82099A119A8D1
:103C2000FCF750FB19A8FCF7F5FB024619A91EA8E2
:103C3000FCF7CCFB19A8FCF7EDFB014619A8FCF733
:103C40003AFC9DF8D9208FA119A8FCF73BFB19A8D5
:103C5000FCF7E0FB024619A91EA8FCF7B7FB19A860
:103C6000FCF7D8FB014619A8FCF725FC9DF8DA20E3
:103C700084A119A8FCF726FB19A8FCF7CBFB024688
:103C800019A91EA8FCF7A2FB19A8FCF7C3FB014663
:103C900019A8FCF710FC9DF8DB207AA119A8FCF705
:103CA00011FB19A8FCF7B6FB024619A91EA8FCF7E0
:103CB0008DFB1EA8FCF7AEFB074619A8FCF7AAFB74
:103CC000014619A8FCF7F7FB369637964FEA09002C
:103CD00010F8081008F101082B29F9D14FF0300C29
:103CE0005146226908E000BF10F80830202B7DD033
:103CF0004B556D1C08F101089045F5DB684600F056
:103D0000BBFB01F0DDFD80466846FCF783FB82B219
:103D100069465D48FFF70CFBC82000F03BFFEA193D
:103D200058A133A8521DFCF7CDFA33A8FCF772FB5B
:103D3000024633A929A8FCF749FB29A8FCF76AFB2E
:103D400082B229A95048FFF7F3FAC82000F022FFF9
:103D50004A48001DFCF75EFB484982B2091D4A48EB
:103D6000FFF7E6FAC82000F015FF01224349684634
:103D7000FCF72CFB3A461EA96846FCF727FB3F4997
:103D80000122491C6846FCF721FB3C487030FCF7D7
:103D900041FB3A4982B270313B48FFF7C9FAC8206B
:103DA00000F0F8FE6846FCF735FB82B269463648FB
:103DB000FFF7BEFAC82000F0EDFE64216846FCF76C
:103DC0007AFB14211EA8FCF776FB14212A48FCF785
:103DD00072FB3396349614222CA12EA82661FCF790
:103DE00038FB274A26AB143207CA00E041E083E8DB
:103DF00007004046616D01F0A5FE01F065FF024637
:103E0000A06520A138A8FCF75DFA38A8FCF702FBF2
:103E1000024638A926A8FCF7D9FA022220A1214897
:103E2000FCF7D4FA2EA8FCF7F5FA02462EA91D4895
:103E3000FCF7CCFA03221CA11A48FCF7C7FA26A803
:103E4000FCF7E8FA024626A91648FCF7BFFA15481F
:103E5000FCF7E0FA82B213490B48FFF769FA6420D5
:103E600000F098FE0F4800F061FBA06E01F0B2FA7E
:103E7000B6E601F805C03CE798060020AC05002036
:103E8000245F000825640000940B00204E414D453E
:103E90003A436F6E73756D61626C6573000000006C
:103EA0000A0A00002C0800200A0A0A00DFF840B1C4
:103EB000A0B00024254626462746A146A046A24695
:103EC00014211AA8FCF7F7FA34216846FCF7F3FA34
:103ED00034210DA8FCF7EFFADBF8140045A11428F3
:103EE00045485BDDFCF784FA0028E2D04248015DDA
:103EF000641C2429FBD1815D761C242900D17F1C00
:103F0000022FF8D1415D6D1C2D29FBD16A46711E2F
:103F100005E0075D02F8097009F10109641C8C4293
:103F2000F7DB0DAA6D1E05E0835D02F8083008F18D
:103F30000108761CAE42F7DB022230A13048FCF7C4
:103F400045FA4A4669462E48FCF740FA03222DA15D
:103F50002B48FCF73BFA42460DA92948FCF736FAF4
:103F60002748FCF757FA82B225492748FFF7E0F9BE
:103F7000642000F00FFE224800F0D8FA80211E488D
:103F8000FCF799FA64211E48FCF795FA0021CBF85A
:103F90001410DBF8640001F01DFA8AE7FCF728FA38
:103FA00098B11548015D641C2429FBD1415D6D1C4D
:103FB0002D29FBD11AAA6D1E05E0035D02F80A3017
:103FC0000AF1010A641CAC42F7DB10A11AA8FCF745
:103FD0000FFA18B10121CBF840106AE70DA11AA819
:103FE000FCF706FA0028D8D00020CBF8400060E7A4
:103FF000AC05002049504400AC0600200A0A00002D
:104000002C0800200A0A0A00940B00204C45444F5B
:104010004E0000004C45444F4600000010B55020B3
:1040200080F31188BFF34F8FBFF36F8F01F012FB46
:1040300018B104494FF080500860002080F31188C7
:1040400010BD000004ED00E030B58FB028216846B7
:10405000FCF731FA14210AA8FCF72DFA0121080413
:10406000CDE900100024029402250491CDE9075007
:104070004FF4E01009906846FEF708FA08B172B6EE
:10408000FEE70F20CDE90A054FF48060CDE90C4032
:1040900002210AA80E94FEF7FDF8002801D072B69E
:1040A000FEE70FB030BD70470148FEF73CBE000090
:1040B000240C0020F0B50268164B174C174D4FF03A
:1040C0008047984205D0B84203D0A04201D0A84210
:1040D00003D122F070064A683243984205D0B842B4
:1040E00003D0A04201D0A84203D122F44074CA6890
:1040F00022434C6922F08002224302608A68C26235
:104100000A688262984201D1096901630121416113
:10411000F0BD0000002C01400004004000080040F9
:1041200010B5406A0021C185C184FEF7BDFE10BDF7
:1041300001680C3151E8002F22F4907241E800230D
:10414000002BF5D10168143151E8002F22F0010253
:1041500041E80023002BF5D1016B012909D1016849
:104160000C3151E8002F22F0100241E80023002B0F
:10417000F5D1202180F8421000210163704708B575
:1041800090F84210222901D0022008BD82684FF425
:1041900080539A4201D1016921B1816A9A421BD0B0
:1041A0004AB10AE00268816A5268C2F308020A80D2
:1041B000816A891C08E0026972B10268526802F0E3
:1041C0007F020A70816A491C8162C18D491E0904FF
:1041D000090CC18503D01BE002685268F1E7016851
:1041E000CA6822F02002CA600168CA6822F480729C
:1041F000CA6001684A6922F001024A61202180F800
:10420000421000214163026B012A03D0FFF730F80E
:10421000002008BD016301680C3151E8002F22F035
:10422000100241E80023002BF5D101680A68D2068C
:1042300002D50A6849680091818DFEF734FEE7E7F0
:1042400070B5044600680169E26821F440511143E9
:1042500001612169A0680843616908432168CA684F
:1042600041F20C639A430243CA6020684169A26923
:1042700021F44071114341611E492068884202D1F6
:10428000FEF7CEF801E0FEF7BBF800EBC00101EB52
:104290000012606864218000B2FBF0F3B3FBF1F31D
:1042A0006FF018067343B2FBF0F5B2FBF0F605EBC6
:1042B0008305322303EB0515B5FBF1F5B6FBF1F6EB
:1042C00005F0F00505EB0615B2FBF0F6B2FBF0F0D9
:1042D000B0FBF1F06FF01802504306EB800003EBE7
:1042E0000010B0FBF1F0216800F00F002844886056
:1042F00070BD00000038014081628285C2850021C6
:104300004164222180F84210016921B10168CA6824
:1043100042F48072CA6001684A6942F001024A614F
:104320000068C16841F02001C160002070470000B2
:104330000148FEF7BBBD0000940B00200148FEF7CA
:10434000B5BD0000DC0B0020FEE70907090E0028C0
:1043500004DB00F1E02080F80014704700F00F004B
:1043600000F1E02080F8141D704740F20132002077
:104370004FF0E04101F043BD024A0020110701F077
:104380003EBD000001FDFFFF10B50446D1E900016C
:1043900000F002F8206010BDF8B504460D466A46EC
:1043A00000F056FB00987E30009000281EDC0022B2
:1043B00013462046294601F0C9FA17D0002140F6DD
:1043C00008004FF0000006462046294601F078FA22
:1043D000044640F6080006EA00014FF0000034F001
:1043E000004004BF0220FCF795F829E00098FF2860
:1043F00028DB002108464FF0000000F440060022B0
:1044000013462046294601F067FB8CBF0025012595
:104410000220FCF77FF84FF0FF4446B1002D0CBF9F
:104420004FF400004FF48000B04218BF084C042144
:1044300008464FF00000002D04BF84F00040F8BD96
:104440002046F8BD20462946BDE8F84001F038BABC
:10445000FFFF7F7F10B504460A46D4E900031946E2
:1044600000F03AFBC4E9000110BD30380A2801D23F
:10447000012070470020704730B583B00446FCF738
:1044800044F805460020CDE9000002462146684672
:10449000FCF7DCF82846FCF73DF8DDE9000103B045
:1044A00030BD000020490728097822D0802900DB90
:1044B0008039062820D0402900DB403905281ED04D
:1044C000202900DB203904281CD0102900DB1039FA
:1044D00003281AD0082900DB0839022818D004293B
:1044E00000DB091F012816D0022900DB891EA8B1B4
:1044F00018E0802914DA15E0402911DA12E02029A9
:104500000EDA0FE010290BDA0CE0082908DA09E0CE
:10451000042905DA06E0022902DA03E0012901DBB9
:104520000120704700207047A000002010B504460D
:10453000FDF73EFBFDF729FB00F06EFA204600F088
:1045400073FA00F067FABDE81040FDF741BC0000C7
:104550002DE9F04791460C4605460A2A7DD04420B5
:10456000FDF7CCFB2001C0F3C7073846FDF7E0FBA1
:104570000F2000EB0410C0F3C700FDF7D9FB452066
:10458000FDF7BCFB05EB45008400E0B2FDF7D0FB76
:10459000C4F307263046FDF7CBFB05EB45010A20A7
:1045A00000EB8105E8B2FDF7C3FBC5F30720FDF77B
:1045B000BFFB4E20FDF7A2FB3846FDF7B9FB4F20AD
:1045C000FDF79CFBE0B2FDF7B3FB3046FDF7B0FB17
:1045D0002420FDF793FBFF20FDF7AAFBFF20FDF74A
:1045E000A7FB0024DFF81884A24600BFB9F1410FF1
:1045F0007DD0B9F1420F7BD0B9F1430F79D0B9F139
:10460000440F77D0B9F1450F75D0B9F1460F73D08B
:10461000B9F1470F71D0B9F1480F6FD0B9F1490F17
:104620006DD0B9F14A0F6BD0B9F14B0F69D0B9F128
:104630004C0F67D0B9F14D0F65D0B9F14E0F7CD05A
:10464000B9F14F0F7AD0B9F1500F78D0B9F1510FBD
:1046500076D0B9F1520F74D000E0B7E0B9F1530F42
:1046600070D0B9F1540F6ED0B9F1550F6CD0B9F1CB
:10467000560F6AD0B9F1570F68D0B9F1580F66D00C
:10468000B9F1590F7DD0B9F15A0F7BD0B9F1610F53
:1046900079D0B9F1620F77D0B9F1630F75D0B9F164
:1046A000640F73D0B9F1650F71D0B9F1660F6FD097
:1046B000B9F1670F6DD0B9F1680F6BD0B9F1690F1F
:1046C00069D0B9F16A0F67D0B9F16B0F65D0B9F154
:1046D0006C0F76D0B9F16D0F74D0B9F16E0F72D046
:1046E000B9F16F0F70D0B9F1700F6ED00CE071E0BE
:1046F00073E075E080E082E084E089E08BE08DE0AB
:104700008FE091E093E095E0B9F1710F6FD0B9F1CE
:10471000720F6DD0B9F1730F6BD0B9F1740F69D00E
:10472000B9F1750F67D0B9F1760F6ED0B9F1770F87
:104730006CD0B9F1780F6AD00AE084E085E087E0B8
:1047400089E08DE08FE091E093E095E097E09EE0D6
:10475000B9F1790F71D0B9F17A0F6FD0B9F1300F8B
:104760006DD0B9F1310F6BD0B9F1320F69D0B9F119
:10477000330F67D0B9F1340F70D0B9F1350F6ED067
:104780000CE087E089E08CE08DE08FE091E093E041
:1047900095E097E099E09BE09DE09FE0B9F1360F4E
:1047A00070D0B9F1370F6ED0B9F1380F6CD0B9F1C4
:1047B000390F6AD0B9F13A0F68D0B9F1200F6FD034
:1047C000E1E08EE090E092E093E095E0BDE8F04714
:1047D00000F0D6B98A480C30D1E089482030CEE0CC
:1047E0008748343010F8241088F80010CBE086E0B9
:1047F00088E08AE08CE08EE081484830BFE0804865
:104800005C30BCE07E487030B9E087E089E08BE046
:104810007B488430B3E07A489830B0E07848AC30D8
:10482000ADE07748C030AAE07548D430A7E07448BE
:10483000E830A4E07248FC30A1E078E07AE07CE067
:104840007DE07FE081E06F4899E06E48143096E0AB
:104850006C48283093E06B483C3090E078E07AE098
:10486000684850308BE06748643088E065487830AD
:1048700085E064488C3082E06248A0307FE0614887
:10488000B4307CE06AE06CE06EE070E072E05D48BD
:10489000C83074E05B48DC3071E05A48F0306EE0BC
:1048A0006BE059486BE05848143068E056482830AF
:1048B00065E055483C3062E0534850305FE0524874
:1048C00064305CE05048783059E04F488C3056E016
:1048D0004D48A03053E04C48B43050E04A48C8300E
:1048E0004DE04948DC304AE04748F03047E047486F
:1048F00045E04648143042E0444828303FE0434811
:104900003C303CE04148503039E04048643036E0CB
:104910003E48783033E03D488C3030E03B48A030B2
:104920002DE03A48B4302AE03848C83027E037480C
:10493000DC3024E03548F03021E035481FE03448D1
:1049400014301CE03248283019E031483C3016E081
:104950002F48503013E02E48643010E02C48783057
:104960000DE02B488C300AE02948A03007E02848A9
:10497000B43004E02648C83001E02548DC3010F8A7
:10498000240088F8000001265FF00105012288F864
:1049900001A0AF0007EB4203581CFFF783FD01287D
:1049A0000AD17AB15FF0100098F801C000EB400125
:1049B0000CEB810188F801101846FFF773FD012800
:1049C00002D00AE00120EFE7BAB1102098F80130D8
:1049D00000EB4001194488F80110521EDAD598F80E
:1049E0000100FDF7A5F96D1ED0D5761ECCD5641C4F
:1049F000052CFFF6FBADBDE8F0870120E6E70000DF
:104A0000A0000020B0010020B4020020B803002064
:104A1000BC040020FDF7E8B902480721416081602D
:104A200070470000A000002070B504460BE000BFF6
:104A300000F03AF8054600F03FF801462278284693
:104A4000FFF786FD641C20780028F1D170BD0000BE
:104A500010B5144600222260114A21F0004393420F
:104A6000A8BF10BD53EA000208BF10BDB3F5801FF8
:104A7000A8BF226807DA362201F0C1F96FF03502CB
:104A800021F000432260DFF81CC06FF31E510CEBD5
:104A900023531A4441F0FF5141F00051226010BDF0
:104AA0000000F07F02FCFFFF02494868421C4A6098
:104AB00070470000A000002006490722D1E901301C
:104AC000132B02DD431EC1E901238B68002B00DAA2
:104AD0008A607047A00000202DE9F04106460C4690
:104AE00040F2FF75174635EA14502BD000221346CA
:104AF000304600F02BFF25D03A463046214601F0E3
:104B00007EF906460C4635EA145010D000221346B2
:104B1000304600F01BFF15D10220FBF7FBFCFFF72E
:104B20002BFC0A46214662F31E01BDE8F0810220FB
:104B3000FBF7F0FCFFF719FC0A46214662F31E0161
:104B4000BDE8F08130462146BDE8F081FDF7E6FA88
:104B5000FFF77AFAFEF740FDFEF7B0FDFEF7D4FD51
:104B6000FEF7F4FDFEF70EFEFEF7F0FC00F019F87C
:104B7000FEE701460020842900D0C81C70470000D1
:104B80000348072141608168491E81607047000029
:104B9000A000002010B500B9012000F069FB002042
:104BA00010BD10B500F0E0FB002010BD7FB50D4634
:104BB00004464169B0F9080081B1A16971B1FFF7FC
:104BC000D8FFD4E905128DE80700D4E900102B4680
:104BD000226900F014FD039004B070BDFFF7C9FF17
:104BE00003A9CDE90001208A2B4682B2D4E9001046
:104BF00000F0D8FC012801D00020EDE70398EBE796
:104C00002DE9F041184C0F46054666692068001DE5
:104C100000F040FA38B9206890F82C100120884044
:104C2000A1698143A161681C07D137B12168BDE842
:104C3000F0410E48091D00F071BA20683544B542B4
:104C40004560216805D2A068BDE8F041091D00F06B
:104C50004DBA6068091D00F049FA206B854200D208
:104C60002563BDE8F081000038060020480D0020D3
:104C70002DE9F041054600F05DFA2E4C2069401CFC
:104C8000206120682C4F10B1E06940B32DE0256011
:104C90002069012829D1002606EB860007EB800059
:104CA00000F016FA761C072EF6D323488C3000F05D
:104CB0000FFA2148A03000F00BFA1F48B43000F082
:104CC00007FA1D48C83000F003FA1B48DC3000F03A
:104CD000FFF919488C3060601430A06005E020684E
:104CE000E96AC06A884200D82560E06A401CE06238
:104CF000E96A0120A26988401043A06101EB8100AC
:104D000007EB8000291D00F009FA00F033FAE06992
:104D100000280CD02068E96AC06A884207D2074997
:104D20004FF080500860BFF34F8FBFF36F8FBDE827
:104D3000F0810000380600206C0C002004ED00E03B
:104D400010B5044690F8510058B101280CD0022843
:104D50000FD0502080F31188BFF34F8FBFF36F8FB8
:104D6000FEE7206B00F01AFA2046BDE8104000F084
:104D700015BA10BD0F4843F63041420705D0C01D9B
:104D80000C4A20F00700821A891A0B4A00230144BA
:104D9000C2E900030839103A21F0070111604B60A5
:104DA0000B600B1AC0E9001393604FF00040536092
:104DB000D06070475C0D002084060020144E154C16
:104DC000A6F1C8074FF08058DFF84C9012E000BF02
:104DD00000F0B0F9F068C568281D00F05BF92069A3
:104DE000401E2061E068401EE06000F0C3F92846E4
:104DF000FFF7A6FFE0680028EAD138680128F9D952
:104E0000C9F80080BFF34F8FBFF36F8FF2E7000048
:104E1000340D00203806002004ED00E02DE9F047B5
:104E20009A46DDE9098481466FF00303206B03EBAA
:104E300082021044089D20F00706700707D050201A
:104E400080F31188BFF34F8FBFF36F8FFEE72318F6
:104E50000A5C83F834200A5C12B1401C1028F6D397
:104E6000002784F84370072D00D30625E562C4E9C6
:104E70001157201D00F037F904F1180000F033F944
:104E80002461C5F107006462A061E76484F8507092
:104E900052464946304600F0D9F82060B8F1000F7C
:104EA00001D0C8F80040BDE8F087000030B51149D6
:104EB00000E011460A688242FBD34B685C188442CA
:104EC00003D1406818444860084643681C1894425F
:104ED00009D1084C103C2468A24209D052681A44F7
:104EE00042600A6812680260814200D0086030BDEA
:104EF0000460F9E78406002006484168096829B182
:104F00004168C968C9684968016370474FF0FF315B
:104F1000FAE700003806002008484068401C4FF0BF
:104F2000500080F3118804D0BFF34F8FBFF36F8F11
:104F3000FEE7BFF34F8FBFF36F8FFEE78C060020B5
:104F4000002150B10A4B42699A420FD1806AA3F105
:104F5000280290420AD040B108E0502080F3118826
:104F6000BFF34F8FBFF36F8FFEE7012108467047F5
:104F7000480D00202DE9F0410546002700F088FA91
:104F8000314E306808B9FFF7F5FEF06805424BD1A5
:104F9000C5B3083568070ED005F00700C0F108005A
:104FA0000544680707D0502080F31188BFF34F8F66
:104FB000BFF36F8FFEE72DB37068854234D8224867
:104FC000103001460C6801E020460C466168A94299
:104FD00002D221680029F7D131688C4224D00768B9
:104FE0002168016060680837411B10290FD96019DA
:104FF000420708D0502080F31188BFF34F8FBFF3D2
:105000006F8FFEE710E041606560FFF74FFF61685A
:105010007068401A7060B268904200D2B060F06868
:1050200001430020C4E9000100F078FB780707D0B5
:10503000502080F31188BFF34F8FBFF36F8FFEE7CF
:105040003846BDE8F08100007406002010B5031F4B
:105050004FF080741C601B1F21F001011960191FA3
:10506000024B0B60143940380A6010BD194F00081C
:105070007CB50C46054669465220FEF7E7FB18B999
:105080002846FEF7AEFB08B101207CBD04B1A04765
:1050900000207CBDD0E9013201699A60D0E901238A
:1050A0005A604A68824201D182684A6000220261E5
:1050B0000868401E0860086870470000034B0360E2
:1050C00003F15400086080201060704790080020B1
:1050D00000F108014FF0FF32C0E90112C160016127
:1050E00000210160704700210161704730B50B68F5
:1050F0005A1C02D000F1080202E0026904E02246D4
:10510000546825689D42FAD953684B6099608A605B
:10511000516008610168491C016030BD42684A6005
:1051200093688B6093685960916008610168491CBD
:1051300001607047502080F31188BFF34F8FBFF399
:105140006F8F0A494868401C486001280CD1084804
:10515000006810F0FF0F07D0502080F31188BFF3D4
:105160004F8FBFF36F8FFEE7704700008C06002063
:1051700004ED00E00849486828B1401E486001D1AC
:1051800080F311887047502080F31188BFF34F8F50
:10519000BFF36F8FFEE700008C06002070B500287B
:1051A00027D0144DA0F108046168E868014207D1D6
:1051B000502080F31188BFF34F8FBFF36F8FFEE74E
:1051C00022683AB1502080F31188BFF34F8FBFF3AC
:1051D0006F8FFEE78143616000F05AF9606869688B
:1051E000084468602046FFF761FEBDE8704000F0AB
:1051F00095BA70BD740600204FF0E02000210161D7
:10520000816105494FF47A720968B1FBF2F1491ED8
:1052100041610721016170473406002010B5FBF79A
:105220002DF8114910280ED300F1E02090F8F0037A
:105230000A78904207D2502080F31188BFF34F8F35
:10524000BFF36F8FFEE709480068896800F4E060EB
:10525000884207D9502080F31188BFF34F8FBFF3E6
:105260006F8FFEE710BD00008C0600200CED00E003
:1052700010B5020014D00F48806B38B1502080F375
:105280001188BFF34F8FBFF36F8FFEE700F000F977
:1052900000211046FFF7B4FC00F040FA002807D1C7
:1052A00005494FF080500860BFF34F8FBFF36F8FF9
:1052B00010BD00003806002004ED00E070B5054682
:1052C000FFF738FF254C05B92568281DFFF7E2FEDA
:1052D00058B9E86A224A00EB800152F8211021B93E
:1052E00001218140A0698843A061A86A18B105F135
:1052F0001800FFF7CFFEE06A401CE062206885429C
:1053000008D11748291DC830FFF708FFE068401C86
:10531000E06007E02069401E20612846FFF710FD8D
:10532000FFF7EAFDFFF726FFE069002814D02068A8
:10533000854211D1A06B38B1502080F31188BFF3A2
:105340004F8FBFF36F8FFEE706494FF08050086024
:10535000BFF34F8FBFF36F8F70BD00003806002082
:105360006C0C002004ED00E010B586B0002403941E
:1053700005AA04A903A80494FFF7A0FEDDE9030130
:105380000094CDE9011000230EA11048059A00F009
:1053900036F90F490028486311D0502080F3118856
:1053A000BFF34F8FBFF36F8F4FF0FF3008630120C3
:1053B000C8614C6106B0BDE8104000F09FB806B06F
:1053C00010BD000049444C4500000000BD4D0008E0
:1053D0003806002070B50446FFF7ACFE294D04B92D
:1053E0002C68201DFFF756FE58B9E06A264A00EBEC
:1053F000800152F8211021B901218140A869884318
:10540000A861A06A18B104F11800FFF743FE1E4816
:10541000211DDC30FFF782FE94F8500000260128A1
:1054200001D184F85060FFF7A5FEE86928B1FFF7C5
:1054300081FEFFF761FDFFF79DFE2868844213D1CE
:10544000E86990B1A86B38B1502080F31188BFF3A0
:105450004F8FBFF36F8FFEE70C494FF0805008600D
:10546000BFF34F8FBFF36F8F70BD0748DC3000680C
:105470002969884201D12E6070BDBDE8704000F0FE
:105480000FB80000380600206C0C002004ED00E08E
:105490000248816B491C8163704700003806002078
:1054A0001448816B11B101214162704700214162B2
:1054B0008169B1FA81F1C1F11F0101EB81020E494D
:1054C00051F822306BB101EB820101F108034A6807
:1054D00052684A609A4201D152684A60D1680160BC
:1054E0007047502080F31188BFF34F8FBFF36F8F49
:1054F000FEE70000380600206C0C00201CB5264991
:1055000008780190FF20087008788DF800009DF859
:1055100000009DF8002000F0F000904207D05020DD
:1055200080F31188BFF34F8FBFF36F8FFEE79DF8B5
:1055300000001A4B00F0500018700720986005E03A
:105540009DF8002052008DF80020401E9DF800209C
:105550001206F5D49860032807D0502080F31188F4
:10556000BFF34F8FBFF36F8FFEE74FF4407098602B
:10557000019808700A48016841F4700101600168EF
:1055800041F070410160FFF737FE00205860FAF7E4
:105590003FFE00201CBD000000E400E08C0600205F
:1055A00020ED00E02DE9FF5F8346DDE90E87994697
:1055B00016468A469000FFF7DDFC05001CD05420FB
:1055C000FFF7D8FC040014D00020256384F85100B4
:1055D000CDE90240CDE900874B4632465146584658
:1055E000FFF71CFC2046FFF743FB012004B0BDE899
:1055F000F09F2846FFF7D2FD4FF0FF30F6E7F0B5F9
:1056000085B0DDE90B640A9DA6B1DCB15427009793
:105610002663022684F85160002604AFCDE90246D5
:10562000CDE90057FFF7FAFB2046FFF721FB04986E
:1056300005B0F0BD502080F31188BFF34F8FBFF34A
:105640006F8FFEE7502080F31188BFF34F8FBFF3B9
:105650006F8FFEE72DE9F0412E4C0027A06B40B183
:10566000206A401C2062606A00B101273846BDE80C
:10567000F0816669761C666113D16068006838B194
:10568000502080F31188BFF34F8FBFF36F8FFEE779
:105690006068A1686160A060A06A401CA062FFF71A
:1056A0002BFC206BDFF87080864209D360680068AD
:1056B00080B16068C068C568686886420DD22063A2
:1056C0002068C06A00EB800158F821000128CAD97F
:1056D0000127C8E74FF0FF30F1E7281DFFF7DAFC9C
:1056E000A86A18B105F11800FFF7D4FCE86A012197
:1056F000A26981401143A16100EB800108EB8100A8
:10570000291DFFF70BFDE86A2168C96A8842CDD3DD
:105710000127CBE7380600206C0C00202DE9F0476C
:105720002C4D00242746A86B38B1FFF703FDA86B6A
:10573000401EA863A86B40B146E0502080F311885A
:10574000BFF34F8FBFF36F8FFEE72969224E012011
:10575000D1B3A6F1B40980463068E8B1F068C468F6
:1057600004F11800FFF796FC201DFFF793FCE06A98
:10577000AA6908FA00F11143A96100EB800109EB65
:105780008100211DFFF7CAFCE06A2968C96A8842C6
:10579000E2D3C5F82480DFE70CB1FFF7ADFB2C6A3C
:1057A00044B14646FFF756FF00B16E62641EF9D160
:1057B00000202862686A38B1084901273807086064
:1057C000BFF34F8FBFF36F8FFFF7D4FC3846BDE8B0
:1057D000F087000038060020200D002004ED00E0D6
:1057E0002DE9F0410027040015D0FFF717FD5020E8
:1057F000EFF3118580F31188BFF34F8FBFF36F8FE5
:105800002046FFF79DFB30B3154EB06B58B104F145
:10581000180114481DE0502080F31188BFF34F8F0A
:10582000BFF36F8FFEE7E06A3168C96A884200D330
:105830000127201DFFF72EFCE16A0120B269884094
:105840001043B06101EB81000649B43901EB8000DF
:10585000211DFFF763FC85F311883846BDE8F08110
:1058600038060020200D002010B500290AD0087845
:10587000002807D005487844FBF702FA002801D039
:10588000002010BD0248784410BD0000C20800008E
:10589000BA08000010B500290AD00878002807D0FF
:1058A00005487844FBF7ECF9002801D0002010BD32
:1058B0000248784410BD0000B2080000AA080000A9
:1058C00021F00042A2F16052B2F5801F01F00043C6
:1058D00028BFD2F17F6C0BD95FEA001C43EAC202F9
:1058E00042EB507018BF704728BF20F0010070478E
:1058F000B2F5801FBCBF184670474FEA410C1CF53B
:10590000001F02D2084600F040BA70B500F096F8C9
:1059100000000089FFF7F6BF4FF00040A0F58000BF
:105920007047000002494FF0000000F036BA00BF97
:105930000000F87F491058BFC1F140415B1058BFCB
:10594000C3F140438B42EFF30080704751EA030CF0
:1059500017D41CF5801F58BFBCF5801F00F10680CE
:10596000994218BF704708BF9042704707D711F59A
:10597000801F58BF13F5801F19D499427047894280
:1059800070471CF5801F08D5BCF5801FF7D58B42EA
:1059900018BF704708BF824270474FF4001C1CEBD1
:1059A000410F38BF1CEB430F01D28B42704770B5DB
:1059B00000F044F8922449004FF000514FF080531A
:1059C000FFF7B8BF51EA030C17D41CF5801F58BF6E
:1059D000BCF5801F00F10680994218BF704708BFD0
:1059E0009042704707D711F5801F58BF13F5801FED
:1059F00019D499427047894270471CF5801F08D519
:105A0000BCF5801FF7D58B4218BF704708BF824294
:105A100070474FF4001C1CEB410F38BF1CEB430FC9
:105A200001D28B42704770B500F008F8922449000B
:105A30004FF000514FF08053FFF77CBF0EF1020E84
:105A40002EF0030E5EF8046B364205D4012A43EBB8
:105A5000030515F5001F12D8012841EB010C1CF5B8
:105A6000001F0CD80ED14FEAD17C15F5001F0CEBAE
:105A70004C0C0CF1020C08BF4CEBD37C04E04FF053
:105A8000080C01E04FEAD37C0CEB4C0526FA05F636
:105A900006F00706B6F1040C06D20EEB860CBDE844
:105AA00070404CF0010C6047DFE80CF0090B02027B
:105AB0004FF000414FF00000A1F5002170BD1946E4
:105AC0001046012851EB010418BFD4F5001484BF1F
:105AD000002001F0004170BD53EA010C17D41CF501
