:020000040800F2
:10000000504E002069020008EF230008A11F0008DD
:10001000ED2300084F0600089D2E00080000000098
:10002000000000000000000000000000D1010008F6
:10003000C50700080000000015020008712B000829
:10004000830200088302000883020008830200087C
:10005000830200088302000883020008830200086C
:10006000830200088302000883020008830200085C
:10007000830200088302000883020008830200084C
:10008000830200088302000883020008830200083C
:10009000830200088302000883020008830200082C
:1000A00083020008FD2B0008830200088302000879
:1000B000830200088302000883020008830200080C
:1000C00083020008830200088302000883020008FC
:1000D00083020008852E0008912E00088302000884
:1000E00083020008830200088302000800F002F87F
:1000F00000F05FF80AA090E8000C82448344AAF163
:100100000107DA4501D100F054F8AFF2090EBAE860
:100110000F0013F0010F18BFFB1A43F0010318473B
:1001200068420000884200000A444FF0000C10F8BA
:10013000013B13F0070408BF10F8014B1D1108BF65
:1001400010F8015B641E05D010F8016B641E01F805
:10015000016BF9D113F0080F1EBF10F8014BAD1C55
:100160000C1B09D16D1E58BF01F801CBFAD505E073
:1001700014F8016B01F8016B6D1EF9D59142D6D3CD
:10018000704700000023002400250026103A28BFF5
:1001900078C1FBD8520728BF30C148BF0B607047F9
:1001A000642900F0C980002070471FB51FBD10B53D
:1001B00010BD00F012FA1146FFF7F7FF03F06EF9D9
:1001C00000F030FA03B4FFF7F2FF03BC00F038FA96
:1001D000224B19680868B0E8F00F80F30988BFF374
:1001E0006F8F4FF0000080F311884EF00D0E7047B6
:1001F0000000000006480068006880F3088862B6C6
:1002000061B6BFF34F8FBFF36F8F00DF00BF00BF3A
:1002100008ED00E0EFF30980BFF36F8F0F4B1A6812
:1002200020E9F00F106008B54FF0500080F31188FE
:10023000BFF34F8FBFF36F8F03F0DAFD4FF0000075
:1002400080F31188BDE8084019680868B0E8F00F2D
:1002500080F30988BFF36F8F704700BF300600201E
:10026000EFF30580704700000948804709480047C0
:10027000FEE7FEE7FEE7FEE7FEE7FEE7FEE7FEE756
:10028000FEE7FEE704480549054A064B70470000B3
:10029000FB2B0008ED00000850480020504E0020C5
:1002A000504A0020504A00200FB41CB5074B06AA44
:1002B0007B4469460090059800F077F90020694674
:1002C00000F086F91CBC5DF814FB00001D03000063
:1002D0002DE9F0410E460446002020622046E168E8
:1002E000884730B3252805D0D4E901219047206AFA
:1002F000401CF2E7E168204600278847050018D037
:10030000A5F14100192802D820354FF40067324684
:10031000294620462760FFF743FF40B1012804D05B
:10032000F61D26F007060836D8E7361DD6E728461C
:10033000DAE7206ABDE8F0812DE9F04106460024A5
:1003400010687529314616A510D0AFF3008000283B
:1003500002DA404213A507E031688A0701D512A5E9
:1003600002E0490704D511A5012401E0AFF30080A4
:1003700000210A2206F1240709E0B0FBF2FCB0FBE1
:10038000F2F302FB1C00303078541846491C002858
:10039000F3D123462A463046BDE8F04100F0A7B825
:1003A000000000002D0000002B00000020000000D5
:1003B00010B5431E13F8014F002CFBD105E011F8D6
:1003C000014B002C03F8014B03D0521EF7D2002141
:1003D000197010BD30B505460B462A4613F8014B7F
:1003E00012F8010B08B1A042F8D01CB1002802D0CD
:1003F0006D1CF1E7284630BD10B5431C02E010F833
:10040000011B71B18107FAD14FF0013202C88C1A79
:100410008C4314EAC211F9D0C01A0A0603D0C01ED8
:1004200010BDC01A10BD0A0401D0801E10BD090203
:10043000FCD0401E10BD10B5203AC0F00B80B1E8D2
:100440001850203AA0E81850B1E81850A0E8185009
:10045000BFF4F5AF5FEA027C24BFB1E81850A0E812
:10046000185044BF18C918C0BDE810405FEA827C2C
:1004700024BF51F8043B40F8043B08BF7047D20743
:1004800028BF31F8023B48BF11F8012B28BF20F8E4
:10049000023B48BF00F8012B70474FF0000200B547
:1004A000134694469646203922BFA0E80C50A0E897
:1004B0000C50B1F12001BFF4F7AF090728BFA0E845
:1004C0000C5048BF0CC05DF804EB890028BF40F811
:1004D000042B08BF704748BF20F8022B11F0804F53
:1004E00018BF00F8012B70477047704770472DE91F
:1004F000F0470D4699469246044600F124080168EB
:10050000880604D5E06921F01001216000E0012097
:10051000A84201DD471B00E00027A1697A1902EB20
:100520000900081AA0612078C00602D42046AFF363
:100530000080002608E0D4E901211AF8060090475F
:10054000206A401C761C20624E45F4DB2078C006F1
:100550000AD52046AFF3008006E0D4E9012130201F
:100560009047206A401C2062381EA7F10107F4DC86
:1005700007E0D4E9012118F805009047206A401CE3
:100580002062281EA5F10105F3DC2046AFF30080B0
:100590002078000602D50220BDE8F0870120FBE7A5
:1005A00001694A1C02610878704700B58FB0CDE937
:1005B00001310021059105497944CDE90310114627
:1005C0006846FFF785FE0FB000BD0000E5FFFFFFA6
:1005D0000A6802F8010B0A607047754600F02CF8B3
:1005E000AE4605006946534620F00700854618B020
:1005F00020B5FFF747FEBDE820404FF000064FF062
:1006000000074FF000084FF0000B21F00701AC4647
:10061000ACE8C009ACE8C009ACE8C009ACE8C00966
:100620008D46704710B50446AFF300802046BDE804
:100630001040FFF7C7BD000000487047EC4700209E
:1006400001491820ABBEFEE7260002007047FEE716
:1006500001B54FF47A7301226946024800F076FF33
:1006600008BD0000DC0A0020F0B585B0002500952B
:1006700001954FF400414F48029500F055FB0126CB
:100680004D4C002872D065644C4F0821384600F06C
:100690004BFB00286CD0A5641021384600F044FBC9
:1006A000002867D0E5642021384600F03DFB002893
:1006B00062D0256542A16846626CFFF7F5FD684689
:1006C000FFF79AFE0246694603A8FFF771FE6846E7
:1006D000FFF792FE01466846FFF7DFFE38A1684645
:1006E000A26CFFF7E1FD6846FFF786FE0246694609
:1006F00003A8FFF75DFE6846FFF77EFE01466846E9
:10070000FFF7CBFE2EA16846E26CFFF7CDFD6846F1
:10071000FFF772FE0246694603A8FFF749FE6846E6
:10072000FFF76AFE01466846FFF7B7FE24A1684658
:10073000226DFFF7B9FD6846FFF75EFE0246694687
:1007400003A8FFF735FE6846FFF756FE01466846E8
:10075000FFF7A3FE03A8FFF74FFE174C00216D34EF
:100760003022C0F105000BE000E001E066648BE799
:10077000A66491E7E66496E726659BE76254491C08
:100780008842FBDC03A8FFF737FE02460A4803A9AC
:100790006D30FFF70DFE6C2020706846FFF72CFED1
:1007A00001466846FFF779FE4FF4FA7000F0BAF997
:1007B00005B0F0BD00080140AC050020000C014070
:1007C00025640000704770B5242000F0B5F80024BF
:1007D0004FF49455FF2000F0C9F8641CA4B2AC4259
:1007E000F8D3BDE8704000F01DB9000010B500F06E
:1007F00085F8642002F076FE00F06AF8122000F01E
:100800009BF800F065F8012000F096F8272000F032
:10081000ADF8012000F0AAF8002000F0A7F81120A0
:1008200000F08AF8032000F0A1F8002140F227131D
:100830007F22084600F0C8F8212000F07DF8002053
:1008400000F094F8802000F091F80021084600F0B4
:10085000A7F800F03DF8BDE81040014800F013B8DB
:100860000100002070B50546322000F065F8002434
:10087000285D00F07BF8641CE4B2992CF8D3BDE845
:10088000704000F025B810B50446FFF7EBFF3F209D
:1008900000F052F814F8990F00F068F8032000F007
:1008A0004BF8607800F062F8042000F045F8A0787A
:1008B00000F05CF8E07800F059F8207900F056F884
:1008C0002C2000F039F86079BDE8104000F04EB8F7
:1008D00070B5094D4FF480642146284600F024FA93
:1008E00000284FF0320002D000F01CF9F4E7BDE818
:1008F000704000F017B90000000C014010B50D4C1D
:1009000001220421204600F014FA642000F00AF9C4
:1009100000220421204600F00CFA022000F002F927
:1009200001220421204600F004FABDE810406420B2
:1009300000F0F8B8000C014070B50B4C05460022E1
:100940000221204600F0F5F900220121204600F0A6
:10095000F0F92846FFF77CFE2046BDE870400122F2
:10096000114600F0E6B90000000C014070B50B4CD8
:10097000054601220221204600F0DBF90022012178
:10098000204600F0D6F92846FFF762FE2046BDE873
:1009900070400122114600F0CCB90000000C01406B
:1009A00070B505460C464E20FFF7C6FFE8B2FFF7CC
:1009B000DDFF4F20FFF7C0FFE0B2FFF7D7FF200AAF
:1009C000BDE87040FFF7D2BF2DE9F04107461C4655
:1009D00016460D464420FFF7AFFFC7F3C700FFF7E9
:1009E000C5FFC6F3C700FFF7C1FF4520FFF7A4FF0F
:1009F000E8B2FFF7BBFF280AFFF7B8FFE0B2FFF746
:100A0000B5FF200ABDE8F041FFF7B0BF10B51020D8
:100A1000FFF792FF0120FFF7A9FFBDE81040642017
:100A200000F080B810B52220FFF786FFC720FFF73F
:100A30009DFF2020FFF780FFBDE81040FFF748BF73
:100A400072B6FEE710B590F821100022022905D0F9
:100A50000421816380F82020012010BD01680B680B
:100A600023F00E030B6001680B6823F001030B6099
:100A700090F84030C46B012101FA03F3636080F801
:100A8000211080F82020104610BD000010B590F80D
:100A900021100024022903D00421816301243DE0B8
:100AA00001680A6822F00E020A6001680A6822F0F2
:100AB00001020A601A4A0168914201D1012121E034
:100AC000174A1432914201D110211BE0144A2832F6
:100AD000914201D1891515E0114A3C32914201D170
:100AE00089140FE00E4A5032914202D14FF4803106
:100AF00008E00B4A6432914202D14FF4801101E0C8
:100B00004FF08071064A083A5160012180F82110A7
:100B1000002180F82010416B01B18847204610BDAC
:100B20000800024070B5044600F008F90546601C54
:100B300002D004480078044400F000F9401BA042B1
:100B4000FAD370BD200600202DE9F84FDFF8B891E8
:100B50000024A9F1040B23460F2709F1040AABF185
:100B6000040EC9E00125A5402A40AA427DD1674E66
:100B7000D1F804C0ACEB0608B44532D014DCBCF1AB
:100B8000030F3AD009DCBCF1000F2AD0BCF1010FF1
:100B90001CD0BCF1020F31D11DE0BCF1110F17D0F8
:100BA000BCF1120F2AD119E0B8F5881F19D006DC64
:100BB000B8F5803F15D0B8F5801F1FD111E0B8F50A
:100BC000001F0ED0B8F5041F18D10AE0CB6815E05D
:100BD000CB681B1D12E0CB6808330FE0CB680C33E9
:100BE0000CE08B682BB1012B4FF0080303D045615B
:100BF00004E0042302E0056100E00023FF2A01D89D
:100C0000064601E000F104064FEA840501D9A5F18A
:100C10002005D6F8008007FA05FC28EA0C0803FA3C
:100C200005F548EA0508C6F800804D68ED0062D574
:100C3000374DAE6946F00106AE61AD6924F003069A
:100C400005F001050095334D06EB050CDCF8085066
:100C5000A607360F07FA06F825EA0805DFF8B88078
:100C6000404503D14FF0000817E044E0DFF8AC80C6
:100C7000404502D14FF001080FE0DFF8A480404565
:100C800002D14FF0020808E0DFF89880404502D119
:100C90004FF0030801E04FF0040808FA06F848EAAC
:100CA0000508CCF808804D68D9F80060ED024D4683
:100CB00001D5164300E096432E604D68DAF80060D7
:100CC000AD02554601D5164300E096432E604D68AF
:100CD000DBF80060AD035D4601D5164300E09643A6
:100CE0002E604D68DEF80060ED03754601D51643B1
:100CF00000E096432E60641C0D682A46E5407FF4B0
:100D000031AFBDE8F88F0000080401400000111069
:100D1000001002400000014000080140000C0140AA
:100D200000100140001401408068084000D00120FC
:100D300070470AB1016170470904FBE70148806808
:100D400070470000200600200248816802781144A4
:100D50008160704720060020074810B5016841F007
:100D600010010160032000F0A1F80F2000F006F848
:100D700000F04AF8002010BD0020024030B50546C2
:100D80001C4887B0816941F400618161806906A9CE
:100D900000F40060009001A800F030F900F05EF966
:100DA0001549164AB0FBF1F11548491E0260416031
:100DB00040F2E7320021C0E903218160816100F047
:100DC00075FD040012D10E4800F09EFD04000DD107
:100DD000192000F03DF8102D07D2002229461920D5
:100DE00000F044F80748056000E0012407B0204601
:100DF00030BD00000010024040420F00002C0140B6
:100E00001C0C0020240600200F4808B5816941F021
:100E100001018161816901F001010091C16941F025
:100E20008051C161C069002200F0805000900F2104
:100E3000901E00F01BF80548416821F0E06141F088
:100E40000071416008BD0000001002400000014038
:100E5000002809DB00F01F020121914040098000B9
:100E600000F1E020C0F8001170470000F0B40E4B14
:100E70001B680C46C3F30223C3F10705042D00D9F8
:100E80000425191D072901D2002300E0DB1E0126DD
:100E900006FA05F1491E214099409E40761E1640F3
:100EA0003143F0BC01F0FBBF0CED00E0064900F05F
:100EB000070208684FF6FF03184040EA0220034A81
:100EC00010430860704700000CED00E00000FA05D8
:100ED0002DE9F0470F46050061D0434E306800F021
:100EE0000700B84209D2306820F00700384330606C
:100EF000306800F00700B84251D128683B4C8107A8
:100F000012D5400703D5606840F4E060606028783F
:100F1000000703D5606840F4605060606068A968AD
:100F200020F0F000084360602878C00728D0686887
:100F3000012810D02168022810D0890700292EDA54
:100F4000616821F0030101436160FFF7F7FE80460D
:100F500041F288390DE021688903EFE78901EDE767
:100F6000FFF7ECFEA0EB0801494502D90320BDE8DC
:100F7000F0876068696800F00C00B0EB810FEFD17A
:100F8000306800F00700B8420BD9306820F0070045
:100F900038433060306800F00700B84201D00120CB
:100FA000E5E72878400705D56068E96820F4E06047
:100FB000084360602878000706D56068296920F436
:100FC000605040EAC100606000F058F86168084A6B
:100FD000C1F30311515CC840064908600648006827
:100FE000FFF7CCFE0020C2E70020024000100240C4
:100FF0006A4200082C060020240600200F2202600E
:101000000C4A536803F003034360536803F0F00392
:101010008360536803F4E063C36052684FF4E06395
:1010200003EAD20202610448006800F00700086089
:1010300070470000001002400020024004480549AB
:1010400000684968044AC1F30221515CC8407047F6
:101050002C060020001002407A420008044805498E
:1010600000684968044AC1F3C221515CC840704716
:101070002C060020001002407A4200080E4A5168F7
:101080000E4801F00C03042B11D0082B0FD10C4893
:10109000C1F38343C903C05C0AD55168084AC1F350
:1010A0004041921E515C054A5043B0FBF1F070473D
:1010B00004494843704700000010024000127A00C3
:1010C0005A42000800093D002DE9F84F040070D095
:1010D0002078C04DC00749D06868C0F3810001285E
:1010E00007D06868C0F38100022809D16868C0038E
:1010F00006D52868800339D560680028E7D035E038
:101100006068B0F5803F0BD010B1B0F5A02F11D0C2
:10111000286820F480302860286820F4802002E0CD
:10112000286840F480302860606890B1FFF706FEC0
:1011300006460AE0286840F480202860F0E700BFF7
:10114000FFF7FCFD801B642873D828688003F7D55F
:101150000CE0FFF7F3FD064605E000BFFFF7EEFDEC
:10116000801B6428F0D828688003F7D420789A4E32
:1011700080074FF001094FF0000839D5686810F07A
:101180000C0F07D06868C0F38100022809D1686895
:10119000C00306D42868800714D52069012808D127
:1011A00010E02069B0B1C6F80090FFF7C7FD074610
:1011B00005E00AE1FFF7C2FDC01B0228C4D8286879
:1011C0008007F7D52868616920F0F80040EAC1007F
:1011D00028600DE0C6F80080FFF7B0FD074604E088
:1011E000FFF7ACFDC01B022823D828688007F7D47E
:1011F000207800072CD57948A169D9B1C0F80090B2
:10120000FFF79CFD074604E0FFF798FDC01B02288E
:101210000FD8686A8007F7D571484FF4FA51006813
:10122000B0FBF1F0009000BF0098411E0091FAD28F
:101230000EE080E0C0F80080FFF780FD074604E084
:10124000FFF77CFDC01B022875D8686A8007F7D4B9
:101250002078400760D5E8690027C00008D4E86915
:1012600040F08050E861E869012700F0805000906C
:101270005C480168C90513D40168834641F4807154
:101280000160FFF75BFD824606E000BFFFF756FDF9
:10129000A0EB0A0064284ED8DBF80000C005F5D5A5
:1012A000E06801280AD008B1052813D0286A20F088
:1012B00001002862286A20F0040002E0286A40F059
:1012C00001002862E06841F2883B98B1FFF736FDE3
:1012D00082460BE0286A40F004002862EEE700BF77
:1012E000FFF72CFDA0EB0A0159455AD8286A800760
:1012F000F6D50CE0FFF722FD824605E0FFF71EFD64
:10130000A0EB0A0159454CD8286A8007F6D41FB1D2
:10131000E86920F08050E861E06988B36968C1F34A
:101320008101022944D00228C6F8608004D0FFF76A
:1013300005FD044638E034E0FFF700FD074604E011
:10134000FFF7FCFCC01B02282BD828688001F7D4CB
:10135000206AB0F5803F05D16868A16820F40030AC
:1013600008436860D4E908010843696821F47411EE
:1013700008436860C6F86090FFF7E0FC044606E0AA
:1013800025E000BFFFF7DAFC001B022809D8286817
:101390008001F7D51BE000BFFFF7D0FC001B02283F
:1013A00002D90320BDE8F88F28688001F4D40EE04C
:1013B0000128F7D06868226A00F48031914204D194
:1013C000616A00F47010884201D00120EAE7002031
:1013D000E8E7000000100240000042428004424260
:1013E0002C0600200070004070B5040009D0606A2F
:1013F000002540B125616561A56294F8510040B1B6
:101400000CE0012070BD6068B0F5827FF4D0E5612A
:10141000F2E784F85050204600F040F8022084F8AB
:1014200051002068016821F040010160A0882189F5
:1014300000F4827001F404410843A18901F40061C1
:101440000843217C01F002010843217D01F00101E4
:101450000843218B01F400710843217F01F038011A
:10146000084394F8201001F080010843218D01F415
:101470000051084321680860A069042101EA104076
:10148000216848602068C16921F40061C161656517
:10149000012084F85100002070BD000030B585B0F7
:1014A00000240094019402940394234D036823487C
:1014B00002210322AB4216D1836943F48053836136
:1014C000836903F480530493836943F004038361C5
:1014D0008069039200F004000490A020CDE900018F
:1014E0006946174823E0174DAB4222D1C36943F444
:1014F0008043C361C36903F480430493836943F069
:10150000080383618069104D00F0080004904FF4D7
:101510002040CDE90001039269462846FFF714FBFD
:101520004FF48040CDE90004694628460294FFF755
:101530000BFB05B030BD0000003001400010024040
:101540000008014000380040000C01402DE9F84F30
:10155000044690F850000026984615468A46012811
:101560000CD0012784F85070FFF7E8FB814694F80F
:101570005100B346012804D002269AE00220BDE8BB
:10158000F88FBAF1000F6FD0002D6DD0032084F8D2
:101590005100C4F854B0C4F830A0A586E586C4F85C
:1015A00038B0A4F83CB0A4F83EB0C4F844B0C4F8D5
:1015B00040B0A068B0F5004F09D12068016821F063
:1015C000400101602068016841F4804101602068A9
:1015D0000168490603D4016841F040010160E068F8
:1015E000B0F5006F606803D058B3012D29D049E0F1
:1015F00008B1012D1FD1206B21680088C86006E06A
:1016000020688168890709D5216B0988C160206B32
:10161000801C2063E08E401EE0860CE0FFF78EFB0E
:10162000A0EB0901414503D3B8F1FF3F03D006E029
:10163000B8F1000F03D0E08E0028E1D125E00326A9
:1016400035E0206B21680078087306E02068816827
:1016500089070AD5216B09780173206B401C206330
:10166000E08E401EE0860DE01FE0FFF767FBA0EB79
:101670000901414503D3B8F1FF3F03D0DFE7B8F1DB
:10168000000FDCD0E08E0028E0D14A4641462046DB
:1016900000F074FF08B120206065A06818B92068C8
:1016A000C16880680090606D08B1012601E084F88F
:1016B000517084F850B0304661E72DE9FF4F81B09A
:1016C000044690F8500000260E9F1D4693464FF0AA
:1016D000010901280FD04FF0010A84F850A0FFF74C
:1016E0002DFB804694F85100616801280DD0B1F5BA
:1016F000827F08D103E0022005B0BDE8F08FA16829
:1017000009B9042801D00226C9E00298002865D052
:10171000BBF1000FFBD0002DF9D094F85100042844
:1017200002D0052084F8510000206065C4F838B06C
:10173000E587A58702992163E586A5862064606414
:1017400020680168490603D4016841F04001016046
:10175000E068B0F5006F606803D0F0B3012D47D0AA
:1017600081E008B1012D3CD1206B21680088C86060
:10177000206B801C2063E08E401EE08631E02068F4
:10178000816889070FD5E18E69B1B9F1010F0AD1DE
:10179000216B0988C160206B801C2063E08E401E95
:1017A000E0864FF0000920688168C9070CD0E18FFE
:1017B00051B1C068A16B0880A06B801CA063E08F52
:1017C000401EE0874FF00109FFF7B8FAA0EB0800D0
:1017D000B84206D3781C04D001E009E05BE00326A0
:1017E0005BE0E08E0028CAD1E08F0028C7D140E03E
:1017F000206B216800780873206B401C2063E08E0A
:10180000401EE0862FE02068816889070FD5E18EB1
:1018100069B1B9F1010F0AD1216B09780173206B0D
:10182000401C2063E08E401EE0864FF000092068D7
:101830008168C9070CD0E18F51B1C068A16B0870F5
:10184000A06B401CA063E08F401EE0874FF00109B1
:10185000FFF774FAA0EB0800B84202D3781C02D05C
:10186000BAE7002FB8D0E08E0028CCD1E08F002856
:10187000C9D142463946204600F080FE18B1012603
:10188000202060650BE0A06818B92068C1688068F6
:101890000090606D08B1012601E084F851A000209D
:1018A00084F85000304627E77047704710B50400B1
:1018B00003D094F83D0010B107E0012010BD0020D6
:1018C00084F83C00204600F01EF8022084F83D0019
:1018D000211D206801F098F9012084F8460084F861
:1018E0003E0084F83F0084F8400084F8410084F80A
:1018F000420084F8430084F8440084F8450084F8EA
:101900003D00002010BD704790F83D10012901D026
:1019100001207047022180F83D100168CA6842F03A
:101920000102CA6000680B49884208D0B0F1804FBC
:1019300005D00949884202D00849884204D181680B
:1019400001F00701062903D0016841F0010101609F
:1019500000207047002C01400004004000080040B7
:10196000704770B50446006801694FF00005C9432F
:10197000890715D4C168C943890711D4E91E0161DB
:1019800001202077206880698007204602D0FFF779
:10199000E7FF04E000F098F8204600F096F825777D
:1019A00020680169C943490717D4C168C943490779
:1019B00013D46FF004010161022020772068806950
:1019C00010F4407F204602D0FFF7CAFF04E000F089
:1019D0007BF8204600F079F8257720680169C94333
:1019E000090716D4C168C943090712D46FF008016A
:1019F0000161042020772068C0698007204602D05A
:101A0000FFF7AEFF04E000F05FF8204600F05DF85D
:101A1000257720680169C943C90617D4C168C9433D
:101A2000C90613D46FF010010161082020772068E7
:101A3000C06910F4407F204602D0FFF791FF04E018
:101A400000F042F8204600F040F825772068016950
:101A5000C943C90708D1C168C943C90704D1891E50
:101A60000161204600F032F820680169C943090687
:101A700009D4C168C943090605D46FF0800101612A
:101A80002046FFF711FF20680169C943490609D4C0
:101A9000C168C943490605D46FF040010161204681
:101AA00000F01EF820680169C94389060BD4C1689B
:101AB000C943890607D46FF0200101612046BDE8C3
:101AC0007040FFF7F2BE70BD704770470068034971
:101AD000884201D1FFF738B970470000002C01405F
:101AE0007047704770470000F8B501680446086801
:101AF000CA684B6910F00F0F4FF0000559D003F082
:101B0000010602F49077374365D0C10705D0D105AF
:101B100003D5616C41F001016164410705D5D90726
:101B200003D0616C41F002016164810705D5D907DA
:101B300003D0616C41F004016164010707D502F034
:101B40002001314303D0616C41F008016164616C94
:101B500000293AD0800604D5900602D5204601F02F
:101B6000B8F820684069616CC0F38010090700D4A0
:101B700060B3204601F086F820684069400621D510
:101B80002068143050E8001F21F0400140E80012A6
:101B9000002AF5D1E06BA8B16D494163E06BFEF717
:101BA00075FF002811D0E06B416B01B0BDE8F0403B
:101BB000084783060FD593060DD52046BDE8F840AB
:101BC00001F087B82046FFF78DFFF8BD2046FFF7EC
:101BD00089FF6564F8BD266B2023012E7CD1C606E3
:101BE0007AD5D60678D508684868009048694FF0DD
:101BF0000206400640D5E16B086840680004000C0E
:101C0000E8D0A28D8242E5D9E085886920282DD0D0
:101C100020680C3050E8001F21F4807140E8001269
:101C2000002AF5D12068143050E8001F21F001018E
:101C300040E80012002AF5D12068143050E8001F57
:101C400021F0400140E80012002AF5D184F842302A
:101C5000256320680C3050E8001F21F0100140E897
:101C60000012002AF5D1E06BFEF7ECFE6663A08D52
:101C7000E18D401A81B22AE0A08DE18D401A81B237
:101C8000E08D0028A6D00029A4D022680C3252E8AA
:101C9000000F20F4907042E80007002FF5D1206873
:101CA000143050E8002F22F0010240E80027002FF6
:101CB000F5D184F84230256320680C3050E8002FBD
:101CC00022F0100240E80023002BF5D16663204685
:101CD000FFF707FFF8BDFFE705062BD5150629D549
:101CE00094F841002128F5D1A068B0F5805F01D1BA
:101CF0002069B0B1206A411C2162216800784860E7
:101D0000E08C401E0004000CE084E3D12068C16830
:101D100021F08001C1602068C16841F04001C160CC
:101D2000D8E7206A0088C0F308004860206A801C59
:101D30002062E5E74006CDD55006CBD5CA682046DF
:101D400022F04002CA6084F8413000F028F9C1E76F
:101D5000752C000870B5040004D094F841000025EB
:101D600010B106E0012070BD84F84050204600F01C
:101D700023F8242084F841002068C16821F4005130
:101D8000C160204601F006F82068016921F4904105
:101D900001612068416921F02A0141612068C16820
:101DA00041F40051C1606564202084F8410084F84A
:101DB00042006563002070BD70B586B000240094B9
:101DC0000194029403942E4E03682E4902200322AC
:101DD0002D4DB34226D18B6943F480438B618B69CF
:101DE00003F4804304938B6943F004038B61896996
:101DF000039201F0040104910102CDE9001069464B
:101E00002846FEF7A1FE2815CDE9000469462846BC
:101E10000294FEF799FE002205212520FFF726F8FF
:101E2000252028E0194EB34227D1CB6943F4003373
:101E3000CB61CB6903F4003304938B6943F0040353
:101E40008B618969039201F0040104910421CDE9B9
:101E5000001069462846FEF777FE0820CDE9000409
:101E6000694628460294FEF76FFE002205212620CF
:101E7000FEF7FCFF2620FEF7EBFF06B070BD00006A
:101E800000380140001002400008014000440040BA
:101E900090F84230202B01D00220704721B11AB1B6
:101EA0000023036300F0D2BF0120704770B50646DF
:101EB000006828490025284C884220D12748A2687C
:101EC000A1788154521C1044A26010F8010C0A2819
:101ED0000FD12249921EA1F18000FEF7ACFAA16851
:101EE000881E60611D48FEF7D8FAA560E06D02F01B
:101EF0001FF919490122891C1948FFF7C9FF19491F
:101F00003068884225D11548E2688030E1788154F4
:101F1000521C1044E26010F8010C0A2811D10F493C
:101F2000921E8031A1F58A70FEF785FAE168881E5D
:101F300020610A488030FEF7B0FAE560206E02F0BA
:101F4000F7F8BDE8704004490122C91C0648FFF7B4
:101F50009FBF70BD00380140AC0500202407002061
:101F60008C0B002000440040D40B002090F841303E
:101F7000202B01D00220704779B172B101628284B6
:101F8000C28400214164212180F841100068C168A9
:101F900041F08001C1600020704701207047704708
:101FA000FEE770B50C46054600F0A6F820EA0401ED
:101FB0002846BDE8704000F0C9B800002DE9FF5F79
:101FC0000027FE25DDF838A016468B468146B84628
:101FD0000C2805D0B9F10E0F05D11227102001E011
:101FE00077273020804647F08001022000F0AEF8CD
:101FF00080210420FFF7D5FF0021012000F0A6F882
:1020000080210A2000F096F8002405E01BF8041057
:10201000092000F09BF8641CB442F7D34946012024
:1020200000F094F880210D2000F084F8284E042060
:1020300000F062F80446761E04D0E00702D114EAEC
:10204000080FF4D080210D20FFF7ABFF36B106203A
:1020500000F052F810F01B0F0CD0FE2580210C2050
:1020600000F068F80021012000F070F804B0284664
:10207000BDE8F09F00253C40E00700D0FF25B9F106
:102080000C0FEBD10A2000F037F804460C2000F0CA
:1020900033F810F007004FEAC40104D008390844AF
:1020A000AAF8000001E0AAF8001024B1122C04D90B
:1020B0001224002603E00124FBE7002605E00920A6
:1020C00000F01AF803998855761CA642F7D3C5E7A5
:1020D000E093040010B5012211030548FEF729FE24
:1020E0000122BDE8104011020248FEF722BE0000A6
:1020F000000C01400008014070B57E2101EA40005B
:102100000B4E40F080044FF48055002229463046A3
:10211000FEF70FFE204600F01FFA002000F01CFA28
:102120000446012229463046FEF703FE204670BDD4
:10213000000C014070B50C460546FFF7DDFF40EA94
:1021400004012846BDE87040AFF300802DE9F0415E
:102150000E467E2101EA40040A4F4FF480550022CA
:1021600029463846FEF7E5FD204600F0F5F93046F1
:1021700000F0F2F929463846BDE8F0410122FEF7A9
:10218000D8BD0000000C014010B5A4B01C221F49AE
:102190006846FEF750F90021684601F0AFF91C4C83
:1021A0001A491C2260651C3107A8FEF744F900217A
:1021B00007A801F0A3F91549A0651C2238310EA823
:1021C000FEF739F900210EA801F098F90F49E065F2
:1021D0001C22543115A8FEF72EF9002115A801F094
:1021E0008DF90A4920661C2270311CA8FEF723F9DC
:1021F00000211CA801F082F96066E06D01F092FDFB
:10220000206E01F08FFD24B010BD0000B841000821
:10221000AC0500202DE9F04385B00024304800943F
:10222000019402940394816941F0100181618169F4
:1022300001F010010491816941F0200181618169FF
:1022400001F020010491816941F0040181618169FB
:1022500001F004010491816941F008018161806904
:10226000DFF8808000F008000490002240F607317B
:102270004046FEF75EFD012211034046FEF759FD80
:102280000122DFF86490170239464846FEF751FDF7
:1022900041F6073001250226CDE90005CDE90246C9
:1022A00069464046FEF750FC4FF48760CDE90004D4
:1022B000694640460294FEF747FC00970396CDE935
:1022C000015469464846FEF73FFCE803CDE90004A7
:1022D000694648460294FEF737FC05B0BDE8F08336
:1022E00000100240000C014000080140114810B5E8
:1022F0000F4901604FF4827141604FF400418160E9
:102300000021C1604FF400720161C0E9051208228A
:10231000C0E90721416281620A21C162FFF764F8C6
:10232000002803D0BDE81040FEF78ABB10BD0000B6
:1023300000300140DC0A00200F4810B50D49016053
:102340004FF48271416000218160C1604FF40072DE
:102350000161C0E90512C1610162416281620A2125
:10236000C162FFF741F8002803D0BDE81040FEF736
:1023700067BB10BD00380040340B00200C4810B57E
:102380000A4901604FF4E1314160002181600C2273
:10239000C160C0E904128161C161FFF7DBFC002864
:1023A00003D0BDE81040FEF74BBB10BD0038014024
:1023B0008C0B00200C4810B50A4901604FF4E13144
:1023C0004160002181600C22C160C0E9041281617A
:1023D000C161FFF7BFFC002803D0BDE81040FEF745
:1023E0002FBB10BD00440040D40B0020FEE7FEE7E9
:1023F00003211420FFF7D5BD10B51420FFF77CFE94
:10240000800705D10321BDE810401420FFF792BEDC
:1024100010BD70B50646082188B000240846FFF7B5
:10242000C0FD00210D20FFF791FE80210E20FFF757
:10243000B8FD93208DF8040020208DF8050006A833
:1024400001AB0090022219460C20FFF7B7FD0500F2
:102450000DD1002101A8425C7254425C491C5440D9
:10246000C9B20429F7D3405CA04200D0FE258021E8
:102470000E20FFF75FFE08B0284670BD30B50C4651
:102480000546082187B00846FFF78BFD07210D2080
:10249000FFF75CFE03211420FFF74CFE06A801ABFA
:1024A00000908DF80450012219460C20FFF786FD9C
:1024B000002809D1BDF81810102905D19DF8041085
:1024C00021709DF80510617007B030BD70B5012214
:1024D000204D140221462846FEF72BFC022001F075
:1024E00001F8002221462846FEF723FC022000F0D6
:1024F000F9FF012221462846FEF71BFC022000F0CE
:10250000F1FF0F210120FFF721FE022000F0EAFF7A
:102510003D211120FFF71AFE1E212D20FFF716FE88
:1025200000212C20FFF712FE8D212A20FFF70EFE3E
:102530003E212B20FFF70AFE40211520FFF706FE63
:10254000FFF756FF022000F0CDFFBDE87040FFF717
:1025500053BF00000008014001B582B00A2000907E
:102560000123044A02A90448FFF7A7F801480078AC
:102570000EBD000000000020340B002038B50B46D3
:10258000009204460022802100F008F8002804D0C0
:10259000606D40F020006065032038BD2DE9F843F0
:1025A0001E46914688460446089DFEF7C7FB401B21
:1025B000351AFEF7C3FB074625480068C0F3CB3049
:1025C000684338E0701C37D0FEF7B8FBC01BA84248
:1025D00003D215B1009860B32CE02068416821F067
:1025E000E00141606068B0F5827F0BD1A068B0F572
:1025F000004F02D0B0F5806F04D12068016821F04F
:1026000040010160A06AB0F5005F09D1206801684F
:1026100021F4005101602068016841F4005101601B
:10262000012084F85100002084F850000320BDE808
:10263000F8830025401E00902068816838EA010078
:1026400004D000214945BDD10020F0E70121F9E780
:102650002C060020FEF708F84F4CA069FDF7CCFED1
:1026600082B24E48A169FFF781FC4FF4FA75284603
:1026700000F038FFE069FDF7BFFE82B24748E1692C
:10268000FFF774FC284600F02DFF206AFDF7B4FE2A
:1026900082B24248216AFFF769FC284600F022FF17
:1026A000606AFDF7A9FE82B23C48616AFFF75EFCF2
:1026B000284600F017FFA06AFDF79EFE82B2374859
:1026C000A16AFFF753FC40F6B83000F00BFFE06A58
:1026D000FDF792FE82B23148E16AFFF747FC2846D7
:1026E00000F000FF206BFDF787FE82B22B48216BC4
:1026F000FFF73CFC40F6AC5000F0F4FE606BFDF7D9
:102700007BFE82B22548616BFFF730FC284600F063
:10271000E9FEA06BFDF770FE82B22048A16BFFF7C7
:1027200025FC284600F0DEFEE06BFDF765FE82B278
:102730001A48E16BFFF71AFC642000F0D3FE04F1A5
:102740006D00FDF759FE82B204F16D011348FFF7E9
:102750000DFC642000F0C6FE601CFDF74DFE82B249
:10276000611C0E48FFF702FC642000F0BBFE012252
:10277000A11C0A48FFF78CFB0122E11C0848FFF767
:1027800087FBFFF7A7FCFFF7A1FE002001F03EFA50
:10279000012000F0A7FEFBE7AC0500208C0B002019
:1027A000D40B0020094E0A4D4FF48074C82000F06D
:1027B00099FE306C38B10128F8D100222146284614
:1027C000FEF7B7FAF2E70122F8E70000AC050020B7
:1027D000000C01400A4C4FF480764FF496750122AC
:1027E00031462046FEF7A5FA284600F07BFE00227F
:1027F00031462046FEF79DFA284600F073FEEEE7CC
:10280000000C0140ACB0784E00241422774927A870
:10281000FDF711FE2094142119A82194FDF73DFE27
:10282000002529461EA801F0CBF8002868D109220E
:102830006FA17248FFF79AFB642000F053FE22A8B4
:10284000FDF7DAFD014622A8FDF727FE9DF8782066
:102850006BA119A8FDF728FD19A8FDF7CDFD0246CB
:1028600019A922A8FDF7A4FD19A8FDF7C5FD014689
:1028700019A8FDF712FE9DF8792061A119A8FDF7AE
:1028800013FD19A8FDF7B8FD024619A922A8FDF706
:102890008FFD19A8FDF7B0FD014619A8FDF7FDFD54
:1028A0009DF87A2056A119A8FDF7FEFC19A8FDF79E
:1028B000A3FD024619A922A8FDF77AFD19A8FDF784
:1028C0009BFD014619A8FDF7E8FD9DF87B204CA172
:1028D00019A8FDF7E9FC19A8FDF78EFD024619A914
:1028E00022A8FDF765FD22A8FDF786FD054619A87B
:1028F000FDF782FD014619A8FDF7CFFD1E941F9438
:10290000376940493A466846FDF752FD7A193CA1BD
:1029100020A8521DFDF7C8FC20A8FDF76DFD02465A
:1029200020A927A8FDF744FD27A8FDF765FD82B281
:1029300027A93248FFF71AFBC82000F0D3FD2A4828
:10294000001DFDF759FD284982B2091D2B48FFF7EC
:102950000DFBC82000F0C6FD012223496846FDF7A3
:1029600027FD2A4622A96846FDF722FD1E490122BD
:10297000491C6846FDF71CFD1B486830FDF73CFD0F
:10298000194982B268311D48FFF7F0FAC82000F0FB
:10299000A9FD6846FDF730FD82B269461748FFF78A
:1029A000E5FAC82000F09EFD0F48001DFDF724FD4C
:1029B0000D4982B2091D1148FFF7D8FAC82000F06E
:1029C00091FD64216846FDF768FD142122A8FDF7FA
:1029D00064FD14210B48FDF760FD209421943461BF
:1029E000306E01F09FF910E7AC050020444200086A
:1029F00052464944204745540A0000008C0B0020F1
:102A00002564000090060020DFF838B19AB0002459
:102A1000254626462746A146A046A24614210FA8D1
:102A2000FDF73BFD1C2101A8FDF737FD1C2108A87F
:102A3000FDF733FDDBF8140043A1142843484CDDB7
:102A4000FDF7C8FC002870D04048015D641C2429B3
:102A5000FBD1815D761C242900D17F1C022FF8D187
:102A6000415D6D1C2D29FBD101AB711E05E0025D9E
:102A700003F8092009F10109641C8C42F7DB08AA5C
:102A80006D1E05E0835D02F8083008F10108761C30
:102A9000AE42F7DB02222EA12E48FDF789FC4A4602
:102AA00001A92C48FDF784FC03222BA12948FDF73E
:102AB0007FFC424608A92748FDF77AFC2548FDF728
:102AC0009BFC82B223492548FFF750FA642000F0AE
:102AD00009FD204800F038FA27E0FDF77BFC98B1AB
:102AE0001A48015D641C2429FBD1415D6D1C2D2910
:102AF000FBD10FAA6D1E05E0035D02F80A300AF152
:102B0000010A641CAC42F7DB15A10FA8FDF762FCBB
:102B100018B10121CBF8401007E013A10FA8FDF771
:102B200059FC10B10020CBF840005C460748DBF8A8
:102B30001410FDF7B2FC00206061E06D01F0F2F8C6
:102B400065E70000AC05002049504400A4060020C1
:102B50000A0A0000240800200A0A0A008C0B002040
:102B60004C45444F4E0000004C45444F4600000089
:102B700010B5502080F31188BFF34F8FBFF36F8FD4
:102B800001F010FA18B104494FF08050086000209D
:102B900080F3118810BD000004ED00E030B58FB067
:102BA00028216846FDF779FC14210AA8FDF775FC79
:102BB00001210804CDE900100024029402250491AB
:102BC000CDE907504FF4E01009906846FEF77CFA13
:102BD00008B172B6FEE70F20CDE90A054FF4806018
:102BE000CDE90C4002210AA80E94FEF771F90028E5
:102BF00001D072B6FEE70FB030BD70470148FEF756
:102C0000B0BE00001C0C0020F0B50268164B174C3B
:102C1000174D4FF08047984205D0B84203D0A042EC
:102C200001D0A84203D122F070064A68324398428C
:102C300005D0B84203D0A04201D0A84203D122F46B
:102C40004074CA6822434C6922F080022243026029
:102C50008A68C2620A688262984201D10969016386
:102C600001214161F0BD0000002C01400004004042
:102C70000008004010B5406A0021C185C184FEF7FC
:102C800031FF10BD01680C3151E8002F22F4907221
:102C900041E80023002BF5D10168143151E8002FE1
:102CA00022F0010241E80023002BF5D1016B01293C
:102CB00009D101680C3151E8002F22F0100241E8DF
:102CC0000023002BF5D1202180F842100021016360
:102CD000704708B590F84210222901D0022008BDA3
:102CE00082684FF480539A4201D1016921B1816A0F
:102CF0009A421BD04AB10AE00268816A5268C2F364
:102D000008020A80816A891C08E0026972B10268BF
:102D1000526802F07F020A70816A491C8162C18D8B
:102D2000491E0904090CC18503D01BE002685268E2
:102D3000F1E70168CA6822F02002CA600168CA6827
:102D400022F48072CA6001684A6922F001024A6175
:102D5000202180F8421000214163026B012A03D038
:102D6000FFF7A4F8002008BD016301680C3151E8A9
:102D7000002F22F0100241E80023002BF5D101685A
:102D80000A68D20602D50A6849680091818DFEF76B
:102D9000A8FEE7E770B5044600680169E26821F41F
:102DA0004051114301612169A068084361690843EA
:102DB0002168CA6841F20C639A430243CA602068E2
:102DC0004169A26921F44071114341611E492068A3
:102DD000884202D1FEF742F901E0FEF72FF900EB3D
:102DE000C00101EB0012606864218000B2FBF0F3C7
:102DF000B3FBF1F36FF018067343B2FBF0F5B2FBCF
:102E0000F0F605EB8305322303EB0515B5FBF1F571
:102E1000B6FBF1F605F0F00505EB0615B2FBF0F692
:102E2000B2FBF0F0B0FBF1F06FF01802504306EB8C
:102E3000800003EB0010B0FBF1F0216800F00F0000
:102E40002844886070BD000000380140816282859E
:102E5000C28500214164222180F84210016921B11C
:102E60000168CA6842F48072CA6001684A6942F027
:102E700001024A610068C16841F02001C160002080
:102E8000704700000148FEF72FBE00008C0B0020A9
:102E90000148FEF729BE0000D40B0020FEE7090719
:102EA000090E002804DB00F1E02080F800147047D0
:102EB00000F00F0000F1E02080F8141D70470000C2
:102EC00020490728097822D0802900DB803906288C
:102ED00020D0402900DB403905281ED0202900DB06
:102EE000203904281CD0102900DB103903281AD0FF
:102EF000082900DB0839022818D0042900DB091F43
:102F0000012816D0022900DB891EA8B118E080290B
:102F100014DA15E0402911DA12E020290EDA0FE068
:102F200010290BDA0CE0082908DA09E0042905DA8F
:102F300006E0022902DA03E0012901DB01207047E3
:102F400000207047A000002010B50446FDF74EFC9D
:102F5000FDF739FC00F06EFA204600F073FA00F03D
:102F600067FABDE81040FDF751BD00002DE9F047BC
:102F700091460C4605460A2A7DD04420FDF7DCFC2C
:102F80002001C0F3C7073846FDF7F0FC0F2000EB27
:102F90000410C0F3C700FDF7E9FC4520FDF7CCFCA9
:102FA00005EB45008400E0B2FDF7E0FCC4F3072622
:102FB0003046FDF7DBFC05EB45010A2000EB8105FF
:102FC000E8B2FDF7D3FCC5F30720FDF7CFFC4E2098
:102FD000FDF7B2FC3846FDF7C9FC4F20FDF7ACFC0D
:102FE000E0B2FDF7C3FC3046FDF7C0FC2420FDF73E
:102FF000A3FCFF20FDF7BAFCFF20FDF7B7FC00247F
:10300000DFF81884A24600BFB9F1410F7DD0B9F1B5
:10301000420F7BD0B9F1430F79D0B9F1440F77D08B
:10302000B9F1450F75D0B9F1460F73D0B9F1470F1B
:1030300071D0B9F1480F6FD0B9F1490F6DD0B9F126
:103040004A0F6BD0B9F14B0F69D0B9F14C0F67D073
:10305000B9F14D0F65D0B9F14E0F7CD0B9F14F0FDA
:103060007AD0B9F1500F78D0B9F1510F76D0B9F1CB
:10307000520F74D000E0B7E0B9F1530F70D0B9F13E
:10308000540F6ED0B9F1550F6CD0B9F1560F6AD00C
:10309000B9F1570F68D0B9F1580F66D0B9F1590F8F
:1030A0007DD0B9F15A0F7BD0B9F1610F79D0B9F168
:1030B000620F77D0B9F1630F75D0B9F1640F73D097
:1030C000B9F1650F71D0B9F1660F6FD0B9F1670F23
:1030D0006DD0B9F1680F6BD0B9F1690F69D0B9F152
:1030E0006A0F67D0B9F16B0F65D0B9F16C0F76D06C
:1030F000B9F16D0F74D0B9F16E0F72D0B9F16F0FD5
:1031000070D0B9F1700F6ED00CE071E073E075E033
:1031100080E082E084E089E08BE08DE08FE091E068
:1031200093E095E0B9F1710F6FD0B9F1720F6DD0E6
:10313000B9F1730F6BD0B9F1740F69D0B9F1750F94
:1031400067D0B9F1760F6ED0B9F1770F6CD0B9F1C5
:10315000780F6AD00AE084E085E087E089E08DE0BE
:103160008FE091E093E095E097E09EE0B9F1790F70
:1031700071D0B9F17A0F6FD0B9F1300F6DD0B9F1CC
:10318000310F6BD0B9F1320F69D0B9F1330F67D07D
:10319000B9F1340F70D0B9F1350F6ED00CE087E083
:1031A00089E08CE08DE08FE091E093E095E097E09E
:1031B00099E09BE09DE09FE0B9F1360F70D0B9F146
:1031C000370F6ED0B9F1380F6CD0B9F1390F6AD022
:1031D000B9F13A0F68D0B9F1200F6FD0E1E08EE07D
:1031E00090E092E093E095E0BDE8F04700F070B920
:1031F0008A480C30D1E089482030CEE0874834300E
:1032000010F8241088F80010CBE086E088E08AE00F
:103210008CE08EE081484830BFE080485C30BCE004
:103220007E487030B9E087E089E08BE07B488430ED
:10323000B3E07A489830B0E07848AC30ADE07748F9
:10324000C030AAE07548D430A7E07448E830A4E064
:103250007248FC30A1E078E07AE07CE07DE07FE03D
:1032600081E06F4899E06E48143096E06C48283051
:1032700093E06B483C3090E078E07AE0684850306A
:103280008BE06748643088E06548783085E06448C2
:103290008C3082E06248A0307FE06148B4307CE04E
:1032A0006AE06CE06EE070E072E05D48C83074E0A7
:1032B0005B48DC3071E05A48F0306EE06BE0594812
:1032C0006BE05848143068E05648283065E05548AF
:1032D0003C3062E0534850305FE0524864305CE07C
:1032E0005048783059E04F488C3056E04D48A03077
:1032F00053E04C48B43050E04A48C8304DE04948AB
:10330000DC304AE04748F03047E0474845E046486F
:10331000143042E0444828303FE043483C303CE031
:103320004148503039E04048643036E03E4878301B
:1033300033E03D488C3030E03B48A0302DE03A4847
:10334000B4302AE03848C83027E03748DC3024E081
:103350003548F03021E035481FE0344814301CE097
:103360003248283019E031483C3016E02F485030C0
:1033700013E02E48643010E02C4878300DE02B48E4
:103380008C300AE02948A03007E02848B43004E037
:103390002648C83001E02548DC3010F8240088F8C1
:1033A000000001265FF00105012288F801A0AF00AE
:1033B00007EB4203581CFFF783FD01280AD17AB1BD
:1033C0005FF0100098F801C000EB40010CEB8101A8
:1033D00088F801101846FFF773FD012802D00AE0B3
:1033E0000120EFE7BAB1102098F8013000EB40015E
:1033F000194488F80110521EDAD598F80100FDF73B
:10340000B5FA6D1ED0D5761ECCD5641C052CFFF602
:10341000FBADBDE8F0870120E6E70000A00000203A
:10342000B0010020B4020020B8030020BC0400203A
:10343000FDF7F8BA0248072141608160704700003B
:10344000A000002070B504460BE000BF00F00EF8AD
:10345000054600F013F8014622782846FFF786FD5E
:10346000641C20780028F1D170BD00000249486832
:10347000421C4A6070470000A00000200649072255
:10348000D1E90130132B02DD431EC1E901238B6812
:10349000002B00DA8A607047A0000020FDF75CFC7A
:1034A000FFF77CFBFEF7B6FEFEF720FFFEF744FFBA
:1034B000FEF764FFFEF77EFFFEF766FE00F019F8E8
:1034C000FEE701460020842900D0C81C7047000098
:1034D0000348072141608168491E816070470000F0
:1034E000A000002010B500B9012000F069FB002009
:1034F00010BD10B500F0E0FB002010BD7FB50D46FB
:1035000004464169B0F9080081B1A16971B1FFF7C2
:10351000D8FFD4E905128DE80700D4E900102B4646
:10352000226900F014FD039004B070BDFFF7C9FFDD
:1035300003A9CDE90001208A2B4682B2D4E900100C
:1035400000F0D8FC012801D00020EDE70398EBE75C
:103550002DE9F041184C0F46054666692068001DAC
:1035600000F040FA38B9206890F82C10012088400B
:10357000A1698143A161681C07D137B12168BDE809
:10358000F0410E48091D00F071BA20683544B5427B
:103590004560216805D2A068BDE8F041091D00F032
:1035A0004DBA6068091D00F049FA206B854200D2CF
:1035B0002563BDE8F081000030060020400D0020AA
:1035C0002DE9F041054600F05DFA2E4C2069401CC3
:1035D000206120682C4F10B1E06940B32DE02560D8
:1035E0002069012829D1002606EB860007EB800020
:1035F00000F016FA761C072EF6D323488C3000F024
:103600000FFA2148A03000F00BFA1F48B43000F048
:1036100007FA1D48C83000F003FA1B48DC3000F000
:10362000FFF919488C3060601430A06005E0206814
:10363000E96AC06A884200D82560E06A401CE062FE
:10364000E96A0120A26988401043A06101EB810072
:1036500007EB8000291D00F009FA00F033FAE06959
:1036600000280CD02068E96AC06A884207D207495E
:103670004FF080500860BFF34F8FBFF36F8FBDE8EE
:10368000F081000030060020640C002004ED00E012
:1036900010B5044690F8510058B101280CD002280A
:1036A0000FD0502080F31188BFF34F8FBFF36F8F7F
:1036B000FEE7206B00F01AFA2046BDE8104000F04B
:1036C00015BA10BD0F4843F69821420705D0C01D1A
:1036D0000C4A20F00700821A891A0B4A0023014481
:1036E000C2E900030839103A21F0070111604B606C
:1036F0000B600B1AC0E9001393604FF00040536059
:10370000D0607047540D00207C060020144E154CEC
:10371000A6F1C8074FF08058DFF84C9012E000BFC8
:1037200000F0B0F9F068C568281D00F05BF9206969
:10373000401E2061E068401EE06000F0C3F92846AA
:10374000FFF7A6FFE0680028EAD138680128F9D918
:10375000C9F80080BFF34F8FBFF36F8FF2E700000F
:103760002C0D00203006002004ED00E02DE9F0478C
:103770009A46DDE9098481466FF00303206B03EB71
:1037800082021044089D20F00706700707D05020E1
:1037900080F31188BFF34F8FBFF36F8FFEE72318BD
:1037A0000A5C83F834200A5C12B1401C1028F6D35E
:1037B000002784F84370072D00D30625E562C4E98D
:1037C0001157201D00F037F904F1180000F033F90B
:1037D0002461C5F107006462A061E76484F8507059
:1037E00052464946304600F0D9F82060B8F1000F43
:1037F00001D0C8F80040BDE8F087000030B511499D
:1038000000E011460A688242FBD34B685C18844290
:1038100003D1406818444860084643681C18944225
:1038200009D1084C103C2468A24209D052681A44BD
:1038300042600A6812680260814200D0086030BDB0
:103840000460F9E77C06002006484168096829B150
:103850004168C968C9684968016370474FF0FF3122
:10386000FAE700003006002008484068401C4FF08E
:10387000500080F3118804D0BFF34F8FBFF36F8FD8
:10388000FEE7BFF34F8FBFF36F8FFEE78406002084
:10389000002150B10A4B42699A420FD1806AA3F1CC
:1038A000280290420AD040B108E0502080F31188ED
:1038B000BFF34F8FBFF36F8FFEE7012108467047BC
:1038C000400D00202DE9F0410546002700F088FA60
:1038D000314E306808B9FFF7F5FEF06805424BD16C
:1038E000C5B3083568070ED005F00700C0F1080021
:1038F0000544680707D0502080F31188BFF34F8F2D
:10390000BFF36F8FFEE72DB37068854234D822482D
:10391000103001460C6801E020460C466168A9425F
:1039200002D221680029F7D131688C4224D007687F
:103930002168016060680837411B10290FD96019A0
:10394000420708D0502080F31188BFF34F8FBFF398
:103950006F8FFEE710E041606560FFF74FFF616821
:103960007068401A7060B268904200D2B060F0682F
:1039700001430020C4E9000100F078FB780707D07C
:10398000502080F31188BFF34F8FBFF36F8FFEE796
:103990003846BDE8F08100006C06002010B5031F1A
:1039A0004FF080741C601B1F21F001011960191F6A
:1039B000024B0B60143940380A6010BD69380008AA
:1039C0007CB50C46054669465220FEF757FD18B9EE
:1039D0002846FEF71EFD08B101207CBD04B1A047BA
:1039E00000207CBDD0E9013201699A60D0E9012351
:1039F0005A604A68824201D182684A6000220261AC
:103A00000868401E0860086870470000034B0360A8
:103A100003F154000860802010607047880800207F
:103A200000F108014FF0FF32C0E90112C1600161ED
:103A300000210160704700210161704730B50B68BB
:103A40005A1C02D000F1080202E0026904E022469A
:103A5000546825689D42FAD953684B6099608A6022
:103A6000516008610168491C016030BD42684A60CC
:103A700093688B6093685960916008610168491C84
:103A800001607047502080F31188BFF34F8FBFF360
:103A90006F8F0A494868401C486001280CD10848CB
:103AA000006810F0FF0F07D0502080F31188BFF39B
:103AB0004F8FBFF36F8FFEE7704700008406002032
:103AC00004ED00E00849486828B1401E486001D173
:103AD00080F311887047502080F31188BFF34F8F17
:103AE000BFF36F8FFEE700008406002070B500284A
:103AF00027D0144DA0F108046168E868014207D19D
:103B0000502080F31188BFF34F8FBFF36F8FFEE714
:103B100022683AB1502080F31188BFF34F8FBFF372
:103B20006F8FFEE78143616000F05AF96068696851
:103B3000084468602046FFF761FEBDE8704000F071
:103B400095BA70BD6C0600204FF0E02000210161A5
:103B5000816105494FF47A720968B1FBF2F1491E9F
:103B600041610721016170472C06002010B5FCF768
:103B700077FB114910280ED300F1E02090F8F003F4
:103B80000A78904207D2502080F31188BFF34F8FFC
:103B9000BFF36F8FFEE709480068896800F4E060B2
:103BA000884207D9502080F31188BFF34F8FBFF3AD
:103BB0006F8FFEE710BD0000840600200CED00E0D2
:103BC00010B5020014D00F48806B38B1502080F33C
:103BD0001188BFF34F8FBFF36F8FFEE700F000F93E
:103BE00000211046FFF7B4FC00F040FA002807D18E
:103BF00005494FF080500860BFF34F8FBFF36F8FC0
:103C000010BD00003006002004ED00E070B5054650
:103C1000FFF738FF254C05B92568281DFFF7E2FEA0
:103C200058B9E86A224A00EB800152F8211021B904
:103C300001218140A0698843A061A86A18B105F1FB
:103C40001800FFF7CFFEE06A401CE0622068854262
:103C500008D11748291DC830FFF708FFE068401C4D
:103C6000E06007E02069401E20612846FFF710FD54
:103C7000FFF7EAFDFFF726FFE069002814D020686F
:103C8000854211D1A06B38B1502080F31188BFF369
:103C90004F8FBFF36F8FFEE706494FF080500860EB
:103CA000BFF34F8FBFF36F8F70BD00003006002051
:103CB000640C002004ED00E010B586B000240394ED
:103CC00005AA04A903A80494FFF7A0FEDDE90301F7
:103CD0000094CDE9011000230EA11048059A00F0D0
:103CE00036F90F490028486311D0502080F311881D
:103CF000BFF34F8FBFF36F8F4FF0FF30086301208A
:103D0000C8614C6106B0BDE8104000F09FB806B035
:103D100010BD000049444C45000000000D3700086C
:103D20003006002070B50446FFF7ACFE294D04B9FB
:103D30002C68201DFFF756FE58B9E06A264A00EBB2
:103D4000800152F8211021B901218140A8698843DE
:103D5000A861A06A18B104F11800FFF743FE1E48DD
:103D6000211DDC30FFF782FE94F850000026012868
:103D700001D184F85060FFF7A5FEE86928B1FFF78C
:103D800081FEFFF761FDFFF79DFE2868844213D195
:103D9000E86990B1A86B38B1502080F31188BFF367
:103DA0004F8FBFF36F8FFEE70C494FF080500860D4
:103DB000BFF34F8FBFF36F8F70BD0748DC300068D3
:103DC0002969884201D12E6070BDBDE8704000F0C5
:103DD0000FB8000030060020640C002004ED00E065
:103DE0000248816B491C8163704700003006002047
:103DF0001448816B11B10121416270470021416279
:103E00008169B1FA81F1C1F11F0101EB81020E4913
:103E100051F822306BB101EB820101F108034A68CD
:103E200052684A609A4201D152684A60D168016082
:103E30007047502080F31188BFF34F8FBFF36F8F0F
:103E4000FEE7000030060020640C00201CB5264967
:103E500008780190FF20087008788DF800009DF820
:103E600000009DF8002000F0F000904207D05020A4
:103E700080F31188BFF34F8FBFF36F8FFEE79DF87C
:103E800000001A4B00F0500018700720986005E001
:103E90009DF8002052008DF80020401E9DF8002063
:103EA0001206F5D49860032807D0502080F31188BB
:103EB000BFF34F8FBFF36F8FFEE74FF440709860F2
:103EC000019808700A48016841F4700101600168B6
:103ED00041F070410160FFF737FE00205860FCF7A9
:103EE00089F900201CBD000000E400E084060020E9
:103EF00020ED00E02DE9FF5F8346DDE90E8799465E
:103F000016468A469000FFF7DDFC05001CD05420C1
:103F1000FFF7D8FC040014D00020256384F851007A
:103F2000CDE90240CDE900874B463246514658461E
:103F3000FFF71CFC2046FFF743FB012004B0BDE85F
:103F4000F09F2846FFF7D2FD4FF0FF30F6E7F0B5BF
:103F500085B0DDE90B640A9DA6B1DCB1542700975A
:103F60002663022684F85160002604AFCDE902469C
:103F7000CDE90057FFF7FAFB2046FFF721FB049835
:103F800005B0F0BD502080F31188BFF34F8FBFF311
:103F90006F8FFEE7502080F31188BFF34F8FBFF380
:103FA0006F8FFEE72DE9F0412E4C0027A06B40B14A
:103FB000206A401C2062606A00B101273846BDE8D3
:103FC000F0816669761C666113D16068006838B15B
:103FD000502080F31188BFF34F8FBFF36F8FFEE740
:103FE0006068A1686160A060A06A401CA062FFF7E1
:103FF0002BFC206BDFF87080864209D36068006874
:1040000080B16068C068C568686886420DD2206368
:104010002068C06A00EB800158F821000128CAD945
:104020000127C8E74FF0FF30F1E7281DFFF7DAFC62
:10403000A86A18B105F11800FFF7D4FCE86A01215D
:10404000A26981401143A16100EB800108EB81006E
:10405000291DFFF70BFDE86A2168C96A8842CDD3A4
:104060000127CBE730060020640C00202DE9F04743
:104070002C4D00242746A86B38B1FFF703FDA86B31
:10408000401EA863A86B40B146E0502080F3118821
:10409000BFF34F8FBFF36F8FFEE72969224E0120D8
:1040A000D1B3A6F1B40980463068E8B1F068C468BD
:1040B00004F11800FFF796FC201DFFF793FCE06A5F
:1040C000AA6908FA00F11143A96100EB800109EB2C
:1040D0008100211DFFF7CAFCE06A2968C96A88428D
:1040E000E2D3C5F82480DFE70CB1FFF7ADFB2C6A03
:1040F00044B14646FFF756FF00B16E62641EF9D127
:1041000000202862686A38B108490127380708602A
:10411000BFF34F8FBFF36F8FFFF7D4FC3846BDE876
:10412000F087000030060020180D002004ED00E0AC
:104130002DE9F0410027040015D0FFF717FD5020AE
:10414000EFF3118580F31188BFF34F8FBFF36F8FAB
:104150002046FFF79DFB30B3154EB06B58B104F10C
:10416000180114481DE0502080F31188BFF34F8FD1
:10417000BFF36F8FFEE7E06A3168C96A884200D3F7
:104180000127201DFFF72EFCE16A0120B26988405B
:104190001043B06101EB81000649B43901EB8000A6
:1041A000211DFFF763FC85F311883846BDE8F081D7
:1041B00030060020180D00204C430008D5270008C9
:1041C000FDFF000000000000800000000000000073
:1041D000000000007C430008552600080200000093
:1041E00000000000000200000000000000000000CD
:1041F00060430008092A00080000000000000000D9
:10420000000400000000000000000000404300081F
:1042100005280008FFFF0000000000000004000067
:1042200000000000000000006C430008A527000803
:10423000FEFF000000000000800000000000000001
:104240000000000041542B43495053454E443D006B
:104250000000000000000000010202030405060740
:1042600008090A0B0C0D0E0F1010000000000000D2
:104270000000010203040607080900000000010213
:104280000304000041542B43574A41503D227573AB
:10429000625F6C61625F322E3447222C227573623A
:1042A0006C616277696669220D0A000041542B49EE
:1042B00050523D3131353230300D0A0041542B43DC
:1042C00049504D4F44453D300D0A000041542B43A9
:1042D00057444843503D312C310D0A0041542B4383
:1042E000574D4F44453D310D0A00000041542B43CA
:1042F000495053544152543D22544350222C2231B0
:1043000039322E3136382E312E3237222C3837368C
:10431000340D0A0041542B43495053454E443D3916
:104320000D0A000041542B434950434C4F53450D57
:104330000A00000041542B43575141500D0A000020
:104340005461736B55617274320000005461736B79
:1043500053746174654C45440000000030324500E0
:104360005461736B57694669000000005461736BB8
:104370004C6967687453696E67616C005461736B54
:10438000496E697400000000A84300080000002086
:104390009006000028010008C04500089006002093
:1043A000C0470000840100081163806632405A1043
:1043B0000C3220091618C143140814010A0A190303
:1043C000022A011938192E5931D9383A44013114C9
:1043D000221741C33236320732DB5ADD0829105A20
:1043E0007D425A6D0432935A831869049ABB286936
:1043F000142924A938690429149AED04DAFD5029F6
:10440000245A0B289AEF042910DAFF68291032BFCA
:104410005A7F105A8150693CDAD79C2928A904296F
:104420001432FB5AE708291029045AF7405ADF10C2
:10443000E9F069DCA9C89AF328325D32BD9A4328B5
:1044400032CD32AD32735AB3E869045A9BB869BCB5
:10445000690C29D0A9B029109AC1F429082910693A
:10446000289A8F2832395AD7C8290829105AF110AA
:104470005A1F0829105A3DB0298832755A79589A1E
:1044800057045A0F98326F5A7704296C290469101F
:1044900029042938A914293029382914A9505ACFB8
:1044A0008032035AEDEC5AFB14A9285A8740291888
:1044B0005AF704298C5AFF5C5A05F02910297C29E7
:1044C0000C29785A8514293C32DF5AAF182914294F
:1044D000045A7D1C693C9A075C69082914E978E94B
:1044E000F0291029289AD70429342904A914292449
:1044F000E950290C29C4A9F029C432FB32815A7B26
:10450000A029145A870C6910294C9AC7F429082944
:104510001069285A9F08291029A832AF5ADF0829A4
:104520001032E79A5F0469285A37885A6710328335
:10453000325D326D5A75105AFF9C5A016429109AE7
:104540003B282904327332BB9A7D14329332CF3226
:10455000D75ADB4029945AB15C69045A8D909A6B02
:104560003C29D032FD321D32ED32F55AF95469241E
:1045700069649AF31032AD5AC3A42904297C690CEA
:10458000091204233A2D03120D0A13AC4214082415
:10459000431B0834041ADC0C1A84041ACC041AECE9
:1045A000041ABC041A14181A5C0401288530334517
:1045B0003A32018210035924F41AAA014100000082
:04000005080000ED02
:00000001FF
