:020000040000FA
:1000000018030020C100000051040000410400005A
:10001000FFFFFFFFFFFFFFFFFFFFFFFFFFFFFFFFF0
:10002000FFFFFFFFFFFFFFFFFFFFFFFF5504000083
:10003000FFFFFFFFFFFFFFFF530400005704000016
:1000400035010000350100003501000035010000D8
:1000500035010000350100003501000035010000C8
:1000600035010000FFFFFFFF3501000035010000F2
:10007000350100003501000035010000FFFFFFFFE2
:10008000FFFFFFFF350100003501000035010000D2
:100090003501000035010000350100003501000088
:1000A0006905000035010000350100003501000040
:1000B0003501000035010000350100003501000068
:1000C0001D4880471D4880471D4800471D4801695D
:1000D000002908D14169002905D18169002902D18F
:1000E000C169002909D01848C1680901090D002912
:1000F0000ED005290CD006290AD0BFF34F8F134824
:100100001349016013491248C860BFF34F8FFEE7DF
:100110000E4801680E48884200D070470E480F49CB
:1001200001600A480E4901607047FEE7FEE7FEE7FE
:10013000FEE7FEE7FEE70000CD00000059040000E6
:100140006501000000030840800108400000002015
:100150000400FA0500ED00E0008108400100000005
:10016000000000000348854600F038F800480047CA
:10017000490700001803002003460B439B0703D0E8
:1001800009E008C9121F08C0042AFAD203E00B785C
:100190000370401C491C521EF9D2704770B50446CA
:1001A000002903D000202022012310E0002801D0E4
:1001B0000020C043C046C0460DE02546D5408D42D4
:1001C00005D30D469540641B1D46954040191546C4
:1001D000521E002DF1DC214670BD0000064C0125A9
:1001E000064E05E0E36807CC2B430C3C98471034DF
:1001F000B442F7D3FFF7BAFF800800009008000070
:10020000F0B582B001920A46C000164BC018002417
:100210000AE00168B14321430160009C2146083196
:10022000001D002C0C461AD11346E3401B06F5D0E6
:1002300001250094A54000273C463E463B4603E08E
:100240003F1D5B1C202FE4D01146D9402942F7D036
:100250000199B9400C430F21B9400E43F0E702B0B9
:10026000F0BDC0462020024070B541098900234BF3
:10027000C9180A6AD9691C46183C24681F24072536
:100280000D405E68194614390968890501D40021BA
:100290000DE01B49002E0AD41E687601360F01D0EE
:1002A000714300E017491E687602B60FF140044022
:1002B0006D1E062D0AD8C0467D442D796D00AF44D1
:1002C0000C03030505070A000D4906E0002104E0C0
:1002D0000121C90301E07D2109029D681B690323F7
:1002E000A3401A40E2402E2800D1921C052D00D3D5
:1002F0000525E940D140084670BDC0461880084039
:1003000000127A000020A10770B50C4C2568002B64
:1003100001D0054300E08543A668E0682560002B16
:1003200001D00E4300E08E43A660002B02D01043A4
:10033000E06070BD9043E06070BDC046248008401E
:10034000002A03D002680A430260704702688A43A9
:100350000260704770B500252C462B4603E0AD1CAB
:100360004908202D08D0CE07F9D00326AE403443EB
:100370001646AE403343F2E74169A143416141690A
:100380001943416170BD012A07D0002A0BD1826850
:100390000A4382600C30C9430AE0C2680A43C26063
:1003A0000830C94304E082688A4382600C30C94344
:1003B00002680A400260704770B582B0064668461F
:1003C0000022828000921A498D5D012444550178F3
:1003D00021404378DB079B0F59188378DB075B0FBD
:1003E000C918C078C007000F08180004A1032346ED
:1003F000FFF78AFF0F48825D70000F490E5A2846AA
:100400003146FFF7FDFEA8000C490D586E6202222E
:1004100028463146FFF7B7FF284631462246FFF708
:1004200099FF284631462246FFF78AFF02B070BD89
:1004300027080000240800002A0800000C0800001B
:10044000024801680029FCD07047C0460000002027
:100450007047704770477047F0B585B03D48102130
:10046000049101603C48012101603C4AD36A402468
:1004700003942343D3623A4B5C68272CFCD14C0293
:100480001D68AD0506D41C601D682542FBD001E047
:1004900000251D601D682542FAD100260660032054
:1004A0008302156A9D431562CB0215681D431560D2
:1004B00053681B07FCD51368019003430425AB4325
:1004C0001360136B07273B40032BFAD125480368C1
:1004D0000B4306250095AB4303600296D661136873
:1004E000A34313600D02131F186828431860880285
:1004F00016680643166050684007FCD5D06A039E14
:10050000B043D0621868A843186001980006506193
:1005100010682043106050688007FCD5114C20689B
:10052000022303430520834323600298D0611068AF
:100530000843009B98431060106B38400128FBD1A2
:100540002068049A10432060080321680143216059
:1005500005B0F0BD0C8108400083084004800840CD
:1005600004A1064000020840B0B59D4C2021204661
:1005700000F044F8002809D0204600F093F899498B
:100580000A68531C0B609049096888540221204670
:1005900000F039F800281CD08021204600F02EF809
:1005A000002816D08D4D2868002812D0894801688F
:1005B0004A1C02600978204600F077F82868401E3F
:1005C00028602868002804D102210022204600F07B
:1005D0005FF80421204600F016F800280DD0012510
:1005E0002902204600F00AF8002806D00421002243
:1005F000204600F04DF876480560B0BD006908401F
:10060000411E88417047C0680840411E88417047BC
:10061000B0B50C464168164A0A40E1881143A288E9
:100620000A432189114362890A4342601249884280
:1006300009DC0121890788420ED01149884216D170
:10064000114D1C200DE00D49884208D064498842B4
:100650000DD10E4D1A2004E0064D182001E0094D81
:100660001E20FFF701FE2168FFF798FD2860B0BD4E
:10067000FCE0FFFF24000040FFFF034000100440A7
:1006800000100040241004402410004024000440C6
:10069000002A03D0C2680A43C2607047C2688A4316
:1006A000C2607047006880B27047016070471023D5
:1006B0008B40002A03D0416819434160704741686C
:1006C0009943416070470000F0B583B001242004D5
:1006D0002121490200252A462346FFF715FE184826
:1006E000202631462A46FFF74EFE102106272846CF
:1006F0003A46FFF785FD284631463A46FFF780FD2A
:10070000029520020190E12040020090344E69469B
:100710003046FFF77DFF20060A4908603046214633
:100720002246FFF7B5FF304629462246FFF7BFFFB6
:10073000304621462246FFF7BAFF03B0F0BDC0465F
:1007400000000B4000E100E082B000242046FFF7EB
:1007500033FE01263046FFF72FFE1B481B49016080
:10076000FFF7B2FF1A4D01942C601A491A4808602D
:100770001A4F4C2038601A4806213246FFF788FF8E
:1007800038680028FCD128680028FCD01549164C90
:10079000019D0CE00E4805600E4804603760374646
:1007A000062101220E48FFF773FF0E490D6008680D
:1007B0000528FCD33E460F68002FEBD020460349A6
:1007C0003A46FFF7D9FCE5E70C01002008000020BD
:1007D0000400002014010020300800001001002057
:1007E00000000440080100208800002002E008C842
:1007F000121F08C1002AFAD170477047002001E09B
:1008000001C1121F002AFBD17047000000000B40FD
:1008100000200B4000400B4000600B400000000037
:1008200000000000010101020202004000800200FD
:1008300048656C6C6F2C207468697320697320554F
:10084000534152542054782F527820696E74657247
:1008500072757074206578616D706C652E20506CB7
:100860006561736520656E7465722035206368610B
:10087000726163746572732E2E2E0D0A00000000E3
:10088000900800000000002018030000FC07000092
:04000005000000C136
:00000001FF
