:020000040000FA
:1000000070090020C10000002506000069050000FD
:10001000FFFFFFFFFFFFFFFFFFFFFFFFFFFFFFFFF0
:10002000FFFFFFFFFFFFFFFFFFFFFFFF1D0B0000B4
:10003000FFFFFFFFFFFFFFFF3D060000850D0000F3
:1000400035010000350100003501000035010000D8
:1000500035010000350100003501000035010000C8
:1000600035010000FFFFFFFF3501000035010000F2
:10007000350100003501000035010000FFFFFFFFE2
:10008000FFFFFFFFF1020000350100003501000015
:100090003501000035010000350100003D10000071
:1000A0000D1100009D0E00004D0F000035010000F5
:1000B0003501000035010000350100003501000068
:1000C0001D4880471D4880471D4800471D4801695D
:1000D000002908D14169002905D18169002902D18F
:1000E000C169002909D01848C1680901090D002912
:1000F0000ED005290CD006290AD0BFF34F8F134824
:100100001349016013491248C860BFF34F8FFEE7DF
:100110000E4801680E48884200D070470E480F49CB
:1001200001600A480E4901607047FEE7FEE7FEE7FE
:10013000FEE7FEE7FEE70000CD0000008D0D0000A9
:100140006501000000030840800108400000002015
:100150000400FA0500ED00E0008108400100000005
:10016000000000000448854600F084F8004800477D
:1001700095160000C046C0467009002030B50B46F9
:10018000014600202022012409E00D46D5409D4271
:1001900005D31D469540491B2546954040191546F7
:1001A000521E002DF1DC30BDD2B201E00270401CC5
:1001B000491EFBD270470022F6E710B513460A46E7
:1001C00004461946FFF7F0FF204610BD421E537843
:1001D000521C002BFBD10B781370491C521C002BB6
:1001E000F9D1704730B505462A460B4610781C7881
:1001F000521C5B1C002801D0A042F7D0002C03D079
:10020000002802D06D1CEFE7284630BD421C017863
:10021000401C0029FBD1801A704703460A780270FF
:10022000401C491C002AF9D11846704770B5104D82
:10023000002800D12868002414E00A4602E09E420B
:1002400003D0521C1378002BF9D1DAB2224307D025
:10025000002B06D0002C04D000210170401C04E0CB
:100260000446401C0678002EE7D12860204670BD69
:1002700090000020064C0125064E05E0E36807CCFF
:100280002B430C3C98471034B442F7D3FFF76EFF72
:100290002C1E00004C1E0000F0B596460A4613497D
:1002A000C000461800230025FF2098402C4610422D
:1002B00016D00020012199408C461146C140674666
:1002C000394206D087000F21B9400D437146B9402D
:1002D0000C43401C0828F0D33068A843204330600A
:1002E0000833361D082BDEDDF0BD00002020024063
:1002F00010B500F041F9024800F004F810BD00000C
:10030000006007404168490849004160BFF34F8FD2
:10031000704704220029016801D0114300E0914395
:10032000016070470029016802D00122114301E0F9
:100330004908490001607047C1607047816070479B
:1003400070B5184D0446686B4607760F00F02EF81E
:1003500015492060330001F013F90814050707144C
:10036000140E1114606000E06160296A606805295C
:1003700009D3400908E00120C003F3E77D20000213
:10038000F0E70020EEE7C840A060A96A4903490FE2
:10039000072902D0C840E06070BD0321FFF7EEFEE0
:1003A000F9E700000080084000127A000C49086854
:1003B000C869C20F4868400AC007C00F0ED009487C
:1003C000002A0BD18869C00D0007000F00D1102052
:1003D0008969044A4902890F5043C84070470000A8
:1003E0000080084000127A001FB541090A4A8900BE
:1003F0008A1800212E2800D10221C006C00E1268E2
:10040000032383401A40C24054186846FFF798FF00
:10041000029804B0E04010BD38800840F0B5084FA5
:100420007C6AFD6A3E6B84438D439643002B02D069
:1004300004430D4316437C62FD623E63F0BD000041
:100440000080084010B50A4A0128116801D101292D
:1004500001D0002010BD0020064910600860064948
:10046000086064210548FFF7A6FE012010BD0000CA
:1004700084000020800000206C0000207C0500200B
:10048000002A026801D00A4300E08A4302607047F4
:10049000F0B5002425462346CE0706D05E00174659
:1004A000B7403C430327B7403D4349085B1C102B32
:1004B000F2D34169A9434161416921434161F0BDE2
:1004C000002A08D0012A09D082688A438260C26863
:1004D0008A43C260704782680A43F7E7C2680A43EA
:1004E000C26082688A4382607047002A01D04162FC
:1004F0007047816270470000F8B5054613481349FC
:10050000465D680010310C5A08460D38475DB00052
:100510000C3108580090304601F004F83A46214664
:100520003046FFF7B9FE284600F012F821460222B5
:100530000098FFF7C5FF214601220098FFF7A8FFAA
:10054000214601220098FFF79BFFF8BD9C1D00008B
:10055000044A4100515A103A105C80001C32105875
:1005600041627047AC1D0000024841690029FCD07F
:100570007047000064000020FEB523492348FFF7C0
:100580004CFE23A12148FFF751FE224CE063206C72
:100590001FA1401C20640020FFF748FEE063216C8F
:1005A000032903D101466846FFF737FEE06B0028B8
:1005B000EDD1684601F038FA01B26065618004202F
:1005C000205E0025081A801C052811D241221248FD
:1005D000D14207DC01224021FFF787FF0120606143
:1005E000606405E000224021FFF77FFF65616564DC
:1005F0006088A0800948256405700948C821056005
:100600000148FFF7D8FDFEBDE0050020EC03002007
:100610002C0000000000002000000B4066000020BD
:100620007000002070470000C106C90E01208840FC
:10063000014908607047000000E100E070470000D9
:10064000F8B500F093F97D26F600304600F0C3FFC0
:10065000C04DC149E87800F0E2FFBF490846C83004
:10066000FFF7B4FDBD4CBC48216BC830FFF7AEFDB1
:100670002879B94900F0D3FFB7490846C830FFF7D9
:10068000A5FDB548216BC830FFF7A0FD6879B249D8
:1006900000F0C5FFB0490846C830FFF797FDAE48E7
:1006A000216BC830FFF792FDA879AB4900F0B7FF86
:1006B000A9490846C830FFF789FDA748216BC83013
:1006C000FFF784FDE879A44900F0A9FFA249084694
:1006D000C830FFF77BFDA048216BC830FFF776FDDF
:1006E000287A9D4900F09BFF9B490846C830FFF7D8
:1006F0006DFD9948216BC830FFF768FD687A96490F
:1007000000F08DFF94490846C830FFF75FFD92481E
:10071000216BC830FFF75AFDA87A8F4900F07FFFA0
:100720008D490846C830FFF751FD8B48216BC83012
:10073000FFF74CFDE87A884900F071FF86490846CA
:10074000C830FFF743FD8448216BC830FFF73EFDFA
:10075000287B814900F063FF7F490846C830FFF7D6
:1007600035FD7D48216BC830FFF730FD687B7A4945
:1007700000F055FF78490846C830FFF727FD764856
:10078000216BC830FFF722FDA87B734900F047FFBB
:1007900071490846C830FFF719FD6F48216BC83012
:1007A000FFF714FD0121606989026D4F00287DD19A
:1007B000687BAA7B000280186A4A904276D30122A5
:1007C0003846FFF792FE0122D1023846FFF78DFE30
:1007D0000122012109033846FFF787FE00F084F962
:1007E00000F0EAF8304600F0F6FEE8785A4900F0EA
:1007F00016FF59490846C830FFF7E8FC5648216BF8
:10080000C830FFF7E3FC2879534900F008FF52494C
:100810000846C830FFF7DAFC4F48216BC830FFF7B5
:10082000D5FC00F061F900F0EDF8304600F0D3FEA1
:10083000E878494900F0F3FE47490846C830FFF719
:10084000C5FC4548216BC830FFF7C0FC28794249F8
:1008500000F0E5FE40490846C830FFF7B7FC3E48C7
:10086000216BC830FFF7B2FC00F03EF900F0F0F861
:10087000304600F0B0FEE878374900F0D0FE364947
:100880000846C830FFF7A2FC3348216BC830FFF799
:100890009DFC2879304900F0C2FE2F490846C83037
:1008A000FFF794FC2C48216BC83000E02CE0FFF7E8
:1008B0008DFC00F019F900F0F1F8304600F08BFEE5
:1008C000E878254900F0ABFE23490846C830FFF719
:1008D0007DFC2148216BC830FFF778FC28791E4940
:1008E00000F09DFE1C490846C830FFF76FFCE87811
:1008F000297900024218FF2301212D3389031A4868
:100900009A420DD801220CE000223846FFF7EDFD97
:1009100001210022C9023846FFF7E7FD002258E70F
:100920000022FFF7E2FD0C48216BC830FFF74EFCB8
:100930000948616BC830FFF749FC0748216BC83094
:10094000FFF744FC0448616BC830FFF73FFC00F040
:10095000CBF8F8BDB40400205C01002000000020AA
:1009600000400B401566000000000B4010B5114C14
:100970000121204600F0AEFC0321204600F0AAFC35
:100980000021204600F0A6FC0021204600F0A2FC39
:100990000021204600F09EFC0721204600F09AFC32
:1009A0000421204600F096FC0821204600F092FC2D
:1009B00010BD00000000044010B5114C022120467B
:1009C00000F088FC0321204600F084FC0121204631
:1009D00000F080FCF521204600F07CFC0021204640
:1009E00000F078FC0121204600F074FC952120469F
:1009F00000F070FCF721204600F06CFC10BD0000F8
:100A00000000044010B5114C0221204600F062FCA9
:100A10000321204600F05EFC0121204600F05AFC34
:100A2000F621204600F056FC0021204600F052FC42
:100A30000121204600F04EFC6521204600F04AFCD2
:100A4000F721204600F046FC10BD000000000440E5
:100A500010B5114C0221204600F03CFC0321204639
:100A600000F038FC0221204600F034FC0121204631
:100A700000F030FC0021204600F02CFC0121204633
:100A800000F028FCD421204600F024FC412120461F
:100A900000F020FC10BD00000000044010B5114C17
:100AA0000321204600F016FC0321204600F012FC32
:100AB0000021204600F00EFC2A21204600F00AFC0E
:100AC0000021204600F006FC0121204600F002FC37
:100AD000A421204600F0FEFB2021204600F0FAFB76
:100AE00010BD00000000044010B50549002008704A
:100AF00004490860C8210448FFF75DFB10BD0000F1
:100B00006400002068000020B40400200121C2B26B
:100B100089070A600A69D205FCD570477047000052
:100B200010B505490020087004490860C821044830
:100B3000FFF741FB10BD000067000020740000209B
:100B4000A806002070B501F0A1F87D26F600304619
:100B500000F041FD884C8949E07800F060FD87494C
:100B60000846C830FFF732FB854D8448296BC830F2
:100B7000FFF72CFB2079814900F051FD7F490846A1
:100B8000C830FFF723FB7D48296BC830FFF71EFBF9
:100B9000FFF7C6FF00F096FF304600F01CFDE0783E
:100BA000764900F03CFD75490846C830FFF70EFB5A
:100BB0007248296BC830FFF709FB20796F4900F0B4
:100BC0002EFD6E490846C830FFF700FB6B48296BC5
:100BD000C830FFF7FBFAFFF7A3FF00F0BFFF304676
:100BE00000F0F9FCE078654900F019FD634908461A
:100BF000C830FFF7EBFA6148296BC830FFF7E6FA17
:100C000020795E4900F00BFD5C490846C830FFF7CB
:100C1000DDFA5A48296BC830FFF7D8FAFFF780FF92
:100C200000F076FF304600F0D6FC6079534900F0C2
:100C3000F6FC52490846C830FFF7C8FA4F48296BFE
:100C4000C830FFF7C3FAA0794C4900F0E8FC4B49E3
:100C50000846C830FFF7BAFA4848296BC830FFF792
:100C6000B5FAFFF75DFF00F007FF304600F0B3FC78
:100C7000E079424900F0D3FC40490846C830FFF70C
:100C8000A5FA3E48296BC830FFF7A0FA207A3B4905
:100C900000F0C5FC39490846C830FFF797FA3748D5
:100CA000296BC830FFF792FAFFF73AFF00F0C8FF50
:100CB000304600F090FCE078304900F0B0FC2F495D
:100CC0000846C830FFF782FA2C48296BC830FFF776
:100CD0007DFA2079294900F0A2FC28490846C8304D
:100CE000FFF774FA2548296BC830FFF76FFAFFF752
:100CF00017FF00F059FF304600F06DFC60791F4986
:100D000000F08DFC1D490846C830FFF75FFA1B480C
:100D1000296BC830FFF75AFAA079184900F07FFC18
:100D200016490846C830FFF751FA1448296BC830F5
:100D3000FFF74CFAFFF7F4FE00F05CFF304600F0DE
:100D40004AFCE0790D4900F06AFC0C490846C830BD
:100D5000FFF73CFA0948296BC830FFF737FA207AC9
:100D6000064900F05CFC05490846C830FFF72EFA3A
:100D7000FFF7D6FE70BD0000A80600205C01002031
:100D80000000002010B500F07FF810BDF0B5394923
:100D90001020C860384A012010603849086B40258F
:100DA000284308633648002344158668272EFCD163
:100DB00000E044604668B605FBD500E04360466845
:100DC000B605FBD41360486A03229202904348623E
:100DD00048680122D202104348608868C008C007F2
:100DE000FBD04868C008C000C01C4860486B400782
:100DF000400F0328FAD1234A1068C008C000401CE5
:100E000010600B624868A04348600868961530433C
:100E10000860486817153843486088688008C0072C
:100E2000FBD0086BA84308630868B0430860032040
:100E30000006886148682043486088684008C00709
:100E4000FBD01068C008C000801C10600B624868AE
:100E5000C008C000401C4860486B4007400F012894
:100E6000FAD1106810210843106010680902084385
:100E70001060F0BD008108400083084000800840F9
:100E800000A10640000208400348016D002902D07D
:100E9000016D491E016570470000002070B5254CAA
:100EA0002021204600F09AF9002809D0204600F0C1
:100EB000E9F9214A214B9070D1685854491CD160FE
:100EC00002212546204600F08EF900281CD0802102
:100ED000284600F083F9002816D0194C2068002815
:100EE00012D0184802681178521C0260284600F09F
:100EF000CCF92168491E21602068002804D1002215
:100F00000221284600F0B6F90421284600F06BF9CA
:100F100000280ED0FF210131284600F05FF900289B
:100F200007D000220421284600F0A4F90649012038
:100F3000086070BD0010004064000020E005002043
:100F400008000020480000201000002070B5254C4B
:100F50002021204600F042F9002809D0204600F068
:100F600091F9214A214BD07011695854491C1161E3
:100F700002212546204600F036F900281CD08021A9
:100F8000284600F02BF9002816D0194C20680028BC
:100F900012D0184802681178521C0260284600F0EE
:100FA00074F92168491E21602068002804D10022BC
:100FB0000221284600F05EF90421284600F013F9CA
:100FC00000280ED0FF210131284600F007F9002843
:100FD00007D000220421284600F04CF906490120E0
:100FE000086070BD0010044064000020A8060020C6
:100FF00008000020480000201000002070B50024E8
:1010000001260546B6070BE0295D304600F03DF9A4
:101010008021304600F0E2F80028F9D0641CE4B2E8
:101020002846FFF7F3F8A042EED870BD014610B590
:101030000120800700F029F910BD000070B52021C3
:101040004D06284600F0CAF80126002819D02021B4
:10105000284600F0C3F8274C2062284600F012F919
:101060006070254AA1685054491CA16023A1104614
:10107000FFF7B8F8A061002801D0E66101E0002088
:10108000E0610221284600F0AEF800281CD0802143
:10109000284600F0A3F8002816D0194C2068002834
:1010A00012D0184802681178521C0260284600F0DD
:1010B000ECF82068401E20602068002804D100223F
:1010C0000221284600F0D6F80421284600F08BF8CB
:1010D00000280DD0FF210131284600F07FF80028BC
:1010E00006D000220421284600F0C4F80648066015
:1010F00070BD0000640000207C0500204F4B000004
:1011000008000020480000201000002070B52B4C83
:101110002021204600F062F8002814D0204600F07C
:10112000B1F8274A1168274B1B685B18491C1160EE
:101130001870204600F0A6F8234A244B107051681E
:101140005854491C516002212546204600F04BF8B6
:1011500000281CD08021284600F040F8002816D036
:101160001B4C2068002812D01A4802681178521CC3
:101170000260284600F089F82168491E2160206835
:10118000002804D100220221284600F073F804212F
:10119000284600F028F800280ED0FF21013128460B
:1011A00000F01CF8002807D000220421284600F097
:1011B00061F809490120086070BD0000000004408A
:1011C0000C0000204C00002064000020B40400202B
:1011D000080000204800002010000020006908409E
:1011E00000D001207047C068084000D0012070473F
:1011F00070B504460D46C888898862680843298905
:10120000184B1A4011430843698908436060012064
:101210008007844206D11820FFF7E6F82968FEF718
:10122000ADFF60621048844206D11A20FFF7DCF857
:101230002968FEF7A3FF60620C48844206D11C2097
:10124000FFF7D2F82968FEF799FF606208488442E8
:1012500006D11E20FFF7C8F82968FEF78FFF6062ED
:1012600070BD0000FCE0FFFF0000044000100040E3
:1012700000100440002AC26801D00A4300E08A43FB
:10128000C2607047006880B27047016070471023E9
:101290008B404168002A01D0194300E09943416026
:1012A000704710B50446FFF7F0FF80212046FFF796
:1012B00095FF0028F9D010BD70B50D4606460024F4
:1012C00004E0304600F011F8641CE4B2295D002906
:1012D000F7D170BD10B50446FFF7D7FF8021204637
:1012E000FFF77CFF0028F9D010BD10B50446FFF7CA
:1012F000CCFF80212046FFF771FF0028F9D010BDF8
:10130000FEB500240320FF254F210004013509020A
:1013100001232246FFF782F8062210210020FEF763
:10132000BBFF062220210020FEF7B6FF0622042183
:101330000020FEF7B1FF062208210020FEF7ACFFD7
:10134000062204210120FEF7A7FF06220821012022
:10135000FEF7A2FF062210210120FEF79DFF0622C4
:1013600020210120FEF798FF4B26F60101946846E4
:10137000009602948580C480048144816946374880
:10138000FFF736FFE1277F02684600978580C4801B
:10139000048144816946A805FFF72AFF0097684643
:1013A0008580C48004812E4F448169463846FFF70A
:1013B0001FFF684600968580C48004814481294CC3
:1013C00069462046FFF714FF1820FFF72DF9172074
:1013D000FFF72AF91920FFF727F91A20FFF724F958
:1013E000012211461D48FFF745FF012211469007D3
:1013F000FFF740FF012211463846FFF73BFF01226D
:1014000011462046FFF736FF012200211348FFF75F
:101410003EFF012211461148FFF739FF012200214A
:101420009007FFF734FF012211469007FFF72FFFC7
:10143000012200213846FFF72AFF012211463846D3
:10144000FFF725FF012200212046FFF720FF0122A0
:1014500011462046FFF71BFFFEBD000000000440C0
:101460000010004000100440F8B5264C2648A16B3F
:10147000FEF7ACFE2448216BFEF7A8FEFFF7E0F86C
:101480007D27FF00384600F0A6F81F4E1FA0A66279
:10149000E062384600F09FF8A16AE06A00F072F955
:1014A0001D4D2868FEF7CEFF0028FAD0384600F020
:1014B00092F8C8211448FEF77EFE1348A16BFEF790
:1014C00085FE1148216BFEF781FEFFF73BFB384696
:1014D00000F081F811A0A662E062384600F07BF8C7
:1014E000A16AE06A00F04EF92868FEF7ABFF002819
:1014F000FAD0384600F06FF8C8210348FEF75BFECB
:10150000F8BD000000000020240200204D5154547A
:101510007465737400000000800000204D51545425
:1015200073756E001CB50022009201216B4601927A
:10153000195418784904C007C00B88435978C90763
:10154000890B08430121890488439978C907490B0D
:1015500008430121C9048843D9780123C907090B2D
:10156000084301218903FEF759FF1CBD10B5024A4B
:10157000024900F021F810BD171600008C00002071
:1015800030B47446641E2578641CAB4200D21D46FC
:10159000635D5B00E31830BC184702E008C8121F07
:1015A00008C1002AFAD170477047002001E001C14C
:1015B000121F002AFBD17047F8B516460F460446A5
:1015C000002503E03946B047641C6D1C20780028D4
:1015D000F8D12846F8BD38B5044600207D25ED0039
:1015E000009005E0284600F006F80098401C0090A6
:1015F000A042F7D338BD0CB500210B22009107E0C3
:1016000011460192491E0191FCD10099491C00919B
:101610008142F5D30CBD10B5FFF778FA10BD020971
:101620000A2A01DB373200E030320007000F0A706F
:101630000A2801DB373000E0303048707047000086
:1016400070B501240F20A4030022000401232146C9
:10165000FEF7E4FE0D4D012240212846FEF710FF63
:10166000012221462846FEF70BFF094C0122910278
:101670002046FEF705FF0122D1022046FEF700FFBB
:10168000012211032046FEF7FBFE70BD00000B4057
:1016900000400B4000252846FEF72EFF0120FEF7F4
:1016A0002BFF1A4A1848D064FFF72AFEFFF7C8FF3D
:1016B0007D24E4002046FFF78EFF00F02DF8204641
:1016C000FFF789FF01222946120401230846FEF78D
:1016D000A5FE1120FEF7A8FF0D4801680D4D284614
:1016E000FEF72AFE00212846FEF728FE01212846A3
:1016F000FEF718FE01212846FEF70BFEFFF7B4FEA9
:101700002046FFF768FFF9E76C0300200000002087
:10171000880000200060074010B510480CA18161CE
:101720000FA1C16111A1016214A1416200F0FEFA92
:101730007D24E4002046FFF74EFF00F0CDFA20465E
:10174000FFF749FF00F062F82046FFF744FF10BDA5
:101750004D656761486F75736500000000000020EB
:101760005553424C61623630330000007777772E54
:10177000636F6F6C6572642E6E6574003138383338
:101780000000000070B50A46014600231B4800F027
:1017900007F91B4C012620702146B6075831304608
:1017A000FFF78AFD20780A2806D30A21FEF7E6FC17
:1017B0003030C0B2FFF73AFC0A212078FEF7DEFC99
:1017C00008463030FFF732FC0EA0FFF7CFFE7D2039
:1017D000C000FFF700FF00206070084D06E0295CA4
:1017E0003046FFF75EFD6078401C60702178C0B223
:1017F0008842F4D30448FFF7EEFE70BD9400002049
:10180000000000200D0A0000B80B000070B51EA3F8
:101810001DA21DA11D4800F043F81D4C012620709B
:101820002146B60758313046FFF746FD20780A2892
:1018300006D30A21FEF7A2FC3030C0B2FFF7F6FB58
:101840000A212078FEF79AFC08463030FFF7EEFBBD
:1018500010A0FFF78BFE104D2868FEF7F3FD00285F
:10186000FAD000206070094D06E0295C3046FFF791
:1018700018FD6078401C60702178C0B28842F4D3B3
:101880000648FFF7A8FE70BD00000000940000208D
:10189000000000200D0A000080000020B80B0000AE
:1018A000FFB581B004460298FEF7B0FC86B20398FB
:1018B000FEF7ACFC85B20498FEF7A8FC31460E3169
:1018C00080B28AB2002D02D05119891C8AB2002838
:1018D00002D01118891C8AB210212170911E6170EA
:1018E00002217F2A02D90121A17003210022625422
:1018F0000423491C63544D22491C62545122491C43
:1019000062545422491C6254491C6254491C635459
:101910000222491C62543C22491C6254491C6254F4
:10192000320A491C6254491C66540022491C05E0D5
:10193000029B8F189B5C521CE35592B2B242F7D3C4
:10194000891989B2002D12D02A0A6254491C89B221
:101950006554491C8AB2002105E0039B56185B5C64
:10196000491CA35589B2A942F7D3511989B200285D
:1019700012D0020A6254491C89B26054491C8AB2CE
:10198000002105E0049B55185B5C491C635589B236
:101990008142F7D3101881B2084605B0F0BD0000AF
:1019A000FFB5044681B00E460846FEF72FFC85B20F
:1019B0000398FEF72BFC82B2302020700498002898
:1019C00002D0A818001D01E0A818801C6070280A29
:1019D000A0700421E570002004E0335C0F18401C67
:1019E000E35580B2A842F8D3481981B20498002880
:1019F0000AD00C4BD888050A6554491C89B260543A
:101A0000491C401C89B2D880002005E0039B0D18BA
:101A10001B5C401C635580B29042F7D3881880B29B
:101A200005B0F0BD0000002010B50021012300E04A
:101A3000401C0278202AFBD0D2B22D2A07D02B2AB4
:101A400007D0392A01D2302A05D8002010BD002342
:101A500000E00123401C0278002A08D0392A06D869
:101A6000302A04D30A24614330395118F2E7002B9D
:101A700000D14942084610BD10B5114C0121204645
:101A8000FFF728FC03212046FFF724FC0121204614
:101A9000FFF720FC06212046FFF71CFC0021204612
:101AA000FFF718FC03212046FFF714FCE421204631
:101AB000FFF710FC36212046FFF70CFC10BD00009C
:101AC0000010044010B5114C01212046FFF702FC24
:101AD00003212046FFF7FEFB01212046FFF7FAFB1A
:101AE00001212046FFF7F6FB00212046FFF7F2FB1D
:101AF00001212046FFF7EEFBD4212046FFF7EAFB49
:101B000036212046FFF7E6FB10BD00000010044020
:101B100010B5114C01212046FFF7DCFB03212046C4
:101B2000FFF7D8FB01212046FFF7D4FB0521204613
:101B3000FFF7D0FB00212046FFF7CCFB0321204616
:101B4000FFF7C8FB14212046FFF7C4FB36212046CF
:101B5000FFF7C0FB10BD00000010044010B5114C91
:101B600001212046FFF7B6FB03212046FFF7B2FB19
:101B700001212046FFF7AEFB04212046FFF7AAFB18
:101B800000212046FFF7A6FB03212046FFF7A2FB1A
:101B900045212046FFF79EFBF6212046FFF79AFBE2
:101BA00010BD00000010044010B5114C012120466A
:101BB000FFF790FB03212046FFF78CFB0121204615
:101BC000FFF788FB08212046FFF784FB0021204611
:101BD000FFF780FB03212046FFF77CFB8521204691
:101BE000FFF778FBF5212046FFF774FB10BD0000DE
:101BF0000010044010B5114C01212046FFF76AFB8C
:101C000003212046FFF766FB01212046FFF762FB18
:101C100009212046FFF75EFB00212046FFF75AFB13
:101C200003212046FFF756FBD4212046FFF752FB45
:101C300035212046FFF74EFB10BD00000010044088
:101C400010B5114C01212046FFF744FB032120462B
:101C5000FFF740FB01212046FFF73CFB0721204610
:101C6000FFF738FB00212046FFF734FB0321204615
:101C7000FFF730FBB5212046FFF72CFBF62120466D
:101C8000FFF728FB10BD00000010044010B5114CF8
:101C900001212046FFF71EFB03212046FFF71AFB18
:101CA00001212046FFF716FB00212046FFF712FB1B
:101CB00000212046FFF70EFB01212046FFF70AFB1B
:101CC00085212046FFF706FBF6212046FFF702FBA1
:101CD00010BD00000010044010B50BA0FFF78EF9F6
:101CE0000E4C206AFFF78AF90DA0FFF787F9606AAA
:101CF000FFF784F90BA0FFF781F90B4C2068FEF782
:101D0000A1FB0028FAD010BD41542B434950535435
:101D10004152543D22544350222C22000000002006
:101D2000222C00000D0A00008000002070B50FA0DA
:101D3000FFF764F9114C2068FEF784FB0028FAD005
:101D40000FA0FFF75BF9124DA869FFF757F911A033
:101D5000FFF754F9E869FFF751F90FA0FFF74EF9C3
:101D60002068FEF76FFB0028FAD070BD41542B436A
:101D7000574D4F44453D310D0A00000080000020C2
:101D800041542B43574A41505F4445463D22000091
:101D900000000020222C2200220D0A000202020173
:101DA00001010103030101010C0102000040008058
:101DB000020000100200040000000B4000200B4055
:101DC00000400B4000600B400000000000000000DD
:101DD00000000040000004000600000008000600AB
:101DE0002C00000030300000313838330000000093
:101DF00070617373776F72640000000074657374B0
:101E0000636F6465000000007777772E636F6F6CF7
:101E10006572642E6E6574004163636F756E740045
:101E20004D51545474657374000000004C1E000042
:101E300000000020940000009A150000E01E000041
:101E400094000020DC080000AA150000000000003B
:101E50000000000000000000000000000000000082
:101E600000000000181E0000F01D0000081E000009
:101E7000E81D0000241E0000201E0000E01D0000E0
:101E8000E41D0000FC1D0000000000000000000038
:101E90000000000000000000000000000000000042
:101EA0000000000041542B43495053454E443D002F
:101EB0000000000000000000000000000000000022
:101EC0000000000000000000000000000000000012
:101ED00000000000006CDC020000000000000000B8
:04000005000000C136
:00000001FF
