:020000040000FA
:1000000008020020C100000019020000F9010000F0
:10001000FFFFFFFFFFFFFFFFFFFFFFFFFFFFFFFFF0
:10002000FFFFFFFFFFFFFFFFFFFFFFFF1D020000BD
:10003000FFFFFFFFFFFFFFFF1B0200001F0200008A
:1000400035010000350100003501000035010000D8
:1000500035010000350100003501000035010000C8
:1000600035010000FFFFFFFF3501000035010000F2
:10007000350100003501000035010000FFFFFFFFE2
:10008000FFFFFFFF350100003501000035010000D2
:100090003501000035010000350100003501000088
:1000A0003501000035010000350100003501000078
:1000B0003501000035010000350100003501000068
:1000C0001D4880471D4880471D4800471D4801695D
:1000D000002908D14169002905D18169002902D18F
:1000E000C169002909D01848C1680901090D002912
:1000F0000ED005290CD006290AD0BFF34F8F134824
:100100001349016013491248C860BFF34F8FFEE7DF
:100110000E4801680E48884200D070470E480F49CB
:1001200001600A480E4901607047FEE7FEE7FEE7FE
:10013000FEE7FEE7FEE70000CD0000002102000020
:100140006501000000030840800108400000002015
:100150000400FA0500ED00E0008108400100000005
:10016000000000000348854600F006F800480047FC
:100170003104000008020020064C0125064E05E06F
:10018000E36807CC2B430C3C98471034B442F7D3B8
:10019000FFF7ECFFD0040000E004000070B50C4C49
:1001A0002568002B01D0054300E08543A668E06880
:1001B0002560002B01D00E4300E08E43A660002B8B
:1001C00002D01043E06070BD9043E06070BDC04657
:1001D00024800840002A03D002680A430260704766
:1001E00002688A4302607047002A02D024228150AC
:1001F000704728228150704706480168002908D1BD
:100200000168002905D10168002902D1016800298F
:10021000F3D0704700000020704770477047704768
:10022000F0B586B06948102103910160684801214A
:100230000160684AD36A402402942343D362664B28
:100240005C68272C08D05C68272C05D05C68272CBC
:1002500002D05C68272CF3D14C021D68AD050FD489
:100260001C601D6825420BD11C601D68254207D10A
:100270001C601D68254203D11C601D682542EFD01B
:100280001D6825420ED000251D601E68264209D03B
:100290001D601E68264205D01D601E68264201D0E2
:1002A0001D60EDE700230493036003208302156AB9
:1002B0009D431562CB0215681D43156053681B07EB
:1002C00008D453681B0705D453681B0702D453682E
:1002D0001B07F3D51368019003430425AB43136058
:1002E000136B07263340032B0BD0136B3340032BC8
:1002F00007D0136B3340032B03D0136B3340032B16
:10030000EED1364F3B680B430620009083433B60A1
:100310000498D0611368A34313600D02131F18687B
:1003200028431860059188021168014311605068E4
:10033000400708D45068400705D45068400702D4ED
:1003400050684007F3D5D06A02998843D062186894
:10035000A84318600198000650611068204310609F
:100360005068800708D45068800705D4506880071B
:1003700002D450688007F3D5386802210143052074
:10038000814339600498D061106805990843009949
:1003900088431060106B304001280BD0106B304048
:1003A000012807D0106B3040012803D0106B30407B
:1003B0000128EFD138680399084338600598000395
:1003C00039680143396006B0F0BDC0460C81084071
:1003D000008308400480084004A106400002084051
:1003E00070B50124A00400210A462346FFF7D6FE7B
:1003F000E5030E4E304629462246FFF7EBFE304617
:1004000029462246FFF7F0FE70BDC04680B50122A6
:10041000D1030648FFF7E8FE80BDC04680B5012045
:10042000C10302480022FFF7DFFE80BD00400B4001
:1004300082B0FFF7D5FF1D4CFFF7F0FF00250095B8
:100440000098A04215D20098401C00900098A0424D
:100450000FD20098401C00900098A04209D200984A
:10046000401C00900098A04203D20098401C0090CD
:10047000E6E7FFF7CBFF01950198A042DCD2019897
:10048000401C01900198A042D6D20198401C0190D6
:100490000198A042D0D20198401C01900198A0423E
:1004A000CAD20198401C0190E6E7C046404B4C0080
:1004B00002E008C8121F08C1002AFAD1704770472D
:1004C000002001E001C1121F002AFBD1704700008B
:1004D000E00400000000002008020000C00400004A
:04000005000000C136
:00000001FF
