:020000040800F2
:100000002049002029020008E717000861160008AF
:10001000E5170008EB050008651D0008000000005A
:100020000000000000000000000000009101000836
:10003000ED05000800000000D5010008391A00088D
:10004000430200084302000843020008430200087C
:10005000430200084302000843020008430200086C
:10006000430200084302000843020008430200085C
:10007000430200084302000843020008430200084C
:10008000430200084302000843020008430200083C
:10009000430200084302000843020008430200082C
:1000A00043020008C51A0008430200084302000882
:1000B000430200084302000843020008430200080C
:1000C00043020008430200084302000843020008FC
:1000D000430200084D1D0008591D00084302000896
:1000E00043020008430200084302000800F002F83F
:1000F00000F03FF80AA090E8000C82448344AAF183
:100100000107DA4501D100F034F8AFF2090EBAE880
:100110000F0013F0010F18BFFB1A43F0010318473B
:10012000102B0000302B0000103A24BF78C878C193
:10013000FAD8520724BF30C830C144BF04680C60ED
:10014000704700000023002400250026103A28BF35
:1001500078C1FBD8520728BF30C148BF0B60704739
:10016000642900F0C980002070471FB51FBD10B57D
:1001700010BD00F000FA1146FFF7F7FF01F003FE93
:1001800000F01EFA03B4FFF7F2FF03BC00F026FAFA
:10019000224B19680868B0E8F00F80F30988BFF3B4
:1001A0006F8F4FF0000080F311884EF00D0E7047F6
:1001B0000000000006480068006880F3088862B606
:1001C00061B6BFF34F8FBFF36F8F00DF00BF00BF7B
:1001D00008ED00E0EFF30980BFF36F8F0F4B1A6853
:1001E00020E9F00F106008B54FF0500080F311883F
:1001F000BFF34F8FBFF36F8F02F04EFA4FF0000046
:1002000080F31188BDE8084019680868B0E8F00F6D
:1002100080F30988BFF36F8F704700BF6C00002028
:10022000EFF3058070470000094880470948004700
:10023000FEE7FEE7FEE7FEE7FEE7FEE7FEE7FEE796
:10024000FEE7FEE704480549054A064B70470000F3
:10025000C31A0008ED0000082043002020490020B8
:1002600020450020204500200FB41CB5074B06AAEE
:100270007B4469460090059800F065F900206946C6
:1002800000F074F91CBC5DF814FB0000F9020000DA
:100290002DE9F0410E460446002020622046E16828
:1002A000884730B3252805D0D4E901219047206A3A
:1002B000401CF2E7E168204600278847050018D077
:1002C000A5F14100192802D820354FF400673246C5
:1002D000294620462760FFF743FF40B1012804D09C
:1002E000F61D26F007060836D8E7361DD6E728465D
:1002F000DAE7206ABDE8F0812DE9F04106460024E6
:1003000010687529314616A510D0AFF3008000287B
:1003100002DA404213A507E031688A0701D512A529
:1003200002E0490704D511A5012401E0AFF30080E4
:1003300000210A2206F1240709E0B0FBF2FCB0FB21
:10034000F2F302FB1C00303078541846491C002898
:10035000F3D123462A463046BDE8F04100F095B877
:10036000000000002D0000002B0000002000000015
:1003700010B5431E13F8014F002CFBD105E011F816
:10038000014B002C03F8014B03D0521EF7D2002181
:10039000197010BD10B5431C02E010F8011B71B1BB
:1003A0008107FAD14FF0013202C88C1A8C4314EA4B
:1003B000C211F9D0C01A0A0603D0C01E10BDC01A5F
:1003C00010BD0A0401D0801E10BD0902FCD0401EE1
:1003D00010BD10B5203AC0F00B80B1E81850203A9B
:1003E000A0E81850B1E81850A0E81850BFF4F5AFD5
:1003F0005FEA027C24BFB1E81850A0E8185044BF5F
:1004000018C918C0BDE810405FEA827C24BF51F8CB
:10041000043B40F8043B08BF7047D20728BF31F8BF
:10042000023B48BF11F8012B28BF20F8023B48BF10
:1004300000F8012B70474FF0000200B513469446B8
:100440009646203922BFA0E80C50A0E80C50B1F12C
:100450002001BFF4F7AF090728BFA0E80C5048BF40
:100460000CC05DF804EB890028BF40F8042B08BFDE
:10047000704748BF20F8022B11F0804F18BF00F8DA
:10048000012B70477047704770472DE9F0470D46C4
:1004900099469246044600F124080168880604D56E
:1004A000E06921F01001216000E00120A84201DD97
:1004B000471B00E00027A1697A1902EB0900081A1E
:1004C000A0612078C00602D42046AFF30080002649
:1004D00008E0D4E901211AF806009047206A401C80
:1004E000761C20624E45F4DB2078C0060AD52046F3
:1004F000AFF3008006E0D4E9012130209047206A64
:10050000401C2062381EA7F10107F4DC07E0D4E9A3
:10051000012118F805009047206A401C2062281E1F
:10052000A5F10105F3DC2046AFF30080207800063A
:1005300002D50220BDE8F0870120FBE701694A1CD3
:1005400002610878704700B58FB0CDE90131002114
:10055000059105497944CDE9031011466846FFF736
:1005600097FE0FB000BD0000E5FFFFFF0A6802F82C
:10057000010B0A607047754600F02CF8AE46050086
:100580006946534620F00700854618B020B5FFF7AE
:1005900059FEBDE820404FF000064FF000074FF035
:1005A00000084FF0000B21F00701AC46ACE8C00991
:1005B000ACE8C009ACE8C009ACE8C0098D4670479A
:1005C00010B50446AFF300802046BDE81040FFF7A9
:1005D000D9BD000000487047C042002001491820E2
:1005E000ABBEFEE7260002007047FEE7704772B61A
:1005F000FEE710B590F821100022022905D0042151
:10060000816380F82020012010BD01680B6823F071
:100610000E030B6001680B6823F001030B6090F878
:100620004030C46B012101FA03F3636080F82110AC
:1006300080F82020104610BD10B590F8211000243D
:10064000022903D00421816301243DE001680A6886
:1006500022F00E020A6001680A6822F001020A60B4
:100660001A4A0168914201D1012121E0174A14324E
:10067000914201D110211BE0144A2832914201D14C
:10068000891515E0114A3C32914201D189140FE0DD
:100690000E4A5032914202D14FF4803108E00B4AA9
:1006A0006432914202D14FF4801101E04FF0807129
:1006B000064A083A5160012180F82110002180F893
:1006C0002010416B01B18847204610BD0800024050
:1006D0002DE9F84FDFF8B8910024A9F1040B234667
:1006E0000F2709F1040AABF1040EC9E00125A5406A
:1006F0002A40AA427DD1674ED1F804C0ACEB06086F
:10070000B44532D014DCBCF1030F3AD009DCBCF1A3
:10071000000F2AD0BCF1010F1CD0BCF1020F31D167
:100720001DE0BCF1110F17D0BCF1120F2AD119E056
:10073000B8F5881F19D006DCB8F5803F15D0B8F59C
:10074000801F1FD111E0B8F5001F0ED0B8F5041FAF
:1007500018D10AE0CB6815E0CB681B1D12E0CB680E
:1007600008330FE0CB680C330CE08B682BB1012B06
:100770004FF0080303D0456104E0042302E0056163
:1007800000E00023FF2A01D8064601E000F104063C
:100790004FEA840501D9A5F12005D6F8008007FAB3
:1007A00005FC28EA0C0803FA05F548EA0508C6F82E
:1007B00000804D68ED0062D5374DAE6946F0010608
:1007C000AE61AD6924F0030605F001050095334DD7
:1007D00006EB050CDCF80850A607360F07FA06F8FA
:1007E00025EA0805DFF8B880404503D14FF000083E
:1007F00017E044E0DFF8AC80404502D14FF001083B
:100800000FE0DFF8A480404502D14FF0020808E075
:10081000DFF89880404502D14FF0030801E04FF027
:10082000040808FA06F848EA0508CCF808804D687C
:10083000D9F80060ED024D4601D5164300E096431D
:100840002E604D68DAF80060AD02554601D51643BA
:1008500000E096432E604D68DBF80060AD035D4616
:1008600001D5164300E096432E604D68DEF8006027
:10087000ED03754601D5164300E096432E60641CD7
:100880000D682A46E5407FF431AFBDE8F88F0000DF
:100890000804014000001110001002400000014057
:1008A00000080140000C014000100140001401400C
:1008B0000AB1016170470904FBE700000148806844
:1008C000704700005C0000200248816802781144F3
:1008D000816070475C000020074810B5016841F056
:1008E00010010160032000F0A1F80F2000F006F8CD
:1008F00000F04AF8002010BD0020024030B5054647
:100900001C4887B0816941F400618161806906A952
:1009100000F40060009001A800F030F900F05EF9EA
:100920001549164AB0FBF1F11548491E02604160B5
:1009300040F2E7320021C0E903218160816100F0CB
:1009400015FB040012D10E4800F03EFB04000DD14F
:10095000192000F03DF8102D07D200222946192059
:1009600000F044F80748056000E0012407B0204685
:1009700030BD00000010024040420F00002C01403A
:1009800058050020600000200F4808B5816941F03B
:1009900001018161816901F001010091C16941F0AA
:1009A0008051C161C069002200F0805000900F2189
:1009B000901E00F01BF80548416821F0E06141F00D
:1009C0000071416008BD00000010024000000140BD
:1009D000002809DB00F01F0201219140400980003E
:1009E00000F1E020C0F8001170470000F0B40E4B99
:1009F0001B680C46C3F30223C3F10705042D00D97D
:100A00000425191D072901D2002300E0DB1E012661
:100A100006FA05F1491E214099409E40761E164077
:100A20003143F0BC01F09FB90CED00E0064900F045
:100A3000070208684FF6FF03184040EA0220034A05
:100A400010430860704700000CED00E00000FA055C
:100A50002DE9F0470F46050061D0434E306800F0A5
:100A60000700B84209D2306820F0070038433060F0
:100A7000306800F00700B84251D128683B4C81072C
:100A800012D5400703D5606840F4E06060602878C4
:100A9000000703D5606840F4605060606068A96832
:100AA00020F0F000084360602878C00728D068680C
:100AB000012810D02168022810D0890700292EDAD9
:100AC000616821F0030101436160FFF7F7FE804692
:100AD00041F288390DE021688903EFE78901EDE7EC
:100AE000FFF7ECFEA0EB0801494502D90320BDE861
:100AF000F0876068696800F00C00B0EB810FEFD1FF
:100B0000306800F00700B8420BD9306820F00700C9
:100B100038433060306800F00700B84201D001204F
:100B2000E5E72878400705D56068E96820F4E060CB
:100B3000084360602878000706D56068296920F4BA
:100B4000605040EAC100606000F058F86168084AEF
:100B5000C1F30311515CC8400649086006480068AB
:100B6000FFF7CCFE0020C2E7002002400010024048
:100B7000122B000868000020600000200F22026095
:100B80000C4A536803F003034360536803F0F00317
:100B90008360536803F4E063C36052684FF4E0631A
:100BA00003EAD20202610448006800F0070008600E
:100BB0007047000000100240002002400448054930
:100BC00000684968044AC1F30221515CC84070477B
:100BD0006800002000100240222B0008044805494C
:100BE00000684968044AC1F3C221515CC84070479B
:100BF0006800002000100240222B00080E4A5168B5
:100C00000E4801F00C03042B11D0082B0FD10C4817
:100C1000C1F38343C903C05C0AD55168084AC1F3D4
:100C20004041921E515C054A5043B0FBF1F07047C1
:100C300004494843704700000010024000127A0047
:100C4000022B000800093D002DE9F84F040070D088
:100C50002078C04DC00749D06868C0F381000128E2
:100C600007D06868C0F38100022809D16868C00312
:100C700006D52868800339D560680028E7D035E0BC
:100C80006068B0F5803F0BD010B1B0F5A02F11D047
:100C9000286820F480302860286820F4802002E052
:100CA000286840F480302860606890B1FFF706FE45
:100CB00006460AE0286840F480202860F0E700BF7C
:100CC000FFF7FCFD801B642873D828688003F7D5E4
:100CD0000CE0FFF7F3FD064605E000BFFFF7EEFD71
:100CE000801B6428F0D828688003F7D420789A4EB7
:100CF00080074FF001094FF0000839D5686810F0FF
:100D00000C0F07D06868C0F38100022809D1686819
:100D1000C00306D42868800714D52069012808D1AB
:100D200010E02069B0B1C6F80090FFF7C7FD074694
:100D300005E00AE1FFF7C2FDC01B0228C4D82868FD
:100D40008007F7D52868616920F0F80040EAC10003
:100D500028600DE0C6F80080FFF7B0FD074604E00C
:100D6000FFF7ACFDC01B022823D828688007F7D402
:100D7000207800072CD57948A169D9B1C0F8009036
:100D8000FFF79CFD074604E0FFF798FDC01B022813
:100D90000FD8686A8007F7D571484FF4FA51006898
:100DA000B0FBF1F0009000BF0098411E0091FAD214
:100DB0000EE080E0C0F80080FFF780FD074604E009
:100DC000FFF77CFDC01B022875D8686A8007F7D43E
:100DD0002078400760D5E8690027C00008D4E8699A
:100DE00040F08050E861E869012700F080500090F1
:100DF0005C480168C90513D40168834641F48071D9
:100E00000160FFF75BFD824606E000BFFFF756FD7D
:100E1000A0EB0A0064284ED8DBF80000C005F5D529
:100E2000E06801280AD008B1052813D0286A20F00C
:100E300001002862286A20F0040002E0286A40F0DD
:100E400001002862E06841F2883B98B1FFF736FD67
:100E500082460BE0286A40F004002862EEE700BFFB
:100E6000FFF72CFDA0EB0A0159455AD8286A8007E4
:100E7000F6D50CE0FFF722FD824605E0FFF71EFDE8
:100E8000A0EB0A0159454CD8286A8007F6D41FB157
:100E9000E86920F08050E861E06988B36968C1F3CF
:100EA0008101022944D00228C6F8608004D0FFF7EF
:100EB00005FD044638E034E0FFF700FD074604E096
:100EC000FFF7FCFCC01B02282BD828688001F7D450
:100ED000206AB0F5803F05D16868A16820F4003031
:100EE00008436860D4E908010843696821F4741173
:100EF00008436860C6F86090FFF7E0FC044606E02F
:100F000025E000BFFFF7DAFC001B022809D828689B
:100F10008001F7D51BE000BFFFF7D0FC001B0228C3
:100F200002D90320BDE8F88F28688001F4D40EE0D0
:100F30000128F7D06868226A00F48031914204D118
:100F4000616A00F47010884201D00120EAE70020B5
:100F5000E8E70000001002400000424280044242E4
:100F600068000020007000407047704710B5040012
:100F700003D094F83D0010B107E0012010BD00201F
:100F800084F83C00204600F01EF8022084F83D0062
:100F9000211D206800F09CFD012084F8460084F8A3
:100FA0003E0084F83F0084F8400084F8410084F853
:100FB000420084F8430084F8440084F8450084F833
:100FC0003D00002010BD704790F83D10012901D070
:100FD00001207047022180F83D100168CA6842F084
:100FE0000102CA6000680B49884208D0B0F1804F06
:100FF00005D00949884202D00849884204D1816855
:1010000001F00701062903D0016841F001010160E8
:1010100000207047002C0140000400400008004000
:10102000704770B50446006801694FF00005C94378
:10103000890715D4C168C943890711D4E91E016124
:1010400001202077206880698007204602D0FFF7C2
:10105000E7FF04E000F098F8204600F096F82577C6
:1010600020680169C943490717D4C168C9434907C2
:1010700013D46FF004010161022020772068806999
:1010800010F4407F204602D0FFF7CAFF04E000F0D2
:101090007BF8204600F079F8257720680169C9437C
:1010A000090716D4C168C943090712D46FF00801B3
:1010B0000161042020772068C0698007204602D0A3
:1010C000FFF7AEFF04E000F05FF8204600F05DF8A7
:1010D000257720680169C943C90617D4C168C94387
:1010E000C90613D46FF01001016108202077206831
:1010F000C06910F4407F204602D0FFF791FF04E062
:1011000000F042F8204600F040F825772068016999
:10111000C943C90708D1C168C943C90704D1891E99
:101120000161204600F032F820680169C9430906D0
:1011300009D4C168C943090605D46FF08001016173
:101140002046FFF711FF20680169C943490609D409
:10115000C168C943490605D46FF0400101612046CA
:1011600000F01EF820680169C94389060BD4C168E4
:10117000C943890607D46FF0200101612046BDE80C
:101180007040FFF7F2BE70BD7047704700680349BA
:10119000884201D1FFF798BB70470000002C014046
:1011A0007047704770470000F8B50168044608684A
:1011B000CA684B6910F00F0F4FF0000559D003F0CB
:1011C000010602F49077374365D0C10705D0D105F9
:1011D00003D5616C41F001016164410705D5D90770
:1011E00003D0616C41F002016164810705D5D90724
:1011F00003D0616C41F004016164010707D502F07E
:101200002001314303D0616C41F008016164616CDD
:1012100000293AD0800604D5900602D5204600F079
:10122000BCFC20684069616CC0F38010090700D4E1
:1012300060B3204600F08AFC20684069400621D552
:101240002068143050E8001F21F0400140E80012EF
:10125000002AF5D1E06BA8B16D494163E06BFFF75F
:10126000EBF9002811D0E06B416B01B0BDE8F04014
:10127000084783060FD593060DD52046BDE8F840F4
:1012800000F08BBC2046FFF78DFFF8BD2046FFF72E
:1012900089FF6564F8BD266B2023012E7CD1C6062C
:1012A0007AD5D60678D508684868009048694FF026
:1012B0000206400640D5E16B086840680004000C57
:1012C000E8D0A28D8242E5D9E085886920282DD01A
:1012D00020680C3050E8001F21F4807140E80012B3
:1012E000002AF5D12068143050E8001F21F00101D8
:1012F00040E80012002AF5D12068143050E8001FA1
:1013000021F0400140E80012002AF5D184F8423073
:10131000256320680C3050E8001F21F0100140E8E0
:101320000012002AF5D1E06BFFF763F96663A08D28
:10133000E18D401A81B22AE0A08DE18D401A81B280
:10134000E08D0028A6D00029A4D022680C3252E8F3
:10135000000F20F4907042E80007002FF5D12068BC
:10136000143050E8002F22F0010240E80027002F3F
:10137000F5D184F84230256320680C3050E8002F06
:1013800022F0100240E80023002BF5D166632046CE
:10139000FFF707FFF8BDFFE705062BD5150629D592
:1013A00094F841002128F5D1A068B0F5805F01D103
:1013B0002069B0B1206A411C216221680078486030
:1013C000E08C401E0004000CE084E3D12068C1687A
:1013D00021F08001C1602068C16841F04001C16016
:1013E000D8E7206A0088C0F308004860206A801CA3
:1013F0002062E5E74006CDD55006CBD5CA68204629
:1014000022F04002CA6084F8413000F028F9C1E7B8
:101410003D1B000870B5040004D094F8410000257D
:1014200010B106E0012070BD84F84050204600F065
:1014300023F8242084F841002068C16821F4005179
:10144000C160204600F00AFC2068016921F4904147
:1014500001612068416921F02A0141612068C16869
:1014600041F40051C1606564202084F8410084F893
:1014700042006563002070BD70B586B00024009402
:101480000194029403942E4E03682E4902200322F5
:101490002D4DB34226D18B6943F480438B618B6918
:1014A00003F4804304938B6943F004038B618969DF
:1014B000039201F0040104910102CDE90010694694
:1014C0002846FFF705F92815CDE9000469462846A6
:1014D0000294FFF7FDF8002205212520FFF786FA88
:1014E000252028E0194EB34227D1CB6943F40033BD
:1014F000CB61CB6903F4003304938B6943F004039D
:101500008B618969039201F0040104910421CDE902
:10151000001069462846FFF7DBF80820CDE90004F3
:10152000694628460294FFF7D3F8002205212620B9
:10153000FFF75CFA2620FFF74BFA06B070BD0000FB
:101540000038014000100240000801400044004003
:1015500090F84230202B01D00220704721B11AB1FF
:101560000023036300F0D6BB0120704770B5064628
:10157000006828490025284C884220D12748A268C5
:1015800061788154521C1044A26010F8010C0A28A2
:101590000FD12249921EA1F18000FEF71AFFA16827
:1015A000881E60611D48FEF746FFA560A06C01F033
:1015B00013FA19490122491C1948FFF7C9FF1949B3
:1015C0003068884225D11548E2688030A17881547E
:1015D000521C1044E26010F8010C0A2811D10F4986
:1015E000921E8031A1F58A70FEF7F3FEE168881E35
:1015F00020610A488030FEF71EFFE560E06C01F0D4
:10160000EBF9BDE8704004490122891C0648FFF748
:101610009FBF70BD00380140000000206001002025
:10162000C8040020004400401005002090F841301C
:10163000202B01D00220704779B172B101628284FF
:10164000C28400214164212180F841100068C168F2
:1016500041F08001C1600020704701207047704751
:10166000FEE7000010B5A4B01C2220496846FEF732
:10167000B0FE0021684600F0A7FB1D4C1B491C2250
:1016800020641C3107A8FEF7A4FE002107A800F083
:101690009BFB164960641C2238310EA8FEF799FEA8
:1016A00000210EA800F090FB1049A0641C225431C8
:1016B00015A8FEF78EFE002115A800F085FB0B494A
:1016C000E0641C2270311CA8FEF783FE00211CA8D8
:1016D00000F07AFB2065A06C00F078FFE06C00F071
:1016E00075FF206D00F072FF24B010BD602A000865
:1016F0000000002070B586B000241C4800940194BE
:1017000002940394816941F010018161816901F0C3
:1017100010010491816941F020018161816901F02A
:1017200020010491816941F004018161816901F026
:1017300004010491816941F00801816180690C4EC6
:1017400000F008004FF4107504900022294630463E
:10175000FFF7AEF801200095CDE9010402200390C7
:1017600069463046FEF7B4FF06B070BD0010024077
:10177000000C01400C4810B50A4901604FF4E131FA
:101780004160002181600C22C160C0E904128161C6
:10179000C161FFF73FFE002803D0BDE81040FEF70F
:1017A00026BF10BD00380140C80400200C4810B509
:1017B0000A4901604FF4E1314160002181600C224F
:1017C000C160C0E904128161C161FFF723FE0028F6
:1017D00003D0BDE81040FEF70ABF10BD0044004032
:1017E00010050020FEE7FEE788B0344C00254FF4DA
:1017F000FA76142232496846FEF7EBFD3149059529
:10180000069501F5CA702269FEF7B2FD22692EA184
:1018100005A8521DFEF728FD05A8FEF7BBFD0246F0
:1018200005A96846FEF7A4FD6846FEF7B3FD82B23F
:1018300069462648FFF7FAFEC82000F0B9FA1F48AB
:10184000C01CFEF7A7FD1D4982B2C91C1F48FFF747
:10185000EDFEC82000F0ACFA18485430FEF79AFDAF
:10186000164982B254311948FFF7E0FE304600F0C5
:101870009FFA1748FEF78EFD82B215491348FFF70D
:10188000D5FE304600F094FA0C48FEF783FD82B294
:101890000A490E48FFF7CAFE304600F089FA1421C3
:1018A0000B48FEF7C8FD14210648FEF7C4FD059558
:1018B00006952561E06C00F089FE9AE700000020A3
:1018C000EC2A0008CC00002025640000C804002099
:1018D00060020020012000F06BFAFBE7404CA06999
:1018E000FEF758FD82B23F48A169FFF79FFE4FF413
:1018F000FA75284600F05CFAE069FEF74BFD82B20B
:101900003848E169FFF792FE284600F051FA206A54
:10191000FEF740FD82B23348216AFFF787FE284672
:1019200000F046FA606AFEF735FD82B22D48616A22
:10193000FFF77CFE284600F03BFAA06AFEF72AFD7E
:1019400082B22848A16AFFF771FE40F6B83000F075
:101950002FFAE06AFEF71EFD82B22248E16AFFF725
:1019600065FE284600F024FA206BFEF713FD82B2D4
:101970001C48216BFFF75AFE40F6AC5000F018FAF5
:10198000606BFEF707FD82B21648616BFFF74EFEF3
:10199000284600F00DFAA06BFEF7FCFC82B211485D
:1019A000A16BFFF743FE284600F002FAE06BFEF75A
:1019B000F1FC82B20B48E16BFFF738FE642000F0C7
:1019C000F7F90122611C0748FFF7C2FD0122A11CA3
:1019D0000548FFF7BDFD002000F06CFDFEE70000AC
:1019E00000000020C804002010050020094D4FF41D
:1019F0009674012240212846FEF75AFF204600F047
:101A0000D7F9002240212846FEF752FF204600F079
:101A1000CFF9EEE7000C0140054C00258021054878
:101A2000FEF709FD6561A06C00F0D0FDF6E700004F
:101A300000000020E000002010B5502080F3118845
:101A4000BFF34F8FBFF36F8F00F000FF18B1044951
:101A50004FF080500860002080F3118810BD000016
:101A600004ED00E030B58FB028216846FEF7E3FCB6
:101A700014210AA8FEF7DFFC01210804CDE90010BB
:101A80000024029402250491CDE907504FF4E010A0
:101A900009906846FFF7D8F808B172B6FEE70F2044
:101AA000CDE90A054FF48060CDE90C4002210AA877
:101AB0000E94FEF7CDFF002801D072B6FEE70FB0FE
:101AC00030BD70470148FFF7ACBA00005805002050
:101AD000F0B50268164B174C174D4FF080479842EF
:101AE00005D0B84203D0A04201D0A84203D122F0D1
:101AF00070064A683243984205D0B84203D0A042EB
:101B000001D0A84203D122F44074CA6822434C6930
:101B100022F08002224302608A68C2620A688262FE
:101B2000984201D10969016301214161F0BD0000C2
:101B3000002C0140000400400008004010B5406A3D
:101B40000021C185C184FFF72DFB10BD01680C3158
:101B500051E8002F22F4907241E80023002BF5D1C8
:101B60000168143151E8002F22F0010241E80023FE
:101B7000002BF5D1016B012909D101680C3151E825
:101B8000002F22F0100241E80023002BF5D1202184
:101B900080F8421000210163704708B590F84210A8
:101BA000222901D0022008BD82684FF480539A4256
:101BB00001D1016921B1816A9A421BD04AB10AE080
:101BC0000268816A5268C2F308020A80816A891C2D
:101BD00008E0026972B10268526802F07F020A707E
:101BE000816A491C8162C18D491E0904090CC185A5
:101BF00003D01BE002685268F1E70168CA6822F06E
:101C00002002CA600168CA6822F48072CA60016852
:101C10004A6922F001024A61202180F84210002125
:101C20004163026B012A03D0FFF7A0FC002008BD2E
:101C3000016301680C3151E8002F22F0100241E8E5
:101C40000023002BF5D101680A68D20602D50A6884
:101C500049680091818DFFF7A4FAE7E770B5044663
:101C600000680169E26821F4405111430161216972
:101C7000A0680843616908432168CA6841F20C639F
:101C80009A430243CA6020684169A26921F4407105
:101C9000114341611E492068884202D1FEF79EFF30
:101CA00001E0FEF78BFF00EBC00101EB0012606862
:101CB00064218000B2FBF0F3B3FBF1F36FF0180680
:101CC0007343B2FBF0F5B2FBF0F605EB830532236C
:101CD00003EB0515B5FBF1F5B6FBF1F605F0F005E4
:101CE00005EB0615B2FBF0F6B2FBF0F0B0FBF1F03D
:101CF0006FF01802504306EB800003EB0010B0FBBE
:101D0000F1F0216800F00F002844886070BD0000E9
:101D10000038014081628285C28500214164222110
:101D200080F84210016921B10168CA6842F48072EA
:101D3000CA6001684A6942F001024A610068C168EC
:101D400041F02001C1600020704700000148FFF70A
:101D50002BBA0000C80400200148FFF725BA000094
:101D600010050020FEE70907090E002804DB00F13A
:101D7000E02080F80014704700F00F0000F1E02030
:101D800080F8141D7047FEF7A7FDFFF76BFEFFF705
:101D9000B1FCFFF7EFFCFFF709FDFFF763FC00F074
:101DA0000EF8FEE701460020842900D0C81C7047C9
:101DB00010B500B9012000F057FB002010BD10B590
:101DC00000F0CEFB002010BD7FB50D4604464169F2
:101DD000B0F9080081B1A16971B1FFF7E3FFD4E95F
:101DE00005128DE80700D4E900102B46226900F0A7
:101DF00002FD039004B070BDFFF7D4FF03A9CDE945
:101E00000001208A2B4682B2D4E9001000F0C6FC03
:101E1000012801D00020EDE70398EBE72DE9F04120
:101E2000184C0F46054666692068001D00F02EFA22
:101E300038B9206890F82C1001208840A1698143AE
:101E4000A161681C07D137B12168BDE8F0410E4897
:101E5000091D00F05FBA20683544B542456021682D
:101E600005D2A068BDE8F041091D00F03BBA6068EA
:101E7000091D00F037FA206B854200D22563BDE8CA
:101E8000F08100006C0000207C0600202DE9F0416C
:101E9000054600F04BFA2E4C2069401C206120685A
:101EA0002C4F10B1E06940B32DE025602069012876
:101EB00029D1002606EB860007EB800000F004FA2B
:101EC000761C072EF6D323488C3000F0FDF921480C
:101ED000A03000F0F9F91F48B43000F0F5F91D48C2
:101EE000C83000F0F1F91B48DC3000F0EDF919487A
:101EF0008C3060601430A06005E02068E96AC06A38
:101F0000884200D82560E06A401CE062E96A01204E
:101F1000A26988401043A06101EB810007EB8000BB
:101F2000291D00F0F7F900F021FAE06900280CD033
:101F30002068E96AC06A884207D207494FF080509A
:101F40000860BFF34F8FBFF36F8FBDE8F0810000D3
:101F50006C000020A005002004ED00E010B5044650
:101F600090F8510058B101280CD002280FD0502011
:101F700080F31188BFF34F8FBFF36F8FFEE7206BA5
:101F800000F008FA2046BDE8104000F003BA10BD8A
:101F90000F4843F63041420705D0C01D0C4A20F0DF
:101FA0000700821A891A0B4A00230144C2E9000380
:101FB0000839103A21F0070111604B600B600B1AD1
:101FC000C0E9001393604FF000405360D060704749
:101FD00090060020B8000020144E154CA6F1C8074A
:101FE0004FF08058DFF84C9012E000BF00F09EF9EF
:101FF000F068C568281D00F049F92069401E20617D
:10200000E068401EE06000F0B1F92846FFF7A6FF47
:10201000E0680028EAD138680128F9D9C9F80080B9
:10202000BFF34F8FBFF36F8FF2E700006806002009
:102030006C00002004ED00E02DE9F0479A46DDE950
:10204000098481466FF00303206B03EB8202104486
:10205000089D20F00706700707D0502080F31188F4
:10206000BFF34F8FBFF36F8FFEE723180A5C83F82F
:1020700034200A5C12B1401C1028F6D3002784F8E3
:102080004370072D00D30625E562C4E91157201DD2
:1020900000F025F904F1180000F021F92461C5F1E0
:1020A00007006462A061E76484F8507052464946B4
:1020B000304600F0D9F82060B8F1000F01D0C8F820
:1020C0000040BDE8F087000030B5114900E011463E
:1020D0000A688242FBD34B685C18844203D1406893
:1020E00018444860084643681C18944209D1084CBB
:1020F000103C2468A24209D052681A4442600A681F
:1021000012680260814200D0086030BD0460F9E7C7
:10211000B800002006484168096829B14168C968CB
:10212000C9684968016370474FF0FF31FAE7000062
:102130006C00002008484068401C4FF0500080F3BD
:10214000118804D0BFF34F8FBFF36F8FFEE7BFF34B
:102150004F8FBFF36F8FFEE7C0000020002150B10A
:102160000A4B42699A420FD1806AA3F12802904239
:102170000AD040B108E0502080F31188BFF34F8FA0
:10218000BFF36F8FFEE70121084670477C060020F1
:102190002DE9F0410546002700F076FA314E30680F
:1021A00008B9FFF7F5FEF06805424BD1C5B3083515
:1021B00068070ED005F00700C0F108000544680765
:1021C00007D0502080F31188BFF34F8FBFF36F8F7C
:1021D000FEE72DB37068854234D82248103001469E
:1021E0000C6801E020460C466168A94202D22168D1
:1021F0000029F7D131688C4224D00768216801603A
:1022000060680837411B10290FD96019420708D0B0
:10221000502080F31188BFF34F8FBFF36F8FFEE71D
:1022200010E041606560FFF74FFF61687068401A19
:102230007060B268904200D2B060F0680143002044
:10224000C4E9000100F066FB780707D0502080F356
:102250001188BFF34F8FBFF36F8FFEE73846BDE89D
:10226000F0810000A800002010B5031F4FF080741B
:102270001C601B1F21F001011960191F024B0B602C
:10228000143940380A6010BD35210008D0E9013208
:1022900001699A60D0E901235A604A68824201D1FB
:1022A00082684A60002202610868401E086008686F
:1022B00070470000034B036003F154000860802066
:1022C000106070477402002000F108014FF0FF32E7
:1022D000C0E90112C1600161002101607047002165
:1022E0000161704730B50B685A1C02D000F108023A
:1022F00002E0026904E02246546825689D42FAD94A
:1023000053684B6099608A60516008610168491C9C
:10231000016030BD42684A6093688B609368596081
:10232000916008610168491C01607047502080F38A
:102330001188BFF34F8FBFF36F8F0A494868401C65
:10234000486001280CD10848006810F0FF0F07D042
:10235000502080F31188BFF34F8FBFF36F8FFEE7DC
:1023600070470000C000002004ED00E00849486804
:1023700028B1401E486001D180F311887047502079
:1023800080F31188BFF34F8FBFF36F8FFEE700001C
:10239000C000002070B5002827D0144DA0F108041B
:1023A0006168E868014207D1502080F31188BFF3CB
:1023B0004F8FBFF36F8FFEE722683AB1502080F352
:1023C0001188BFF34F8FBFF36F8FFEE781436160CA
:1023D00000F05AF960686968084468602046FFF7B1
:1023E00073FEBDE8704000F095BA70BDA8000020F3
:1023F0004FF0E02000210161816105494FF47A72BC
:102400000968B1FBF2F1491E416107210161704782
:102410006800002010B5FDF703FF114910280ED306
:1024200000F1E02090F8F0030A78904207D25020A3
:1024300080F31188BFF34F8FBFF36F8FFEE709481A
:102440000068896800F4E060884207D9502080F372
:102450001188BFF34F8FBFF36F8FFEE710BD0000F1
:10246000C00000200CED00E010B5020014D00F48B1
:10247000806B38B1502080F31188BFF34F8FBFF3CA
:102480006F8FFEE700F000F900211046FFF7C6FC51
:1024900000F040FA002807D105494FF0805008604D
:1024A000BFF34F8FBFF36F8F10BD00006C00002093
:1024B00004ED00E070B50546FFF738FF254C05B97F
:1024C0002568281DFFF7E2FE58B9E86A224A00EBAA
:1024D000800152F8211021B901218140A06988436F
:1024E000A061A86A18B105F11800FFF7CFFEE06AF5
:1024F000401CE0622068854208D11748291DC83079
:10250000FFF708FFE068401CE06007E02069401E1C
:1025100020612846FFF722FDFFF7FCFDFFF726FFAD
:10252000E069002814D02068854211D1A06B38B131
:10253000502080F31188BFF34F8FBFF36F8FFEE7FA
:1025400006494FF080500860BFF34F8FBFF36F8F85
:1025500070BD00006C000020A005002004ED00E02C
:1025600010B586B00024039405AA04A903A8049416
:10257000FFF7A0FEDDE903010094CDE9011000237F
:102580000EA11048059A00F036F90F49002848635B
:1025900011D0502080F31188BFF34F8FBFF36F8F9E
:1025A0004FF0FF3008630120C8614C6106B0BDE800
:1025B000104000F09FB806B010BD000049444C45E3
:1025C00000000000D91F00086C00002070B5044610
:1025D000FFF7ACFE294D04B92C68201DFFF756FE0D
:1025E00058B9E06A264A00EB800152F8211021B95F
:1025F00001218140A8698843A861A06A18B104F14B
:102600001800FFF743FE1E48211DDC30FFF782FE55
:1026100094F850000026012801D184F85060FFF79B
:10262000A5FEE86928B1FFF781FEFFF773FDFFF70C
:102630009DFE2868844213D1E86990B1A86B38B137
:10264000502080F31188BFF34F8FBFF36F8FFEE7E9
:102650000C494FF080500860BFF34F8FBFF36F8F6E
:1026600070BD0748DC3000682969884201D12E60BE
:1026700070BDBDE8704000F00FB800006C00002095
:10268000A005002004ED00E00248816B491C816335
:10269000704700006C0000201448816B11B10121CB
:1026A00041627047002141628169B1FA81F1C1F153
:1026B0001F0101EB81020E4951F822306BB101EB91
:1026C000820101F108034A6852684A609A4201D1C6
:1026D00052684A60D16801607047502080F31188C9
:1026E000BFF34F8FBFF36F8FFEE700006C00002039
:1026F000A00500201CB5264908780190FF2008702D
:1027000008788DF800009DF800009DF8002000F08A
:10271000F000904207D0502080F31188BFF34F8F14
:10272000BFF36F8FFEE79DF800001A4B00F05000DA
:1027300018700720986005E09DF8002052008DF881
:102740000020401E9DF800201206F5D49860032852
:1027500007D0502080F31188BFF34F8FBFF36F8FE6
:10276000FEE74FF440709860019808700A480168CD
:1027700041F470010160016841F070410160FFF7B0
:1027800037FE00205860FDF715FD00201CBD00003D
:1027900000E400E0C000002020ED00E02DE9FF5F34
:1027A0008346DDE90E87994616468A469000FFF774
:1027B000EFFC05001CD05420FFF7EAFC040014D005
:1027C0000020256384F85100CDE90240CDE900875F
:1027D0004B46324651465846FFF72EFC2046FFF73F
:1027E00055FB012004B0BDE8F09F2846FFF7D2FD5D
:1027F0004FF0FF30F6E7F0B585B0DDE90B640A9DD8
:10280000A6B1DCB1542700972663022684F85160F4
:10281000002604AFCDE90246CDE90057FFF70CFCD6
:102820002046FFF733FB049805B0F0BD502080F33D
:102830001188BFF34F8FBFF36F8FFEE7502080F3F7
:102840001188BFF34F8FBFF36F8FFEE72DE9F04183
:102850002E4C0027A06B40B1206A401C2062606AA9
:1028600000B101273846BDE8F0816669761C6661D3
:1028700013D16068006838B1502080F31188BFF32D
:102880004F8FBFF36F8FFEE76068A1686160A06043
:10289000A06A401CA062FFF73DFC206BDFF870804F
:1028A000864209D36068006880B16068C068C56806
:1028B000686886420DD220632068C06A00EB800100
:1028C00058F821000128CAD90127C8E74FF0FF3086
:1028D000F1E7281DFFF7DAFCA86A18B105F1180026
:1028E000FFF7D4FCE86A0121A26981401143A1618C
:1028F00000EB800108EB8100291DFFF70BFDE86A62
:102900002168C96A8842CDD30127CBE76C0000203B
:10291000A00500202DE9F0472C4D00242746A86B88
:1029200038B1FFF703FDA86B401EA863A86B40B148
:1029300046E0502080F31188BFF34F8FBFF36F8FB5
:10294000FEE72969224E0120D1B3A6F1B4098046E1
:102950003068E8B1F068C46804F11800FFF796FC2D
:10296000201DFFF793FCE06AAA6908FA00F1114301
:10297000A96100EB800109EB8100211DFFF7CAFC72
:10298000E06A2968C96A8842E2D3C5F82480DFE793
:102990000CB1FFF7BFFB2C6A44B14646FFF756FF68
:1029A00000B16E62641EF9D100202862686A38B1F5
:1029B0000849012738070860BFF34F8FBFF36F8FB7
:1029C000FFF7D4FC3846BDE8F08700006C0000201B
:1029D0005406002004ED00E02DE9F041002704003A
:1029E00015D0FFF717FD5020EFF3118580F3118804
:1029F000BFF34F8FBFF36F8F2046FFF7AFFB30B3AE
:102A0000154EB06B58B104F1180114481DE0502068
:102A100080F31188BFF34F8FBFF36F8FFEE7E06A3B
:102A20003168C96A884200D30127201DFFF72EFCB8
:102A3000E16A0120B26988401043B06101EB810076
:102A40000649B43901EB8000211DFFF763FC85F3D3
:102A500011883846BDE8F0816C0000205406002043
:102A6000F42B0008ED190008FDFF00000000000035
:102A7000800000000000000000000000242C00087E
:102A8000DD18000802000000000000000002000045
:102A90000000000000000000182C0008191A0008AF
:102AA0000000000000000000000400000000000022
:102AB000000000000C2C0008E9170008FFFF0000D0
:102AC0000000000000040000000000000000000002
:102AD000042C0008D51800080100000000000000C8
:102AE00000040000000000000000000041542B43DF
:102AF000495053454E443D000000000000000000D6
:102B0000010202030405060708090A0B0C0D0E0F4B
:102B1000101000000000000000000102030406077E
:102B200008090000000001020304000041542B4387
:102B3000574A41503D227573625F6C61625F322E6D
:102B40003447222C227573626C6162776966692250
:102B50000D0A000041542B4950523D31313532307D
:102B6000300D0A0041542B4349504D4F44453D30F0
:102B70000D0A000041542B4357444843503D312C2B
:102B8000310D0A0041542B43574D4F44453D310D03
:102B90000A00000041542B43495053544152543DC4
:102BA00022544350222C223139322E3136382E31E4
:102BB0002E3237222C383736340D0A0041542B433D
:102BC000495053454E443D390D0A000041542B43B2
:102BD0004950434C4F53450D0A00000041542B43CC
:102BE000575141500D0A0000303241303030303101
:102BF0002D0000005461736B53746174654C45443F
:102C0000000000005461736B495053005461736BB2
:102C1000426172636F6465005461736B5769466902
:102C2000000000005461736B496E6974000000007D
:102C3000502C000800000020CC00000028010008F3
:102C40001C2D0008CC00002054480000440100085E
:102C50002D00000D0A000000000000000000000030
:102C60000000000000000000542B0008CC2B0008DE
:102C7000DC2B0008842B00082C2B0008742B000888
:102C8000942B0008642B0008BC2B0008E82B0008DC
:102C90000000000000000000000000000000000034
:102CA000000000003033413A000000000100000045
:102CB00010000000000000000024F40000000000EC
:102CC0000000000000000000000000000000000004
:102CD00000000000000000000000000000000000F4
:102CE00000000000000000000000000000000000E4
:102CF00000000000000000000000000000000000D4
:102D000000000000000000000000000000000000C3
:0C2D100000000000AAAAAAAA000000000F
:04000005080000ED02
:00000001FF
