:020000040000FA
:1000000008020020C1000000F9060000D906000027
:10001000FFFFFFFFFFFFFFFFFFFFFFFFFFFFFFFFF0
:10002000FFFFFFFFFFFFFFFFFFFFFFFFFD060000D9
:10003000FFFFFFFFFFFFFFFFFB060000FF060000C2
:1000400035010000350100003501000035010000D8
:1000500035010000350100003501000035010000C8
:1000600075020000FFFFFFFF3501000035010000B1
:10007000350100003501000035010000FFFFFFFFE2
:10008000FFFFFFFF350100003501000035010000D2
:100090003501000035010000350100003501000088
:1000A0003501000035010000350100003501000078
:1000B0003501000035010000350100003501000068
:1000C0001D4880471D4880471D4800471D4801695D
:1000D000002908D14169002905D18169002902D18F
:1000E000C169002909D01848C1680901090D002912
:1000F0000ED005290CD006290AD0BFF34F8F134824
:100100001349016013491248C860BFF34F8FFEE7DF
:100110000E4801680E48884200D070470E480F49CB
:1001200001600A480E4901607047FEE7FEE7FEE7FE
:10013000FEE7FEE7FEE70000CD000000010700003B
:100140006501000000030840800108400000002015
:100150000400FA0500ED00E0008108400100000005
:10016000000000000348854600F006F800480047FC
:10017000C108000008020020064C0125064E05E0DB
:10018000E36807CC2B430C3C98471034B442F7D3B8
:10019000FFF7ECFF3009000040090000826F0723E1
:1001A0009A430A43826770470F221202836F934378
:1001B000090219438167704709048918C1677047AC
:1001C0008C22815070474A1E9141C90102688023E8
:1001D0009A43511801607047F0B581B00124A10322
:1001E000220600263046234600F068F94021022509
:1001F00030462A4600F0A4F810200627394600F0C1
:1002000079F92F4829462246334600F075F82C48E4
:10021000314600F08AF82A4D2846394632463346A0
:1002200000F05CF82846214600F078F828462E4673
:100230003946FFF7B9FF032530462946FFF7AEFFE1
:100240007D20C20006493046FFF7B6FF290430463C
:10025000224600F037F820020249086001B0F0BDE4
:10026000B80B000000E100E0882280580840411EE1
:100270008841704770B501263504114C2046294647
:10028000FFF7F2FF002809D020462946FFF798FF24
:10029000012000F011FA002000F004FA7504204655
:1002A0002946FFF7E1FF002809D020462946FFF73D
:1002B00087FF002000F000FA012000F0F3F970BD84
:1002C00000000140002A04D0802283580B43835051
:1002D0007047802283588B4383507047B0B5930793
:1002E000DB0E1F249C40FC25154040194268A243A8
:1002F000994011434160B0BD10B51B04064C1B1959
:1003000012025118FF22D243891819430268802330
:1003100013400B43036010BD0000FFFF1F220B467C
:1003200013400367914341677047016270474A1E5B
:100330009141426F01239A43511841677047000071
:10034000F0B58EB0C0005C4BC4180F2318020790A4
:10035000180308901804099018050A9018060B90C5
:1003600018070C900E060D9452D00120084045420B
:100370002F461F408807059000D5F03748070490A6
:1003800001D5079807430807039001D5089807434C
:10039000C806029001D5099807438806019001D547
:1003A0000A9807434806009003D530460B9E374312
:1003B00006460696002E01D50C9E37430D9C2468F8
:1003C000BC4317010598C6173E4015403543160239
:1003D0000498C71737402F4315030398C6172E40BC
:1003E0003E4315040298C7172F403743150501985F
:1003F000C6172E403E4315060098C01728403043CC
:100400001507069EF6172E40064326430D9C2660D0
:100410000E04300E41D0C805C7173B408805069032
:1004200000D5F0334805059001D50798034308052A
:10043000079001D508980343C80408902FD4880476
:1004400031D4490433D4002E01D50C9D2B4365686B
:100450009D431301069CE4171C40174027431302D9
:10046000059CE4171C403C431303079FFF171F40E4
:1004700027431304089CE4171C403C431305C01792
:10048000184020431306C917194001431007F217FB
:1004900002400A432A430D9842600EB0F0BD09980D
:1004A00003438804CDD50A9D2B434904CBD50B9D2E
:1004B0002B43002EC9D4CAE72020024070B50C4C53
:1004C0002568002B01D0054300E08543A668E0685D
:1004D0002560002B01D00E4300E08E43A660002B68
:1004E00002D01043E06070BD9043E06070BDC04634
:1004F00024800840814007228240034803689343D8
:100500000B4303607047C04628800840002A03D090
:1005100002680A430260704702688A4302607047BB
:10052000F0B500230E251C4603E0090A10352E2DD8
:100530005AD0CE070ED18E0716D44E071ED40E0702
:1005400026D4CE062ED48E0635D44E063CD40E06C6
:10055000EBD542E02E460E3E0327B7403B431746FD
:10056000B7403C438E07E8D52E460C3E0327B740E4
:100570003B431746B7403C434E07E0D52E460A3E64
:100580000327B7403B431746B7403C430E07D8D537
:100590002E46083E0327B7403B431746B7403C432F
:1005A000CE06D0D5AE1F0327B7403B431746B74012
:1005B0003C438E06C9D52E1F0327B7403B43174641
:1005C000B7403C434E06C2D5AE1E0327B7403B435F
:1005D0001746B7403C430E06A7D50326AE4033432B
:1005E0001646AE403443A0E74169994341614169F1
:1005F00021434161F0BD012A07D0002A0BD1826856
:100600000A4382600C30C9430AE0C2680A43C260F0
:100610000830C94304E082688A4382600C30C943D1
:1006200002680A400260704770B582B006466846AC
:1006300000228280009226498D5D01244455017874
:1006400021404378DB079B0F59188378DB075B0F4A
:10065000C918C078C007000F08180004A10323467A
:10066000FFF72CFF0E48825D700018490E5A28468D
:100670003146FFF765FEA80016490D586E6202224A
:1006800028463146FFF7B7FF284631462246FFF796
:1006900047FF284631462246FFF738FF02B070BDBB
:1006A000240900004100094A515A094A105C80009F
:1006B000084A1058416270474100044A515A044A9E
:1006C000105C8000034A1058816270472A090000BC
:1006D000270900000C09000006480168002908D11C
:1006E0000168002905D10168002902D101680029AB
:1006F000F3D0704700000020704770477047704784
:10070000F0B586B069481021039101606848012165
:100710000160684AD36A402402942343D362664B43
:100720005C68272C08D05C68272C05D05C68272CD7
:1007300002D05C68272CF3D14C021D68AD050FD4A4
:100740001C601D6825420BD11C601D68254207D125
:100750001C601D68254203D11C601D682542EFD036
:100760001D6825420ED000251D601E68264209D056
:100770001D601E68264205D01D601E68264201D0FD
:100780001D60EDE700230493036003208302156AD4
:100790009D431562CB0215681D43156053681B0706
:1007A00008D453681B0705D453681B0702D4536849
:1007B0001B07F3D51368019003430425AB43136073
:1007C000136B07263340032B0BD0136B3340032BE3
:1007D00007D0136B3340032B03D0136B3340032B31
:1007E000EED1364F3B680B430620009083433B60BD
:1007F0000498D0611368A34313600D02131F186897
:1008000028431860059188021168014311605068FF
:10081000400708D45068400705D45068400702D408
:1008200050684007F3D5D06A02998843D0621868AF
:10083000A8431860019800065061106820431060BA
:100840005068800708D45068800705D45068800736
:1008500002D450688007F3D538680221014305208F
:10086000814339600498D061106805990843009964
:1008700088431060106B304001280BD0106B304063
:10088000012807D0106B3040012803D0106B304096
:100890000128EFD1386803990843386005980003B0
:1008A00039680143396006B0F0BDC0460C8108408C
:1008B000008308400480084004A10640000208406C
:1008C0000020FFF7B1FE01242046FFF7ADFEFFF741
:1008D00083FC054D28462146FFF775FC2846214636
:1008E000FFF725FDFEE7C0460000014002E008C812
:1008F000121F08C1002AFAD170477047002001E09A
:1009000001C1121F002AFBD17047000000000B40FC
:1009100000200B4000400B4000600B400000000036
:1009200000000000010101020202004000800200FC
:10093000400900000000002008020000FC08000040
:04000005000000C136
:00000001FF
