:020000040000FA
:10000000F8020020C10000002D0800006506000075
:10001000FFFFFFFFFFFFFFFFFFFFFFFFFFFFFFFFF0
:10002000FFFFFFFFFFFFFFFFFFFFFFFF31080000A3
:10003000FFFFFFFFFFFFFFFF2F0800003308000056
:1000400035010000350100003501000035010000D8
:1000500035010000350100003501000035010000C8
:1000600035010000FFFFFFFF3501000035010000F2
:10007000350100003501000035010000FFFFFFFFE2
:10008000FFFFFFFF7D030000350100003501000088
:100090003501000035010000350100003501000088
:1000A000110A000035010000350100003501000093
:1000B0003501000035010000350100003501000068
:1000C0001D4880471D4880471D4800471D4801695D
:1000D000002908D14169002905D18169002902D18F
:1000E000C169002909D01848C1680901090D002912
:1000F0000ED005290CD006290AD0BFF34F8F134824
:100100001349016013491248C860BFF34F8FFEE7DF
:100110000E4801680E48884200D070470E480F49CB
:1001200001600A480E4901607047FEE7FEE7FEE7FE
:10013000FEE7FEE7FEE70000CD0000003D080000FE
:100140006501000000030840800108400000002015
:100150000400FA0500ED00E0008108400100000005
:10016000000000000348854600F038F800480047CA
:10017000C50C0000F8020020D2B201E00270401C61
:10018000491EFBD270470022F6E710B513460A4617
:1001900004461946FFF7F0FF204610BD70B504462F
:1001A000002903D000202022012310E0002801D0E4
:1001B0000020C043C046C0460DE02546D5408D42D4
:1001C00005D30D469540641B1D46954040191546C4
:1001D000521E002DF1DC214670BD0000064C0125A9
:1001E000064E05E0E36807CC2B430C3C98471034DF
:1001F000B442F7D3FFF7BAFF380E0000580E0000E4
:10020000F0B58EB0C0005C4BC4180F2318020790E5
:10021000180308901804099018050A9018060B9006
:1002200018070C900E060D9452D00120084045424C
:100230002F461F408807059000D5F03748070490E7
:1002400001D5079807430807039001D5089807438D
:10025000C806029001D5099807438806019001D588
:100260000A9807434806009003D530460B9E374353
:1002700006460696002E01D50C9E37430D9C246839
:10028000BC4317010598C6173E401540354316027A
:100290000498C71737402F4315030398C6172E40FD
:1002A0003E4315040298C7172F40374315050198A0
:1002B000C6172E403E4315060098C017284030430D
:1002C0001507069EF6172E40064326430D9C266012
:1002D0000E04300E41D0C805C7173B408805069074
:1002E00000D5F0334805059001D50798034308056C
:1002F000079001D508980343C80408902FD48804B8
:1003000031D4490433D4002E01D50C9D2B436568AC
:100310009D431301069CE4171C401740274313021A
:10032000059CE4171C403C431303079FFF171F4025
:1003300027431304089CE4171C403C431305C017D3
:10034000184020431306C917194001431007F2173C
:1003500002400A432A430D9842600EB0F0BD09984E
:1003600003438804CDD50A9D2B434904CBD50B9D6F
:100370002B43002EC9D4CAE72020024010B5084CF8
:10038000204600F021F8002808D006480168491CE2
:10039000016000F003FC204600F006F810BDC046E6
:1003A00000600740680000204168012291434160DD
:1003B000BFF34F8F70474A1E9141890002680423A2
:1003C0009A43511801607047416801200840704706
:1003D0004A1E9141026801239A43511801607047F7
:1003E000C160704781607047B0B541098900234BF7
:1003F000C9180A6AD9691C46183C246807240C40AD
:100400005D68194614390968890501D400210DE099
:100410001B49002D0AD41D686D012D0F01D06943C1
:1004200000E018491D686D02AD0FE940641E062CFE
:100430000AD8C0467C4424796400A7440C03030511
:1004400005070A000E4906E0002104E00121C90366
:1004500001E07D2109029C681B691F2303400325DD
:100460009D402A40DA402E2800D1921C052C00D352
:100470000524E140D1400846B0BDC0461880084080
:1004800000127A000020A10770B50C4C2568002BE3
:1004900001D0054300E08543A668E0682560002B95
:1004A00001D00E4300E08E43A660002B02D0104323
:1004B000E06070BD9043E06070BDC046248008409D
:1004C000002A03D002680A430260704702688A4328
:1004D00002607047F0B500230E251C4603E0090AB0
:1004E00010352E2D5AD0CE070ED18E0716D44E07BA
:1004F0001ED40E0726D4CE062ED48E0635D44E0634
:100500003CD40E06EBD542E02E460E3E0327B74004
:100510003B431746B7403C438E07E8D52E460C3E7A
:100520000327B7403B431746B7403C434E07E0D54F
:100530002E460A3E0327B7403B431746B7403C438D
:100540000E07D8D52E46083E0327B7403B43174633
:10055000B7403C43CE06D0D5AE1F0327B7403B4340
:100560001746B7403C438E06C9D52E1F0327B74018
:100570003B431746B7403C434E06C2D5AE1E032749
:10058000B7403B431746B7403C430E06A7D503266A
:10059000AE4033431646AE403443A0E74169994329
:1005A0004161416921434161F0BD012A07D0002A20
:1005B0000BD182680A4382600C30C9430AE0C268EA
:1005C0000A43C2600830C94304E082688A438260FB
:1005D0000C30C94302680A400260704770B582B0AF
:1005E000064668460022828000921A498D5D0124E9
:1005F0004455017821404378DB079B0F59188378D5
:10060000DB075B0FC918C078C007000F081800048B
:10061000A1032346FFF738FF0F48825D70000F49A2
:100620000E5A28463146FFF7EBFDA8000C490D583D
:100630006E62022228463146FFF7B7FF2846314650
:100640002246FFF747FF284631462246FFF738FF8C
:1006500002B070BD2F0E00002C0E0000320E000004
:10066000140E000006480168002908D1016800291D
:1006700005D10168002902D101680029F3D0704733
:100680006C000020F0B585B0644D2878644C0028DB
:100690000FD00026C1B2204600F071FA802120461A
:1006A00000F016FA0028F9D0761CF0B2285C002879
:1006B000F0D1002702974B2081007D20C6000298D0
:1006C00080084A2846D90191564D287800280ED036
:1006D000C1B2204600F053FA8021204600F0F8F91C
:1006E0000028F9D07F1CF8B2285C0028F0D1002740
:1006F00002970298019903E00298401C0290029828
:10070000884249D2002001E00498401C04900498DB
:10071000B042F1D20B20039003980028F4D0039844
:10072000401E039003980028EED00398401E0390CB
:1007300003980028E8D00398401E039003980028EF
:10074000E2D00398401EE6E70298401C029002980F
:100750008842B8D2002001E00498401C049004981C
:10076000B042F1D20B20039003980028F4D00398F4
:10077000401E039003980028EED00398401E03907B
:1007800003980028E8D00398401E0390039800289F
:10079000E2D00398401EE6E7234D287800280ED0CB
:1007A000C1B2204600F0EBF98021204600F090F91C
:1007B0000028F9D07F1CF8B2285C0028F0D1002076
:1007C00002900299019A03E00299491C0291029950
:1007D000914221D2049002E00499491C04910499A9
:1007E000B142F1D20B21039103990029F4D003996E
:1007F000491E039103990029EED00399491E0391E4
:1008000003990029E8D00399491E0391039900290F
:10081000E2D00399491EE6E705B0F0BD00000020D4
:10082000000004401300002024000020704770479F
:10083000704780B500F0E2F880BD0000F0B586B0EA
:100840006948102103910160684801210160684AEC
:10085000D36A402402942343D362664B5C68272CFE
:1008600008D05C68272C05D05C68272C02D05C6817
:10087000272CF3D14C021D68AD050FD41C601D68F8
:1008800025420BD11C601D68254207D11C601D68E4
:10089000254203D11C601D682542EFD01D6825420A
:1008A0000ED000251D601E68264209D01D601E68FE
:1008B000264205D01D601E68264201D01D60EDE76E
:1008C00000230493036003208302156A9D4315628D
:1008D000CB0215681D43156053681B0708D4536885
:1008E0001B0705D453681B0702D453681B07F3D5B5
:1008F0001368019003430425AB431360136B072671
:100900003340032B0BD0136B3340032B07D0136BF7
:100910003340032B03D0136B3340032BEED1364F00
:100920003B680B430620009083433B600498D061F2
:100930001368A34313600D02131F1868284318603F
:10094000059188021168014311605068400708D47E
:100950005068400705D45068400702D450684007EB
:10096000F3D5D06A02998843D0621868A84318600A
:10097000019800065061106820431060506880079D
:1009800008D45068800705D45068800702D45068A6
:100990008007F3D53868022101430520814339607F
:1009A0000498D06110680599084300998843106045
:1009B000106B304001280BD0106B3040012807D05D
:1009C000106B3040012803D0106B30400128EFD16C
:1009D0003868039908433860059800033968014373
:1009E000396006B0F0BDC0460C8108400083084065
:1009F0000480084004A10640000208400348016842
:100A0000002902D00168491E01607047740000206F
:100A1000B0B5F34C2021204600F05AF8002814D03D
:100A20002021204600F054F824490860204600F0B8
:100A3000A3F8A3490A68EC4B9854214B1870501C3A
:100A40000860802801D1002008600221204600F0C3
:100A500044F800281CD08021204600F039F80028F6
:100A600016D0184D2868002812D0174801684A1C73
:100A700002600978204600F082F82868401E28604D
:100A80002868002804D102210022204600F06AF8DC
:100A90000421204600F021F800280DD0012529026C
:100AA000204600F015F8002806D004210022204638
:100AB00000F058F805480560B0BDC046EC000020C5
:100AC000F00000207C000020800000207800002042
:100AD00000690840411E88417047C0680840411EB7
:100AE00088417047B0B50C464168164A0A40E18813
:100AF0001143A2880A432189114362890A43426053
:100B00001249884209DC0121890788420ED0114927
:100B1000884216D1114D1C200DE00D49884208D0A5
:100B2000AF4988420DD10E4D1A2004E0064D182021
:100B300001E0094D1E20FFF757FC2168FFF72EFB4F
:100B40002860B0BDFCE0FFFF24000040FFFF034031
:100B50000010044000100040241004402410004005
:100B600024000440002A03D0C2680A43C2607047D0
:100B7000C2688A43C2607047006880B270470160F3
:100B8000704710238B40002A03D04168194341600D
:100B9000704741689943416070470000F0B585B0E7
:100BA0000027F84390490A1853782C2B0AD09378E1
:100BB0002C2B09D0D3782C2B08D01279001D2C2A8D
:100BC000F1D104E0401C02E0801C00E0C01C401891
:100BD000011F09787D24E5006943421F1278334BD9
:100BE00053435918C21E127864235343C918821EF6
:100BF00012780A235343C918401E007808182C495C
:100C000040182C4908602C4988424DD101942B4E44
:100C1000307800280FD0724CC1B22046FFF7AFFFEA
:100C200080212046FFF754FF0028F9D07F1CF8B23E
:100C3000305C0028F0D100240294029880087C28BF
:100C40001C4A2AD80198800005E00299491C0291AB
:100C50000299814221D2049402E00499491C049132
:100C60000499A942F1D20B21039103990029F4D0F0
:100C70000399491E039103990029EED00399491E57
:100C8000039103990029E8D00399491E0391039920
:100C90000029E2D00399491EE6E714605248642116
:100CA000FFF771FA0648046005B0F0BD1027000098
:100CB000B0DCF7FF70000020D4A800003C0000204A
:100CC000E800002086B000252846FFF787FC0124B5
:100CD0002046FFF783FC032000044F2109022A4627
:100CE0002346FFF7D1FB1021062628463246FFF7A0
:100CF00087FA202128463246FFF782FA0395200220
:100D000002904B27F8010190354E01A93046FFF7BC
:100D1000E9FE200633490860304621462246FFF7A7
:100D200021FF304629462246FFF72BFF3046214659
:100D30002246FFF726FFFFF7A5FC049504988008DC
:100D40004A282BD8B8007D21C90005E0049A521C1E
:100D50000492049A824221D2019502E0019A521C27
:100D60000192019A8A42F1D20B220592059A002A39
:100D7000F4D0059A521E0592059A002AEED0059AE3
:100D8000521E0592059A002AE8D0059A521E059235
:100D9000059A002AE2D0059A521EE6E7124864211D
:100DA000FFF7F1F922040025284629462346FFF7DC
:100DB0006BFB60040B4908600C4801680C4E304620
:100DC000FFF70EFB30462946FFF70CFB3046214665
:100DD000FFF7FEFA30462146FFF7EDFAFEE7C04680
:100DE0000000044000E100E08400002064000020D6
:100DF0000060074002E008C8121F08C1002AFAD1AB
:100E000070477047002001E001C1121F002AFBD18A
:100E10007047000000000B4000200B4000400B40DA
:100E200000600B4000000000000000000101010212
:100E30000202004000800200580E00000000002066
:100E400068000000F40D0000C00E000068000020E3
:100E500090020000040E000041542B4144445245CE
:100E600053533D34333232320D0A0041542B4E4538
:100E700054574F524B49443D350D0A0041542B50B5
:100E80004152414D455445523D31302C372C312C87
:100E9000370D0A0041542B53454E443D3433323212
:100EA000302C35302C31302D31302D322D31303049
:100EB0002D3130302D3130302D0D0A00006CDC0228
:04000005000000C136
:00000001FF
